:0400000045EF00F0D8
:100008002282FACF1EF0FBCF1FF0F2A80EEF00F00D
:1000180010EF00F01BEF00F0F2A215EF00F017EF61
:1000280000F01BEF00F0A3EC01F03FEF00F0F0A6AA
:1000380020EF00F022EF00F02DEF00F0F0A027EF06
:1000480000F029EF00F02DEF00F09FEC01F03FEFFA
:1000580000F0F0A832EF00F034EF00F03FEF00F0CE
:10006800F0A239EF00F03BEF00F03FEF00F09BEC1F
:1000780001F03FEF00F01FC0FBFF1EC0FAFF229205
:100088001100AAEF00F0000E896E000E8A6E000EB5
:100098008B6E9268E70E936E810E946E000E0F01C0
:1000A800486F1F0E496FF18E000E426F000E416FB0
:1000B800000E406F050E0E01E26F040EE16F070E91
:1000C800F76F060EF86F060EC66F070EC76F1200A1
:1000D800080E7C6E900E9C6EB40EA86E190EAB6E58
:1000E800000E7D6E000E206E000E216E82EC01F077
:1000F800000E206E000E216E7DEC01F0000E206EC9
:10010800000E216E87EC01F0000E186E1200080E2A
:100118007E6E900EAC6E240EAD6E190EB06E000E93
:100128007F6E000E206E000E216E91EC01F0000E25
:10013800206E000E216E8CEC01F0000E206E000E79
:10014800216E96EC01F0000E196E12004E0EF66E3E
:10015800030EF76E000EF86E00EE1AF010EE04F0C3
:100168000900F5CFEEFFE550E150FAE1196A186A87
:10017800176A166A156A146A22902292000EF86E9F
:10018800000128EF01F0F292F18C5A0E206E030E56
:10019800216E78EC01F0F288F090F18A580E206E0A
:1001A800030E216E73EC01F0F086F092F188560E82
:1001B800206E030E216E6EEC01F0F08812000750DD
:1001C8000810D8B4EAEF00F0ECEF00F0F9EF00F017
:1001D80002D8F9EF00F00500FA6E0750FD6E0850DE
:1001E800FE6EF850FF6EFA501200120009500A1005
:1001F800D8B401EF01F003EF01F010EF01F002D8DD
:1002080010EF01F00500FA6E0950FD6E0A50FE6EFF
:10021800F850FF6EFA50120012000B500C10D8B4B0
:1002280018EF01F01AEF01F027EF01F002D827EFDD
:1002380001F00500FA6E0B50FD6E0C50FE6EF85082
:10024800FF6EFA50120012003BEC01F08B848B8297
:1002580082B031EF01F033EF01F036EF01F08B821D
:100268002CEF01F08B922CEF01F045EF00F0A9EC98
:1002780001F047EC00F05BEC01F04CEC01F0C7EC4E
:1002880000F065EC01F08BEC00F06CEC00F0120073
:10029800000EC16E010E0E01B86F000E0F01496FFE
:1002A800000EC36E000EC46E010EC26E1200600E08
:1002B800D36E000E9B6E000E0F013D6F140E876EFD
:1002C8001200000ED76E9C0ED66E9C0E136EF29422
:1002D800D568120020C007F021C008F0120020C025
:1002E80009F021C00AF0120020C00BF021C00CF068
:1002F800120020C003F021C004F0120020C005F055
:1003080021C006F0120020C001F021C002F0120046
:1003180020C00FF021C010F0120020C011F021C041
:1003280012F0120020C00DF021C00EF01200F09261
:10033800E3EC00F01200F090FAEC00F01200F292F8
:1003480011EC01F012000000803FD09E1200120054
:04035800120012007D
:08FFF800BEF7F7FFFFFBBFFBA2
:00000001FF
