:0400000045EF00F0D8
:100008004582FACF2AF0FBCF2BF0F2A80EEF00F0D2
:1000180010EF00F01BEF00F0F2A215EF00F017EF61
:1000280000F01BEF00F01FEC0CF03FEF00F0F0A623
:1000380020EF00F022EF00F02DEF00F0F0A027EF06
:1000480000F029EF00F02DEF00F01BEC0CF03FEF73
:1000580000F0F0A832EF00F034EF00F03FEF00F0CE
:10006800F0A239EF00F03BEF00F03FEF00F017ECA3
:100078000CF03FEF00F02BC0FBFF2AC0FAFF4592BF
:06008800110064EF0BF013
:100F000000DC177E177017220FE60FD21718111E7C
:100F10001816180E180618FE17F617EE17C8177CC5
:100F200012009DEC0BF00009D8B499EF07F09BEF8D
:100F300007F0D8EF07F0A9EF07F00FEC0CF0F2EF95
:100F400007F00BEC0CF0F2EF07F003EC0CF0F2EF13
:100F500007F013C035F014C036F020EE07F002D8C9
:100F6000BCEF07F00500FA6EDE50FD6EDE50FE6E3F
:100F7000F850FF6EFA5012002D6E2E6A2E50000AA5
:100F8000D8B4C5EF07F0A5EF07F02D50010AD8B48B
:100F9000A5EF07F0030AD8B49DEF07F0010AD8B413
:100FA000A1EF07F0070AD8B4A5EF07F0A5EF07F007
:100FB00024901EC0D9FF1FC0DAFF1E4A1F2ADF502F
:100FC00013EC0CF02006D8A0210620502110D8A444
:100FD000ECEF07F0EEEF07F0F1EF07F0060EF2EF9F
:100FE00007F0030E12002DEC0CF01EC0D9FF1FC03D
:100FF000DAFFDF6E1E4A1F2A2006D8A021062050E5
:101000002110D8B406EF08F008EF08F00DEF08F053
:1010100023EC0CF0050E45EF08F0248618EF08F0DD
:10102000F7EC0BF045EF08F0FBEC0BF045EF08F0A8
:101030000DC035F00EC036F002D829EF08F00500DB
:10104000FA6E0150FD6E0250FE6EF850FF6EFA50BF
:1010500012002C6E2D6A2D50000AD8B432EF08F021
:1010600014EF08F02C50010AD8B414EF08F0030A6A
:10107000D8B410EF08F0010AD8B410EF08F0070A4E
:10108000D8B414EF08F014EF08F012002C6E010E23
:101090002D6E24B44EEF08F050EF08F08AEF08F000
:1010A0002CC01DF02492248424900E0E226E010E7A
:1010B0001C6EF40E1B6E2486660E016E180E026EF8
:1010C000000E0D6E000E0E6E660E036E180E046E90
:1010D000000E0F6E000E106E660E056E180E066E78
:1010E000000E116E000E126E660E076E180E086E60
:1010F000000E136E000E146E620E096E180E0A6E4C
:10110000000E156E000E166E3FEC0CF025EC0BF089
:10111000000E2D6E2D50120024869CEF08F007EC77
:101120000CF0C9EF08F02BEC0CF0030EC9EF08F03F
:1011300003EC0CF0C9EF08F00DC035F00EC036F02E
:1011400002D8ADEF08F00500FA6E0150FD6E0250B6
:10115000FE6EF850FF6EFA5012002C6E2D6A2D5064
:10116000000AD8B4B6EF08F098EF08F02C50010A46
:10117000D8B498EF08F0030AD8B48FEF08F0010A4A
:10118000D8B48FEF08F0070AD8B493EF08F098EFBF
:1011900008F01200306E2C502D10D8B4D2EF08F0A9
:1011A000D4EF08F0EEEF08F03050020D010EF324FA
:1011B000D96E000EF420DA6E2CC0DEFF2DC0DDFFEC
:1011C0003050020D0D0EF324D96E000EF420DA6EAD
:1011D0002EC0DEFF2FC0DDFF06EF09F03050020DFC
:1011E000010EF324D96E000EF420DA6E660EDE6E68
:1011F000180EDD6E3050020D0D0EF324D96E000E68
:10120000F420DA6E000EDE6E000EDD6E1200376E18
:10121000375046EC08F00009D8B411EF09F013EF8D
:1012200009F008EF09F04E0E316E150E326E360ED3
:10123000336E000E346E7DEC0BF0350E2C6E000E0E
:101240002D6E000E2F6E010E2E6E36EC0BF0000E82
:10125000316E000E326E000E336E000E346E71EC85
:101260000BF0F3EC0BF0FFEC0AF0E806D8B43BEF20
:1012700009F03DEF09F033EF09F012002490020E5F
:10128000236E4BEF09F007EC0CF072EF09F003EC62
:101290000CF072EF09F011C035F012C036F020EEFC
:1012A00005F002D85EEF09F00500FA6EDE50FD6E23
:1012B000DE50FE6EF850FF6EFA5012002C6E2D6A52
:1012C0002D50000AD8B467EF09F047EF09F02C5011
:1012D000020AD8B443EF09F0010AD8B443EF09F089
:1012E00047EF09F012003FEC0CF024A07AEF09F070
:1012F0007CEF09F088EF09F09DEC0BF00009D8B401
:1013000084EF09F086EF09F088EF09F00F0E226EE6
:101310002250020D010EF324F66E0F0EF420F76E2C
:1013200002D89FEF09F00500FA6E0900F550FD6E36
:101330000900F550FE6EF850FF6EFA501200226E52
:10134000120014EC0BF08B848B8293EC0BF0660E86
:1013500046EC08F08B94000E356E310E366E660E3C
:1013600007EC09F0030E356E3F0E366E660E07EC85
:1013700009F08B9282B0BFEF09F0C1EF09F0C4EF22
:1013800009F08B82BAEF09F08B92BAEF09F045EFC2
:1013900000F02F6E010E306E24B2D1EF09F0D3EFC2
:1013A00009F0E8EF09F02482000E306E2F50D8B417
:1013B000DCEF09F0DEEF09F0E2EF09F0010E226E3A
:1013C000E4EF09F0020E226E39EC0CF056EC0BF053
:1013D0003050120020EE02F03550D9263650DA2275
:1013E000DECF2CF0DDCF2DF035C0D9FF36C0DAFFCF
:1013F000DECF2EF0DDCF2FF036EC0BF0000E316E8D
:10140000000E326E000E336E000E346E7DEC0BF06B
:10141000020E1200080E7E6E900EAC6E240EAD6EA3
:10142000190EB06E000E7F6E000E2C6E000E2D6E2B
:10143000DAEC0BF0000E2C6E000E2D6ED5EC0BF0DE
:10144000000E2C6E000E2D6EDFEC0BF0000E296EE0
:101450001200000E896E000E8A6E000E8B6E92686E
:10146000E70E936E810E946E000E0F01486F1F0EF3
:10147000496FF18E000E426F000E416F000E406FFB
:10148000050E0E01E26F040EE16F1200F292F18C74
:10149000860E2C6E180E2D6ED0EC0BF0F288F090AC
:1014A000F18A840E2C6E180E2D6ECBEC0BF0F086AC
:1014B000F092F188820E2C6E180E2D6EC6EC0BF099
:1014C000F088120038503910D8B469EF0AF06BEF89
:1014D0000AF078EF0AF002D878EF0AF00500FA6E09
:1014E0003850FD6E3950FE6EF850FF6EFA50120003
:1014F00012003A503B10D8B480EF0AF082EF0AF0A5
:101500008FEF0AF002D88FEF0AF00500FA6E3A501A
:10151000FD6E3B50FE6EF850FF6EFA501200120046
:101520003C503D10D8B497EF0AF099EF0AF0A6EFBF
:101530000AF002D8A6EF0AF00500FA6E3C50FD6EE4
:101540003D50FE6EF850FF6EFA501200120035C08A
:101550002CF036C02DF0000E2F6E010E2E6E36ECE4
:101560000BF0000E316E000E326E000E336E000E68
:10157000346E7DEC0BF0040E120035C02CF036C03A
:101580002DF0000E2F6E020E2E6E36EC0BF0000EBC
:10159000316E000E326E000E336E000E346E7DEC36
:1015A0000BF0020E120035C02CF036C02DF0000EEC
:1015B0002F6E010E2E6E36EC0BF0000E316E000E0B
:1015C000326E000E336E000E346E7DEC0BF0020EA8
:1015D000120035C02CF036C02DF0000E2F6E020E1A
:1015E0002E6E36EC0BF0000E316E000E326E000ED9
:1015F000336E000E346E7DEC0BF0040E1200010E03
:101600002C6E24B206EF0BF008EF0BF012EF0BF08C
:1016100024941D683FEC0CF03BEC0CF03DEC0CF01E
:1016200023C02CF02C50120029EC0CF093EC0BF0A2
:1016300029EC0AF089EC0BF047EC0BF046EC0AF0D1
:10164000A7EC0BF00AEC0AF01200C6BA2AEF0BF076
:101650002CEF0BF035EF0BF0000EC76E080EC66EC8
:10166000000EC56E030EC86EC68A120024A63BEF9C
:101670000BF03DEF0BF046EF0BF02CC01EF02DC031
:101680001FF02EC020F02FC021F024961200000E73
:10169000C16E010E0E01B86F000E0F01496F000EF2
:1016A000C36E000EC46E010EC26E12005CEF0BF032
:1016B000B0EC0BF073EC09F024B261EF0BF063EFC8
:1016C0000BF058EF0BF0120000EE01F0290EEE6A5D
:1016D000E806FDE145904592000EF86E0001A1EF8D
:1016E00009F031C02CF032C02DF033C02EF034C0E0
:1016F0002FF0020ECAEC08F0120031C02CF032C0FC
:101700002DF033C02EF034C02FF0000ECAEC08F0DC
:101710001200600ED36E000E9B6E000E0F013D6F27
:10172000140E876E1200000EC76E080EC66E000EF5
:10173000C56E030EC86EC69A1200C5BCA2EF0BF0B0
:10174000A5EF0BF0010EA6EF0BF0000E1200000E3D
:10175000D76E9C0ED66E9C0E446EF294D568120025
:101760009EA6B5EF0BF0B7EF0BF0B0EF0BF0120049
:1017700024801D501D2413EC0CF0030E1200248055
:10178000D8801D3413EC0CF0050E12002CC038F07C
:101790002DC039F012002CC03AF02DC03BF01200E1
:1017A0002CC03CF02DC03DF012002CC040F02DC0EC
:1017B00041F012002CC042F02DC043F012002CC0AA
:1017C0003EF02DC03FF012002492000E236E0E0E4C
:1017D000120024902FEC0CF0040E12002492000E44
:1017E000236E0E0E1200000EC9EC09F0120026EC5A
:1017F0000CF0090E120026EC0CF00A0E120023EC7D
:101800000CF0050E120035EC0CF0000E120037EC57
:101810000CF0010E120037EC0CF0020E120037EC47
:101820000CF0010E12002C6E2CC0C9FF1200F092B9
:1018300062EC0AF01200F09079EC0AF01200F292D9
:1018400090EC0AF01200C59AC5881200C58AC588B6
:101850001200D09E12009E861200C9501200C5864A
:101860001200050E1200010E1200C5841200C5827E
:101870001200C58012009D961200C69A12009E9614
:08188000120012001200120018
:08FFF800BEF7F7FFFFFBBFFBA2
:00000001FF
