:0400000045EF00F0D8
:100008005082FACF2CF0FBCF2DF0F2A80EEF00F0C3
:1000180010EF00F01BEF00F0F2A215EF00F017EF61
:1000280000F01BEF00F014EC0DF03FEF00F0F0A62D
:1000380020EF00F022EF00F02DEF00F0F0A027EF06
:1000480000F029EF00F02DEF00F010EC0DF03FEF7D
:1000580000F0F0A832EF00F034EF00F03FEF00F0CE
:10006800F0A239EF00F03BEF00F03FEF00F00CECAE
:100078000DF03FEF00F02DC0FBFF2CC0FAFF5092AF
:0600880011003BEF0BF03C
:100F000000C61968195A19EC0FB010BC19E2110883
:100F10001A001AF819F019E819E019D819B219B419
:100F2000130016EC0CF08B848B820B0E416E260E98
:100F3000406E5E0EE82EFED7402EFCD7412EFAD72B
:100F4000850EABEC08F02A6E660EABEC08F0296E4D
:100F5000660EABEC08F00009D8B4B1EF07F0B3EFC0
:100F600007F0A8EF07F08B94000E3D6E310E3E6E39
:100F7000660EA3EC09F0030E3D6E3F0E3E6E660E4C
:100F8000A3EC09F08B8482B0C8EF07F0CAEF07F03A
:100F9000CDEF07F08B82CEEF07F08B92000E3D6E07
:100FA000310E3E6E660E6CEC09F0060E416E130EAD
:100FB000406EAE0EE82EFED7402EFCD7412EFAD75B
:100FC000000E3D6E000E3E6E660E6CEC09F0060ED5
:100FD000416E130E406EAE0EE82EFED7402EFCD7AB
:100FE000412EFAD7C3EF07F045EF00F092EC0CF07A
:100FF0000009D8B4FEEF07F000EF08F03DEF08F06D
:101000000EEF08F004EC0DF057EF08F000EC0DF0D7
:1010100057EF08F0F8EC0CF057EF08F013C037F07A
:1010200014C038F020EE07F002D821EF08F00500D8
:10103000FA6EDE50FD6EDE50FE6EF850FF6EFA5016
:101040001200396E3A6A3A50000AD8B42AEF08F012
:101050000AEF08F03950010AD8B40AEF08F0030A81
:10106000D8B402EF08F0010AD8B406EF08F0070A76
:10107000D8B40AEF08F00AEF08F024901EC0D9FF98
:101080001FC0DAFF1E4A1F2ADF5008EC0DF02006B1
:10109000D8A0210620502110D8A451EF08F053EF1A
:1010A00008F056EF08F0060E57EF08F0030E120096
:1010B00022EC0DF01EC0D9FF1FC0DAFFDF6E1E4A02
:1010C0001F2A2006D8A0210620502110D8B46BEF8B
:1010D00008F06DEF08F072EF08F018EC0DF0050E57
:1010E000AAEF08F024867DEF08F0ECEC0CF0AAEFF4
:1010F00008F0F0EC0CF0AAEF08F00DC037F00EC0CD
:1011000038F002D88EEF08F00500FA6E0150FD6E3F
:101110000250FE6EF850FF6EFA501200396E3A6AB5
:101120003A50000AD8B497EF08F079EF08F0395038
:10113000010AD8B479EF08F0030AD8B475EF08F0C3
:10114000010AD8B475EF08F0070AD8B479EF08F0AF
:1011500079EF08F012002E6E010E2F6E24B4B3EF5B
:1011600008F0B5EF08F0EFEF08F02EC01DF0249264
:10117000248424900E0E226E010E1C6EF40E1B6E43
:101180002486500E016E1A0E026E000E0D6E000EB9
:101190000E6E500E036E1A0E046E000E0F6E000ED1
:1011A000106E500E056E1A0E066E000E116E000EB9
:1011B000126E500E076E1A0E086E000E136E000EA1
:1011C000146E4C0E096E1A0E0A6E000E156E000E8D
:1011D000166E34EC0DF027EC0CF0000E2F6E2F5035
:1011E0001200248601EF09F0FCEC0CF02EEF09F060
:1011F00020EC0DF0030E2EEF09F0F8EC0CF02EEFC2
:1012000009F00DC037F00EC038F002D812EF09F027
:101210000500FA6E0150FD6E0250FE6EF850FF6E32
:10122000FA501200396E3A6A3A50000AD8B41BEFED
:1012300009F0FDEF08F03950010AD8B4FDEF08F0CD
:10124000030AD8B4F4EF08F0010AD8B4F4EF08F0B8
:10125000070AD8B4F8EF08F0FDEF08F01200326E7C
:101260002E502F10D8B437EF09F039EF09F053EFB3
:1012700009F03250020D010EF324D96E000EF42055
:10128000DA6E2EC0DEFF2FC0DDFF3250020D0D0ED4
:10129000F324D96E000EF420DA6E30C0DEFF31C0C8
:1012A000DDFF6BEF09F03250020D010EF324D96E11
:1012B000000EF420DA6E500EDE6E1A0EDD6E325025
:1012C000020D0D0EF324D96E000EF420DA6E000E1E
:1012D000DE6E000EDD6E12003F6E3F50ABEC08F08C
:1012E0000009D8B476EF09F078EF09F06DEF09F056
:1012F000AA0E336E170E346E3E0E356E000E366E2D
:1013000072EC0CF03D0E2E6E000E2F6E000E316E44
:10131000010E306E38EC0CF0000E336E000E346EA1
:10132000000E356E000E366E66EC0CF0E8EC0CF03C
:1013300001EC0CF0E806D8B4A0EF09F0A2EF09F038
:1013400098EF09F012003F6E3F50ABEC08F0000937
:10135000D8B4ADEF09F0AFEF09F0A4EF09F0A20E99
:10136000336E160E346E3E0E356E000E366E72EC17
:101370000CF03D0E2E6E000E2F6E000E316E010E23
:10138000306E38EC0CF0000E336E000E346E000E32
:10139000356E000E366E66EC0CF0E8EC0CF001ECED
:1013A0000CF0E806D8B4D7EF09F0D9EF09F0CFEF89
:1013B00009F012002490020E236EE7EF09F0FCEC16
:1013C0000CF00EEF0AF0F8EC0CF00EEF0AF011C082
:1013D00037F012C038F020EE05F002D8FAEF09F02D
:1013E0000500FA6EDE50FD6EDE50FE6EF850FF6EA8
:1013F000FA501200396E3A6A3A50000AD8B403EF34
:101400000AF0E3EF09F03950020AD8B4DFEF09F02F
:10141000010AD8B4DFEF09F0E3EF09F0120034EC71
:101420000DF024A016EF0AF018EF0AF024EF0AF0EE
:1014300092EC0CF00009D8B420EF0AF022EF0AF089
:1014400024EF0AF00F0E226E2250020D010EF3243B
:10145000F66E0F0EF420F76E02D83BEF0AF005008F
:10146000FA6E0900F550FD6E0900F550FE6EF85059
:10147000FF6EFA501200226E12003B6E010E3C6E9F
:1014800024B245EF0AF047EF0AF05CEF0AF024823D
:10149000000E3C6E3B50D8B450EF0AF052EF0AF009
:1014A00056EF0AF0010E226E58EF0AF0020E226E7D
:1014B0002EEC0DF058EC0CF03C50120020EE02F037
:1014C0003750D9263850DA22DECF2EF0DDCF2FF07C
:1014D00037C0D9FF38C0DAFFDECF30F0DDCF31F0D2
:1014E00038EC0CF0000E336E000E346E000E356ECC
:1014F000000E366E72EC0CF0020E120020EE02F0BE
:101500003750D9263850DA22DECF2EF0DDCF2FF03B
:1015100037C0D9FF38C0DAFFDECF30F0DDCF31F091
:1015200038EC0CF0000E336E000E346E000E356E8B
:10153000000E366E72EC0CF0020E1200080E7E6E7B
:10154000900EAC6E240EAD6E670EB06E000E7F6E08
:10155000000E2E6E000E2F6ECFEC0CF0000E2E6ED5
:10156000000E2F6ECAEC0CF0000E2E6E000E2F6EC9
:10157000D4EC0CF0000E2B6E1200000E896E000EE3
:101580008A6E000E8B6E9268E70E936E810E946EDB
:10159000000E0F01486F1F0E496FF18E000E426F53
:1015A000000E416F000E406F050E0E01E26F040E3B
:1015B000E16F1200F292F18C700E2E6E1A0E2F6EE9
:1015C000C5EC0CF0F288F090F18A6E0E2E6E1A0EB9
:1015D0002F6EC0EC0CF0F086F092F1886C0E2E6E3F
:1015E0001A0E2F6EBBEC0CF0F08812004250431024
:1015F000D8B4FDEF0AF0FFEF0AF00CEF0BF002D8C1
:101600000CEF0BF00500FA6E4250FD6E4350FE6E7B
:10161000F850FF6EFA501200120044504510D8B432
:1016200014EF0BF016EF0BF023EF0BF002D823EFC3
:101630000BF00500FA6E4450FD6E4550FE6EF850FA
:10164000FF6EFA501200120046504710D8B42BEF2C
:101650000BF02DEF0BF03AEF0BF002D83AEF0BF056
:101660000500FA6E4650FD6E4750FE6EF850FF6E54
:10167000FA5012001200720EF66E1A0EF76E000E7D
:10168000F86E0900F5CF4FF000EE01F02B0EEE6A78
:10169000E806FDE150905092000EF86E000191EFC7
:1016A00007F037C02EF038C02FF0000E316E010E5B
:1016B000306E38EC0CF0000E336E000E346E000EFF
:1016C000356E000E366E72EC0CF0040E120037C050
:1016D0002EF038C02FF0000E316E020E306E38EC56
:1016E0000CF0000E336E000E346E000E356E000EE0
:1016F000366E72EC0CF0020E120037C02EF038C0BD
:101700002FF0000E316E010E306E38EC0CF0000E32
:10171000336E000E346E000E356E000E366E72ECB7
:101720000CF0020E120037C02EF038C02FF0000E61
:10173000316E020E306E38EC0CF0000E336E000E7F
:10174000346E000E356E000E366E72EC0CF0040E28
:10175000120037C02EF038C02FF0000E316E020E8E
:10176000306E38EC0CF0000E336E000E346E000E4E
:10177000356E000E366E72EC0CF0020E120037C0A1
:101780002EF038C02FF0000E316E010E306E38ECA6
:101790000CF0000E336E000E346E000E356E000E2F
:1017A000366E72EC0CF0020E120037C02EF038C00C
:1017B0002FF0000E316E010E306E38EC0CF0000E82
:1017C000336E000E346E000E356E000E366E72EC07
:1017D0000CF0040E120037C02EF038C02FF0000EAF
:1017E000316E020E306E38EC0CF0000E336E000ECF
:1017F000346E000E356E000E366E72EC0CF0040E78
:101800001200010E2E6E24B208EF0CF00AEF0CF05D
:1018100014EF0CF024941D6834EC0DF030EC0DF056
:1018200032EC0DF023C02EF02E5012001EEC0DF005
:1018300088EC0CF0BDEC0AF07EEC0CF049EC0CF0FE
:10184000DAEC0AF09CEC0CF09EEC0AF01200C6BA3E
:101850002CEF0CF02EEF0CF037EF0CF0000EC76EF3
:10186000080EC66E000EC56E090EC86EC68A12003E
:1018700024A63DEF0CF03FEF0CF048EF0CF02EC02B
:101880001EF02FC01FF030C020F031C021F0249690
:101890001200000EC16E010E0E01B86F000E0F0196
:1018A000496F000EC36E000EC46E010EC26E1200B0
:1018B0005EEF0CF0A5EC0CF00FEC0AF024B263EF35
:1018C0000CF065EF0CF05AEF0CF0120033C02EF064
:1018D00034C02FF035C030F036C031F0020E2FEC9E
:1018E00009F0120033C02EF034C02FF035C030F0B4
:1018F00036C031F0000E2FEC09F01200630ED36EEB
:10190000000E9B6E000E0F013D6F140E876E1200CD
:10191000000EC76E080EC66E000EC56E090EC86EAC
:10192000C69A1200C5BC97EF0CF09AEF0CF0010EAE
:101930009BEF0CF0000E1200000ED76E9C0ED66EC0
:101940009C0E4E6EF294D56812009EA6AAEF0CF083
:10195000ACEF0CF0A5EF0CF0120024801D501D24FC
:1019600008EC0DF0030E12002480D8801D3408EC22
:101970000DF0050E12002EC042F02FC043F01200F1
:101980002EC044F02FC045F012002EC046F02FC0EC
:1019900047F012002EC04AF02FC04BF012002EC0AC
:1019A0004CF02FC04DF012002EC048F02FC049F06F
:1019B00012002492000E236E0E0E1200249024ECCE
:1019C0000DF0040E12002492000E236E0E0E120073
:1019D000000E3DEC0AF012001BEC0DF0090E120097
:1019E0001BEC0DF00A0E120018EC0DF0050E1200A3
:1019F0002AEC0DF0000E12002CEC0DF0010E12007E
:101A00002CEC0DF0020E12002CEC0DF0010E120069
:101A10002E6E2EC0C9FF1200F092F6EC0AF01200F2
:101A2000F0900DEC0BF01200F29224EC0BF012008F
:101A3000C59AC5881200C58AC5881200D09E1200BA
:101A40009E861200C9501200C5861200050E1200B3
:101A5000010E1200C5841200C5821200C58012005A
:101A60009D961200C69A12009E9612001200120055
:031A7000120066FB
:08FFF800BEF7F0FFFFFBBFFBA9
:00000001FF
