:040000009DEF00F080
:100008004882FACF0EF0FBCF0FF0D9CF10F0DACF3D
:1000180011F0F3CF12F0F4CF13F0F6CF14F0F7CFBE
:1000280015F0F8CF16F0F5CF17F0F2AC1EEF00F090
:1000380020EF00F087EF00F0A3A825EF00F027EFEE
:1000480000F03DEF00F0A4A82CEF00F02EEF00F038
:100058003DEF00F002D83BEF00F00500FA6E455086
:10006800FD6E4650FE6EF850FF6EFA50120087EF94
:1000780000F0A3AA42EF00F044EF00F05AEF00F0BE
:10008800A4AA49EF00F04BEF00F05AEF00F002D8B5
:1000980058EF00F00500FA6E4350FD6E4450FE6EB6
:1000A800F850FF6EFA50120087EF00F0A0A65FEF3D
:1000B80000F061EF00F077EF00F0A1A666EF00F026
:1000C80068EF00F077EF00F002D875EF00F0050058
:1000D800FA6E3950FD6E3A50FE6EF850FF6EFA50C7
:1000E800120087EF00F09DA67CEF00F07EEF00F095
:1000F80087EF00F09EA683EF00F085EF00F087EF12
:1001080000F068EF00F017C0F5FF16C0F8FF15C043
:10011800F7FF14C0F6FF13C0F4FF12C0F3FF11C0BD
:10012800DAFF10C0D9FF0FC0FBFF0EC0FAFF4892DC
:06013800110069EF0DF05B
:100F0000006E1C461C361CE4106E12621C4A14F85B
:100F10001CF01CE81CE01CD81CD01CC81C561C9ED5
:100F20001674657374696E670000B6C0D9FFB7C0E8
:100F3000DAFFDECFF6FFDDCFF7FF0800F550250A18
:100F4000D8A4A5EF07F0A7EF07F0F0EF07F0B6C0C1
:100F5000D9FFB7C0DAFFDE2A000EDD22000E326EA6
:100F6000000E316E31C035F032C036F0336834686F
:100F7000B6C0D9FFB7C0DAFFDECFF6FFDDCFF7FF8F
:100F80000800F550250AD8A4C8EF07F0CAEF07F00B
:100F9000E2EF07F0B6C0D9FFB7C0DAFFDE2A000ED5
:100FA000DD22000E1B6E250E1A6EB4C01CF0B5C0FB
:100FB0001DF0DAEC09F0000E0001B56F010EB46F00
:100FC0000BEF08F0B6C0D9FFB7C0DAFFDE2A000E7B
:100FD000DD22000E0001B56F000EB46F0BEF08F0BC
:100FE000B6C0D9FFB7C0DAFFDECFF6FFDDCFF7FF1F
:100FF0000800F5501A6E1B6AB4C01CF0B5C01DF095
:10100000DAEC09F0B6C0D9FFB7C0DAFFDE2A000E6D
:10101000DD22DBEF07F01200A0EC0DF0F28EF28C77
:10102000898E898C8B90000E0001C56F010EC46FF4
:10103000410EC86FC80EC66F000EC76F899C040EA4
:101040000001C36F0C0EC26F330EE82EFED7C22F05
:10105000FCD7C32FFAD700D0898C040E0001C36FD0
:101060000C0EC26F330EE82EFED7C22FFCD7C32F53
:10107000FAD700D0210E256E0F0E266E55EC0DF01E
:10108000C6C0D9FFC7C0DAFFDF500001C26FC36B13
:10109000C2C018F0C3C019F0C4C01AF0C5C01BF01C
:1010A0007CEC0DF0000E216E310E226E660E18ECF7
:1010B0000BF0030E216E3F0E226E660E18EC0BF045
:1010C000FE0E0001C96FC90E216E000E226E000EC9
:1010D000246E010E236E760EE8EC0BF01EEF08F086
:1010E0009DEF00F009EC0EF00009D8B47AEF08F09B
:1010F0007CEF08F0B9EF08F08AEF08F07CEC0EF016
:10110000D5EF08F078EC0EF0D5EF08F070EC0EF0AB
:10111000D5EF08F072C00AF073C00BF020EE66F055
:1011200002D89DEF08F00500FA6EDE50FD6EDE502D
:10113000FE6EF850FF6EFA5012000C6E0D6A0D50E4
:10114000000AD8B4A6EF08F086EF08F00C50010AA8
:10115000D8B486EF08F0030AD8B47EEF08F0010A8D
:10116000D8B482EF08F0070AD8B486EF08F086EF0B
:1011700008F0000183917DC0D9FF7EC0DAFF7D4B6E
:101180007E2BDF5080EC0EF000017F07D8A0800797
:101190007F518011D8A4CFEF08F0D1EF08F0D4EF41
:1011A00008F0060ED5EF08F0030E1200270E3E24BD
:1011B000D96EDA6A000EDA22000EDF6E9CA4E3EF2D
:1011C00008F0E5EF08F0FAEF08F0270E3E24D96E9C
:1011D000DA6A000EDA22DF8202D8FAEF08F00500A0
:1011E0000001FA6ECE51FD6ECF51FE6EF850FF6ECB
:1011F000FA5012009CA2FFEF08F001EF09F016EF81
:1012000009F0270E3E24D96EDA6A000EDA22DF8456
:1012100002D816EF09F005000001FA6ECC51FD6E00
:10122000CD51FE6EF850FF6EFA501200270E3E248C
:10123000D96EDA6A000EDA22DF50D8B422EF09F054
:1012400024EF09F034EF09F002D832EF09F005007D
:101250000001FA6ECA51FD6ECB51FE6EF850FF6E62
:10126000FA50120036EF09F040EC0DF01200A3EC3A
:101270000EF07DC0D9FF7EC0DAFFDF6E00017D4B2E
:101280007E2B7F07D8A080077F518011D8B44BEF09
:1012900009F04DEF09F052EF09F087EC0EF0050E62
:1012A0008AEF09F083875DEF09F064EC0EF08AEFB6
:1012B00009F068EC0EF08AEF09F06CC00AF06DC01E
:1012C0000BF002D86EEF09F00500FA6E6051FD6E6A
:1012D0006151FE6EF850FF6EFA5012000C6E0D6AEE
:1012E0000D50000AD8B477EF09F059EF09F00C500F
:1012F000010AD8B459EF09F0030AD8B455EF09F040
:10130000010AD8B455EF09F0070AD8B459EF09F02B
:1013100059EF09F012001A6E010E1B6E000183B521
:1013200094EF09F096EF09F0D8EF09F01AC07CF0BD
:101330008393838583910E0E816F010E7B6FF40E74
:101340007A6F8387520E606F1D0E616F000E6C6F97
:10135000000E6D6F520E626F1D0E636F000E6E6F8A
:10136000000E6F6F520E646F1D0E656F000E706F72
:10137000000E716F520E666F1D0E676F000E726F5A
:10138000000E736F4E0E686F1D0E696F000E746F46
:10139000000E756F080E186E1D0E196E5BEC0EF0C8
:1013A0009DEC0EF0B1EC0DF095EC0EF0000E1B6E06
:1013B0001B5012001C501D10D8B4E1EF09F0E3EFF0
:1013C00009F0ECEF09F01C501D10D8A4EAEF09F069
:1013D000ECEF09F0F1EF09F01A503DEC0EF024EFBC
:1013E0000AF020EE09F01C50D9261D50DA22DE50FA
:1013F000DE10D8B4FEEF09F000EF0AF01BEF0AF0A0
:1014000020EE09F01C50D9261D50DA2210EE03F010
:101410001C50E1261D50E222DE50E65CE650800AB8
:10142000226EDE50800A2258D8B019EF0AF01BEF66
:101430000AF024EF0AF020EE03F01C50D9261D50CC
:10144000DA22DE2A000EDD2212000001838736EF49
:101450000AF074EC0EF063EF0AF0A1EC0EF0030E4C
:1014600063EF0AF070EC0EF063EF0AF06CC00AF064
:101470006DC00BF002D847EF0AF00500FA6E60511C
:10148000FD6E6151FE6EF850FF6EFA5012000C6E48
:101490000D6A0D50000AD8B450EF0AF032EF0AF08E
:1014A0000C50010AD8B432EF0AF0030AD8B429EF7D
:1014B0000AF0010AD8B429EF0AF0070AD8B42DEFD0
:1014C0000AF032EF0AF012001C6E18501910D8B44E
:1014D0006CEF0AF06EEF0AF088EF0AF01C50020D74
:1014E000600EF324D96E000EF420DA6E18C0DEFF11
:1014F00019C0DDFF1C50020D6C0EF324D96E000ED6
:10150000F420DA6E1AC0DEFF1BC0DDFFA0EF0AF088
:101510001C50020D600EF324D96E000EF420DA6E1A
:10152000520EDE6E1D0EDD6E1C50020D6C0EF3248D
:10153000D96E000EF420DA6E000EDE6E000EDD6E47
:101540001200056E01500210D8B4A9EF0AF0ABEFFB
:101550000AF0C5EF0AF00550020D600EF324D96EB3
:10156000000EF420DA6E01C0DEFF02C0DDFF055080
:10157000020D6C0EF324D96E000EF420DA6E03C057
:10158000DEFF04C0DDFFDDEF0AF00550020D600E46
:10159000F324D96E000EF420DA6E520EDE6E1D0EAC
:1015A000DD6E0550020D6C0EF324D96E000EF42092
:1015B000DA6E000EDE6E000EDD6E1200A39AAC0E27
:1015C000186E110E196E47EC0EF0A398000E186EEF
:1015D000190E196E42EC0EF0080E7C6E900E9C6E89
:1015E000240EA86E0F0EAB6E270E7D6E5E0E186E6B
:1015F0001D0E196E51EC0EF01A0E186E1D0E196E9E
:101600004CEC0EF0200E186E1D0E196E56EC0EF0FE
:10161000000E3B6E000E406E000E3F6E080E476ED1
:10162000000E3E6E000E3D6E000E3C6EA38A120050
:10163000236E23508BEC09F00009D8B422EF0BF095
:1016400024EF0BF019EF0BF0A60E1D6E190E1E6E97
:10165000220E1F6E000E206ED1EC0DF0210E186EC2
:10166000000E196E000E1B6E010E1A6E7CEC0DF052
:10167000000E1D6E000E1E6E000E1F6E000E206E00
:10168000DDEC0DF060EC0EF0BDEC0CF0E806D8B42B
:101690004CEF0BF04EEF0BF044EF0BF0120000019B
:1016A0008391020E826F5DEF0BF074EC0EF084EF0D
:1016B0000BF070EC0EF084EF0BF070C00AF071C00C
:1016C0000BF020EE64F002D870EF0BF00500FA6E1C
:1016D000DE50FD6EDE50FE6EF850FF6EFA501200C6
:1016E0000C6E0D6A0D50000AD8B479EF0BF059EF6B
:1016F0000BF00C50020AD8B455EF0BF0010AD8B425
:1017000055EF0BF059EF0BF012009FEC0EF00001BB
:1017100083A18DEF0BF08FEF0BF09CEF0BF009EC3A
:101720000EF00009D8B497EF0BF099EF0BF09CEF97
:101730000BF00F0E0001816F00018151020D010EAF
:10174000F324F66E0F0EF420F76E02D8B4EF0BF010
:101750000500FA6E0900F550FD6E0900F550FE6EA9
:10176000F850FF6EFA5012000001816F1200BCC0E9
:1017700023F0BDC024F0000E306E000E2F6ED5EFAA
:101780000BF0BAC0B4F0BBC0B5F0230E0001B66FC9
:10179000000EB76FBEC0B8F0BFC0B9F095EC07F04F
:1017A0000001B4512F26B551302223C0F6FF24C0CA
:1017B000F7FF0800F5500009D8A4E1EF0BF0E3EFC4
:1017C0000BF0C1EF0BF02FC0BAF030C0BBF012002D
:1017D000256E25508BEC09F00009D8B4F2EF0BF020
:1017E000F4EF0BF0E9EF0BF021C018F022C019F074
:1017F00023C01AF024C01BF07CEC0DF0000E1D6E0F
:10180000000E1E6E000E1F6E000E206EDDEC0DF041
:1018100060EC0EF0BDEC0CF0E806D8B412EF0CF062
:1018200014EF0CF00AEF0CF01200186E4750D8B409
:101830001CEF0CF01EEF0CF016EF0CF0A3B823EF2A
:101840000CF025EF0CF029EF0CF018C0A9FF3EEFCB
:101850000CF0A398AC0E4024D96EDA6A000EDA229E
:1018600018C0DFFF402A070E406439EF0CF03BEF51
:101870000CF03DEF0CF0000E406E4706A3881200FE
:10188000186E010E196E000183B349EF0CF04BEF97
:101890000CF05EEF0CF08383000E196E1850D8B474
:1018A00054EF0CF056EF0CF05AEF0CF0010E816F74
:1018B0005CEF0CF0020E816F97EC0EF019501200E5
:1018C00020EE02F00A50D9260B50DA22DECF01F0CA
:1018D000DDCF02F00AC0D9FF0BC0DAFFDECF03F084
:1018E000DDCF04F08EEC0DF0000E066E000E076EDC
:1018F000000E086E000E096EE9EC0DF0020E1200EB
:10190000080E476086EF0CF088EF0CF09EEF0CF0AD
:10191000AC0E3F24D96EDA6A000EDA22DF50A96ECF
:101920003F2A070E3F6497EF0CF099EF0CF09BEF06
:101930000CF0000E3F6E472A9FEF0CF0A3981200A8
:10194000000E896E000E8A6E000E8B6E2F0E926E48
:101950009368440E946E000E0F01486F0E0E496F8F
:10196000F18E000E426F000E416F000E406F060EAA
:101970000E01D26F110EF76F1200010E186E0001EA
:1019800083B3C5EF0CF0C7EF0CF0D1EF0CF08395EB
:101990007C699DEC0EF099EC0EF09BEC0EF082C091
:1019A00018F0185012000AC001F00BC002F0000E2F
:1019B000046E010E036E8EEC0DF0000E066E000E2E
:1019C000076E000E086E000E096EE9EC0DF0040EB5
:1019D00012000AC001F00BC002F0000E046E020EED
:1019E000036E8EEC0DF0000E066E000E076E000EFC
:1019F000086E000E096EE9EC0DF0020E12000AC02E
:101A000001F00BC002F0000E046E010E036E8EECAE
:101A10000DF0000E066E000E076E000E086E000E32
:101A2000096EE9EC0DF0020E12000AC001F00BC0C5
:101A300002F0000E046E020E036E8EEC0DF0000E2E
:101A4000066E000E076E000E086E000E096EE9ECC1
:101A50000DF0040E1200000E9A6ED10ECF6E200E05
:101A6000CE6E9E90CE50CFCF18F0196A18C019F0E4
:101A7000186A1810416E1950426E010ECD6E120098
:101A8000A40E3E24D96EDA6A000EDA22AACFDFFF56
:101A90003E2A070E3E644FEF0DF051EF0DF053EF6D
:101AA0000DF0000E3E6E3C2A1200270E0001C06FA2
:101AB000000EC16F000EBA6F000EBB6F25C0BCF0E8
:101AC00026C0BDF0C00EBE6F000EBF6FB7EC0BF0AE
:101AD000120000EE60F0540EEE6AE806FDE100EE42
:101AE00027F01A0EEE6AE806FDE148904892000ED3
:101AF000F86E00010CEF08F0000183A782EF0DF0F3
:101B000084EF0DF08DEF0DF018C07DF019C07EF060
:101B10001AC07FF01BC080F083971200000183A7DA
:101B200094EF0DF096EF0DF09FEF0DF001C07DF0FA
:101B300002C07EF003C07FF004C080F083971200E3
:101B400093EC0EF0FFEC0DF0A0EC0CF0F5EC0DF0CA
:101B5000C2EC0DF013EC0EF02BEC0DF0DEEC0AF005
:101B60001200C6BAB6EF0DF0B8EF0DF0C1EF0DF0F0
:101B7000800EC76E080EC66E000EC56EEF0EC86EE4
:101B8000C68A1200010EC16E020E0E01B86F000E61
:101B90000F01496F000EC36E000EC46E010EC26EBF
:101BA00012001DC018F01EC019F01FC01AF020C08E
:101BB0001BF0000E64EC0AF012001DC018F01EC0ED
:101BC00019F01FC01AF020C01BF0020E64EC0AF0DE
:101BD000120006C001F007C002F008C003F009C0FF
:101BE00004F0000EA1EC0AF01200600ED36E000E9D
:101BF0009B6E000E0F013D6F140E876E1200800E5B
:101C0000C76E080EC66E000EC56EEF0EC86EC69A81
:101C10001200C5BC0EEF0EF011EF0EF0010E12EF28
:101C20000EF0000E1200F90ECB6E000ECC6E9E92DE
:101C30005D0ECA6E1200000183817C517C2580EC10
:101C40000EF0030E120000018381D8807C3580ECF9
:101C50000EF0050E120000018393000E826F0E0E2F
:101C6000120000018391A5EC0EF0040E1200000199
:101C70008393000E826F0E0E1200196E195015EC30
:101C80000CF0120018C045F019C046F0120018C040
:101C900043F019C044F0120018C0CCF019C0CDF0C8
:101CA000120018C0CEF019C0CFF0120018C0CAF050
:101CB00019C0CBF0120018C039F019C03AF0120068
:101CC000000E40EC0CF012008AEC0EF0090E12002F
:101CD0008AEC0EF00A0E120087EC0EF0050E1200D0
:101CE000ABEC0EF0000E1200ADEC0EF0010E120087
:101CF000ADEC0EF0020E1200ADEC0EF0010E120073
:101D0000016E01C0C9FF120085EC0BF01200C59AEC
:101D1000C5881200C58AC58812009C989C8812004C
:101D200040EC0DF01200D09E12009D861200C5807E
:101D300012009D961200C69A12009E9612009E9660
:101D400012009E861200C9501200C5861200050EB0
:101D50001200010E1200C5841200C582120012008A
:08FFF800ACF7D2FFFFFBBFFBD9
:00000001FF
