:040000009FEF00F07E
:100008004882FACF0EF0FBCF0FF0D9CF10F0DACF3D
:1000180011F0F3CF12F0F4CF13F0F6CF14F0F7CFBE
:1000280015F0F8CF16F0F5CF17F0F2AC1EEF00F090
:1000380020EF00F089EF00F0A3A825EF00F027EFEC
:1000480000F03EEF00F0A4A82CEF00F02EEF00F037
:100058003EEF00F002D83CEF00F005000101FA6E17
:100068006351FD6E6451FE6EF850FF6EFA50120037
:1000780089EF00F0A3AA43EF00F045EF00F05CEF32
:1000880000F0A4AA4AEF00F04CEF00F05CEF00F09B
:1000980002D85AEF00F005000101FA6E6151FD6EB9
:1000A8006251FE6EF850FF6EFA50120089EF00F0B0
:1000B800A0A661EF00F063EF00F079EF00F0A1A6D1
:1000C80068EF00F06AEF00F079EF00F002D877EF00
:1000D80000F00500FA6E3C50FD6E3D50FE6EF85083
:1000E800FF6EFA50120089EF00F09DA67EEF00F037
:1000F80080EF00F089EF00F09EA685EF00F087EF13
:1001080000F089EF00F06AEF00F017C0F5FF16C0A5
:10011800F8FF15C0F7FF14C0F6FF13C0F4FF12C0B4
:10012800F3FF11C0DAFF10C0D9FF0FC0FBFF0EC0EC
:0A013800FAFF489211002CEF1CF0B2
:100F000000E83DC03DB03D7E307C33DC3DC23468FE
:100F10003E603E583E503E483E403E383ED03D88C2
:100F2000370000004B001B50800B246E1B501B240D
:100F3000266E1AAE9EEF07F0A0EF07F0A1EF07F0C4
:100F400026802650D8B4A7EF07F0A9EF07F0BEEF30
:100F500007F02628D8A4AFEF07F0B1EF07F0B9EFFC
:100F600007F0000E186E000E196E000E1A6E000EBD
:100F70001B6E1A8E000E1B6EC6EF07F0000E186E69
:100F8000000E196E000E1A6E000E1B6E1F50800BA5
:100F9000256E24502518D8B4D0EF07F0D2EF07F013
:100FA000D3EF07F0248C1F501F24256E1EAEDBEFFD
:100FB00007F0DDEF07F0DEEF07F025802550D8B40D
:100FC000E4EF07F0E6EF07F0FBEF07F02528D8A4E1
:100FD000ECEF07F0EEEF07F0F6EF07F0000E1C6EF7
:100FE000000E1D6E000E1E6E000E1F6E1E8E000E79
:100FF0001F6E03EF08F0000E1C6E000E1D6E000E3B
:101000001E6E000E1F6E2650255CD8B00AEF08F049
:101010000CEF08F033EF08F024AC11EF08F013EFF9
:1010200008F015EF08F0800E241A26C027F025C01E
:1010300026F027C025F018C027F01CC018F027C0E4
:101040001CF019C027F01DC019F027C01DF01AC0F0
:1010500027F01EC01AF027C01EF01BC027F01FC0CB
:101060001BF027C01FF0000E276E265025C020F071
:10107000216A205E000E215A21BE48EF08F021505F
:1010800009E11A0E205CD8A048EF08F04AEF08F0FA
:1010900081EF08F0185019101A101B10D8A453EF44
:1010A00008F056EF08F0010E57EF08F0000E276E1B
:1010B000000E186E000E196E000E1A6E000E1B6EDA
:1010C00025C026F08AEF08F027A069EF08F06BEF43
:1010D00008F071EF08F0D89027300109276E73EF00
:1010E00008F0D890273218A078EF08F07AEF08F0CF
:1010F0007BEF08F0278E1B341B321A32193218325C
:10110000262A2550265CD8A088EF08F08AEF08F040
:1011100064EF08F024BC8FEF08F091EF08F0D1EFF6
:1011200008F02650D8A497EF08F099EF08F0A3EF45
:1011300008F0000E186E000E196E000E1A6E000EEA
:101140001B6EF2EF09F01C5018261D5019221E507C
:101150001A221F501B221BA0B0EF08F0B2EF08F0BC
:101160005EEF09F027A0B7EF08F0B9EF08F0BFEF86
:1011700008F0D89027300109276EC1EF08F0D89009
:10118000273218A0C6EF08F0C8EF08F0C9EF08F042
:10119000278E1B341B321A3219321832262A5EEF80
:1011A00009F01C50185C1D5019581E501A581B503D
:1011B000800A206E1F50800A2058D8B0E2EF08F055
:1011C000E4EF08F00FEF09F018501C5C206E195086
:1011D0001D58216E1A501E58226E1B501F58236E28
:1011E000FF0E2024186EFF0E2120196EFF0E222004
:1011F0001A6EFF0E23201B6E800E241A276C2750B8
:10120000D8A405EF09F007EF09F017EF09F0010E78
:101210001826000E19221A221B2217EF09F01C5063
:10122000185E1D50195A1E501A5A1F501B5A18503A
:1012300019101A101B10D8A420EF09F022EF09F0A2
:1012400057EF09F02750D8A428EF09F02AEF09F04A
:1012500057EF09F0000E186E000E196E000E1A6E90
:10126000000E1B6EF2EF09F0D890183619361A36B8
:101270001B3627AE3EEF09F040EF09F041EF09F0D1
:10128000188027A046EF09F048EF09F04CEF09F06D
:10129000D88027364EEF09F0D89027362650D8B49C
:1012A00054EF09F056EF09F057EF09F026061AAE91
:1012B0005CEF09F05EEF09F034EF09F0000E256EE7
:1012C00027AE65EF09F067EF09F07FEF09F027C05F
:1012D00020F07F0E2016D8B470EF09F072EF09F0FD
:1012E00076EF09F0010E256E7FEF09F018A07BEF75
:1012F00009F07DEF09F07FEF09F072EF09F025505A
:10130000D8B485EF09F087EF09F0B2EF09F0010ECC
:101310001826000E19221A221B221BA092EF09F098
:1013200094EF09F0B2EF09F018C020F019C021F0D5
:101330001AC022F01BC023F0233423322232213280
:10134000203220C018F021C019F022C01AF023C0AA
:101350001BF02628D8B4AFEF09F0B1EF09F0B2EFD7
:1013600009F0262A2628D8B4B8EF09F0BAEF09F018
:10137000C2EF09F02650D8A4C0EF09F0C2EF09F07F
:10138000D4EF09F0000E186E000E196E000E1A6EE2
:10139000000E1B6E2650D8A4D0EF09F0D2EF09F052
:1013A000D4EF09F0000E246E26A0D9EF09F0DBEF90
:1013B00009F0DEEF09F01A8EDFEF09F01A9ED890DF
:1013C00026301B6E24AEE7EF09F0E9EF09F0EAEFF3
:1013D00009F01B8E18C018F019C019F01AC01AF0C5
:1013E0001BC01BF0120000016351800B686F63513A
:1013F00063256E6F62AFFFEF09F001EF0AF002EFB5
:101400000AF06E816E51D8B408EF0AF00AEF0AF0C4
:101410001DEF0AF06E29D8A410EF0AF012EF0AF0BF
:101420001AEF0AF0000E606F000E616F000E626F1F
:10143000000E636F628F25EF0AF0000E606F000EE2
:10144000616F000E626F000E636F6751800B681B47
:1014500067516725696F66AF30EF0AF032EF0AF027
:1014600033EF0AF069816951D8B439EF0AF03BEFE4
:101470000AF04EEF0AF06929D8A441EF0AF043EFD1
:101480000AF04BEF0AF0000E646F000E656F000E5D
:10149000666F000E676F668F56EF0AF0000E646F7E
:1014A000000E656F000E666F000E676F6951D8B44D
:1014B0005CEF0AF05EEF0AF066EF0AF06E51D8A416
:1014C00064EF0AF066EF0AF070EF0AF0000E606F4A
:1014D000000E616F000E626F000E636F08EF0CF07C
:1014E00066516003F3CF73F0F4CF74F073516A6FF9
:1014F0006B6B6C6B6D6B74516F6F706B716B726B30
:1015000065516103F3CF73F0F4CF74F073516A2720
:10151000000E6B236C236D2374516F27000E702314
:101520007123722364516203F3CF73F0F4CF74F02C
:1015300073516A27000E6B236C236D2374516F2740
:10154000000E7023712372236CC06DF06BC06CF0C1
:101550006AC06BF06A6B64516103F3CF73F0F4CF30
:1015600074F073516A2774516B23000E6C23000EC4
:101570006D2365516003F3CF73F0F4CF74F07351B2
:101580006A2774516B23000E6C23000E6D236CC010
:101590006DF06BC06CF06AC06BF06A6B64516003F5
:1015A000F3CF73F0F4CF74F073516A2774516B2347
:1015B000000E6C23000E6D2366516103F3CF73F0B0
:1015C000F4CF74F073516F2774517023000E7123A0
:1015D000000E722365516203F3CF73F0F4CF74F001
:1015E00073516F2774517023000E7123000E722304
:1015F00066516203F3CF73F0F4CF74F073512E6E23
:1016000074512F6E306A316A30C031F02FC030F023
:101610002EC02FF02E6A2E506F272F50702330507F
:101620007123315072236AC02EF06BC02FF06CC052
:1016300030F06DC031F0190E23EF0BF0D89031323D
:1016400030322F322E32E82E1EEF0BF02E506F2745
:101650002F50702330507123315072236CC06DF0C5
:101660006BC06CF06AC06BF06A6B69516EC02EF093
:101670002F6A2E26000E2F22820E2E24736FFF0E4D
:101680002F20746F59EF0BF0D8906F377037713788
:1016900072376DAF4EEF0BF050EF0BF051EF0BF0D8
:1016A0006F81D8906A376B376C376D377307D8A066
:1016B000740771AF5EEF0BF060EF0BF044EF0BF0CF
:1016C000000E696F6DAF67EF0BF069EF0BF08DEFF8
:1016D0000BF0FF0E6A152E6EFF0E6B152F6EFF0EB0
:1016E0006C15306E7F0E6D15316E2E502F10301030
:1016F0003110D8B47EEF0BF080EF0BF084EF0BF0DD
:10170000010E696F8DEF0BF06FA189EF0BF08BEF7E
:101710000BF08DEF0BF080EF0BF06951D8B493EF25
:101720000BF095EF0BF0B9EF0BF0010E6F27000EE9
:1017300070237123722372A1A0EF0BF0A2EF0BF0C4
:10174000B9EF0BF06FC02EF070C02FF071C030F009
:1017500072C031F03134313230322F322E322EC05D
:101760006FF02FC070F030C071F031C072F0734B69
:10177000742B74BFC4EF0BF0745108E17329D8A027
:10178000C4EF0BF0C6EF0BF0D0EF0BF0000E6F6F55
:10179000000E706F800E716F7F0E726FFEEF0BF098
:1017A00074BFDDEF0BF0745106E17305D8B0DBEFC9
:1017B0000BF0DDEF0BF0E9EF0BF0000E6F6F000E9A
:1017C000706F000E716F000E726F000E686FFEEF8B
:1017D0000BF073C06EF0FF0E6F17FF0E70177F0EC9
:1017E0007117000E72176EA1F8EF0BF0FAEF0BF005
:1017F000FBEF0BF0718FD8906E31726F68517213DE
:101800006FC060F070C061F071C062F072C063F0D0
:101810001200010E0001C56FF40EC46F030EC16FFC
:10182000E80EC06F130EC36F880EC26F54EC1BF02E
:10183000B2C0DFF0B3C0E0F0B4C0E1F0B5C0E2F098
:101840000001FD51D8A427EF0CF029EF0CF05BEF5D
:101850000CF0BAC0F3F0BBC0F4F0BAC01EF0BBC0CD
:101860001FF0030E216EE80E206E66EC19F01EC00C
:10187000F1F01FC0F2F0F1C018F0F2C019F0FC0E48
:101880001B6E180E1A6E0FEC1EF00001BA511824D0
:101890001E6EBB5119201F6E000E216E640E206E4D
:1018A00066EC19F01EC0EFF01FC0F0F0010E000151
:1018B000FD6FB4EF0DF0FD05D8A461EF0CF063EF00
:1018C0000CF0D5EF0CF0FC05D8A469EF0CF06BEF31
:1018D0000CF093EF0CF0DB51DF5DBC6FDC51E05995
:1018E000BD6FDD51E159BE6FDE51E259BF6FBFBF21
:1018F00085EF0CF0BF51BE11BD1109E1FA0EBC5DC0
:10190000D8A085EF0CF087EF0CF0BBEF0CF0DFC038
:10191000DBF0E0C0DCF0E1C0DDF0E2C0DEF0000EA4
:10192000FC6FBBEF0CF0DB51DF5DBC6FDC51E059AD
:10193000BD6FDD51E159BE6FDE51E259BF6FBFBFD0
:10194000AEEF0CF0BF51BE110BE1F40EBC5D010E09
:10195000BD59D8A0AEEF0CF0B0EF0CF0BBEF0CF01F
:10196000DFC0DBF0E0C0DCF0E1C0DDF0E2C0DEF0C3
:10197000010EFC6FFB2BFB51BC6FBD6BF151BC5DCD
:10198000BD51800ABE6FF251800ABE59D8A0CBEF7C
:101990000CF0CDEF0CF0B4EF0DF0020EFD6F000E69
:1019A000FB6F000EFC6FB4EF0DF0020EFD19D8A412
:1019B000DCEF0CF0DEEF0CF007EF0DF0DB51DF5D3C
:1019C000BC6FDC51E059BD6FDD51E159BE6FDE5196
:1019D000E259BF6FBFBFF9EF0CF0BF51BE110BE171
:1019E000E80EBC5D030EBD59D8A0F9EF0CF0FBEF7B
:1019F0000CF0B4EF0DF0DFC0DBF0E0C0DCF0E1C0D4
:101A0000DDF0E2C0DEF0030EFD6FB4EF0DF0030E6B
:101A1000FD19D8A40EEF0DF010EF0DF082EF0DF0D0
:101A2000FC05D8A416EF0DF018EF0DF040EF0DF007
:101A3000DB51DF5DBC6FDC51E059BD6FDD51E15919
:101A4000BE6FDE51E259BF6FBFBF32EF0DF0BF5125
:101A5000BE11BD1109E1FA0EBC5DD8A032EF0DF048
:101A600034EF0DF068EF0DF0DFC0DBF0E0C0DCF02C
:101A7000E1C0DDF0E2C0DEF0000EFC6F68EF0DF0BB
:101A8000DB51DF5DBC6FDC51E059BD6FDD51E159C9
:101A9000BE6FDE51E259BF6FBFBF5BEF0DF0BF51AC
:101AA000BE110BE1F40EBC5D010EBD59D8A05BEF79
:101AB0000DF05DEF0DF068EF0DF0DFC0DBF0E0C082
:101AC000DCF0E1C0DDF0E2C0DEF0010EFC6FFB2BCC
:101AD000FB51BC6FBD6BEF51BC5DBD51800ABE6F49
:101AE000F051800ABE59D8A078EF0DF07AEF0DF0D2
:101AF000B4EF0DF0040EFD6F000EFB6F000EFC6FD7
:101B0000B4EF0DF0040EFD19D8A489EF0DF08BEFA2
:101B10000DF0B0EF0DF0DB51DF5DBC6FDC51E05933
:101B2000BD6FDD51E159BE6FDE51E259BF6FBFBFDE
:101B3000A6EF0DF0BF51BE110BE1880EBC5D130E78
:101B4000BD59D8A0A6EF0DF0A8EF0DF0B4EF0DF041
:101B5000DFC0DBF0E0C0DCF0E1C0DDF0E2C0DEF0D1
:101B6000000EFD6FB4EF0DF0FC05D8A4BAEF0DF038
:101B7000BCEF0DF0CDEF0DF0FD05D8A4C2EF0DF0D8
:101B8000C4EF0DF0CDEF0DF0120E246E120E256E87
:101B9000120EA3EC18F0EEEF0DF0FC05D8A4D3EF75
:101BA0000DF0D5EF0DF0E7EF0DF0030EFD19D8A401
:101BB000DCEF0DF0DEEF0DF0E7EF0DF0000E246E20
:101BC000120E256E000EA3EC18F0EEEF0DF0120EC3
:101BD000246E000E256E000EA3EC18F012003CC11E
:101BE000A0F03DC1A1F03EC1A2F03FC1A3F08EC064
:101BF000A0F08FC0A1F090C0A2F091C0A3F0A0C04F
:101C000092F0A1C093F0A2C094F0A3C095F0180E7A
:101C100010EF0EF00001D890953394339333923344
:101C2000E82E0AEF0EF092519A6F9B6B9BBF22EF4A
:101C30000EF09B5109E1960E9A5DD8A022EF0EF0AE
:101C400024EF0EF02EEF0EF08EC08EF08FC08FF0CE
:101C500090C090F091C091F0C8EF0FF0A0C092F04A
:101C6000A1C093F0A2C094F0A3C095F0200E3EEF67
:101C70000EF0D8909533943393339233E82E39EFA6
:101C80000EF09251931194119511D8B44AEF0EF0C1
:101C90004CEF0EF05EEF0EF08EC018F08FC019F012
:101CA00090C01AF091C01BF01EEC1DF018C08EF011
:101CB00019C08FF01AC090F01BC091F000019BBFBB
:101CC0006DEF0EF09B5107E17E0E9A5DD8B06BEF81
:101CD0000EF06DEF0EF089EF0EF0A0C060F0A1C025
:101CE00061F0A2C062F0A3C063F0000E646F000E4A
:101CF000656F000E666F000E676FF3EC09F060C051
:101D00008EF061C08FF062C090F063C091F0C8EFB8
:101D10000FF0000E1C6E000E1D6E000E1E6E4B0EA0
:101D20001F6E8EC018F08FC019F090C01AF091C0CD
:101D30001BF093EC07F018C09CF019C09DF01AC07E
:101D40009EF01BC09FF0000E1C6E000E1D6E000E5C
:101D50001E6ECB0E1F6E9CC018F09DC019F09EC069
:101D60001AF09FC01BF093EC07F018C096F019C052
:101D700097F01AC098F01BC099F096C028F097C051
:101D800029F098C02AF099C02BF08EC02CF08FC09B
:101D90002DF090C02EF091C02FF07DEC1CF028C0EB
:101DA000A4F029C0A5F02AC0A6F02BC0A7F0000E11
:101DB000186E000E196E000E1A6E3F0E1B6EA4C038
:101DC0001CF0A5C01DF0A6C01EF0A7C01FF03EEC81
:101DD00017F0D8B0EEEF0EF0F0EF0EF026EF0FF0A8
:101DE0008EC01CF08FC01DF090C01EF091C01FF07F
:101DF000A4C018F0A5C019F0A6C01AF0A7C01BF027
:101E000093EC07F018C09CF019C09DF01AC09EF02A
:101E10001BC09FF09CC018F09DC019F09EC01AF026
:101E20009FC01BF0000E1C6E000E1D6E800E1E6EFD
:101E3000BF0E1F6E93EC07F018C0A4F019C0A5F0F8
:101E40001AC0A6F01BC0A7F08FEF0FF0000E186E9F
:101E5000000E196E000E1A6EBF0E1B6EA4C01CF091
:101E6000A5C01DF0A6C01EF0A7C01FF03EEC17F0E5
:101E7000D8A03DEF0FF03FEF0FF075EF0FF08EC0E1
:101E80001CF08FC01DF090C01EF091C01FF0A4C0C8
:101E900018F0A5C019F0A6C01AF0A7C01BF093EC6B
:101EA00007F018C09CF019C09DF01AC09EF01BC02E
:101EB0009FF09CC018F09DC019F09EC01AF09FC002
:101EC0001BF0000E1C6E000E1D6E800E1E6E3F0E6F
:101ED0001F6E93EC07F018C0A4F019C0A5F01AC04B
:101EE000A6F01BC0A7F08FEF0FF0A4C018F0A5C09C
:101EF00019F0A6C01AF0A7C01BF08EC01CF08FC04E
:101F00001DF090C01EF091C01FF093EC07F018C0B8
:101F1000A4F019C0A5F01AC0A6F01BC0A7F0A0C07D
:101F200092F0A1C093F0A2C094F0A3C095F0200E4F
:101F3000A0EF0FF00001D890953394339333923390
:101F4000E82E9AEF0FF09251931194119511D8B495
:101F5000ACEF0FF0AEEF0FF0C0EF0FF0A4C018F031
:101F6000A5C019F0A6C01AF0A7C01BF01EEC1DF00A
:101F700018C0A4F019C0A5F01AC0A6F01BC0A7F0A5
:101F8000A4C08EF0A5C08FF0A6C090F0A7C091F0BD
:101F9000120000017851800B856F785178258C6F85
:101FA00077AFD5EF0FF0D7EF0FF0D8EF0FF08C81B0
:101FB0008C51D8B4DEEF0FF0E0EF0FF0F5EF0FF03B
:101FC0008C29D8A4E6EF0FF0E8EF0FF0F0EF0FF058
:101FD000000E756F000E766F000E776F000E786F33
:101FE000778F000E786FFDEF0FF0000E756F000E0B
:101FF000766F000E776F000E786F7C51800B851B1B
:102000007C517C258D6F7BAF08EF10F00AEF10F04C
:102010000BEF10F08D818D51D8B411EF10F013EF4C
:1020200010F028EF10F08D29D8A419EF10F01BEF55
:1020300010F023EF10F0000E796F000E7A6F000E93
:102040007B6F000E7C6F7B8F000E7C6F30EF10F08B
:10205000000E796F000E7A6F000E7B6F000E7C6FA2
:1020600079517A117B117C11D8A439EF10F03BEF34
:1020700010F053EF10F0000E756F000E766F000E2B
:10208000776F000E786F800E77137F0E781385516F
:10209000781375C075F076C076F077C077F078C0A9
:1020A00078F096EF11F08C51D8A459EF10F05BEF57
:1020B00010F065EF10F0000E756F000E766F000ED9
:1020C000776F000E786F96EF11F08D518CC07DF018
:1020D0007E6B7D5F000E7E5B7F0E7D25866F000E22
:1020E0007E21876F75C081F076C082F077C083F063
:1020F00078C084F0000E756F000E766F000E776F5B
:10210000000E786F000E886F000E896F000E8A6FC8
:10211000000E8B6F000E8D6FC6EF10F08D51D8B48E
:1021200094EF10F096EF10F0ADEF10F0D8908137EB
:10213000823783378437D890753776377737783753
:102140008BAFA5EF10F0A7EF10F0A8EF10F075819E
:10215000D890883789378A378B377951815D7A51A2
:1021600082597B5183597C518459D8A0BAEF10F021
:10217000BCEF10F0C5EF10F08B8D7951815F7A5173
:10218000825B7B51835B7C51845B8D2B190E8D654B
:10219000CCEF10F0CEEF10F08EEF10F081518211E5
:1021A00083118411D8B4D7EF10F0D9EF10F0F1EF0C
:1021B00010F08881F1EF10F0D890753776377737C7
:1021C00078378BAFE6EF10F0E8EF10F0E9EF10F0A2
:1021D0007581D890883789378A378B378607D8A09A
:1021E000870777AFF6EF10F0F8EF10F0DCEF10F0A4
:1021F000000E8D6F8BAFFFEF10F001EF11F025EFA8
:1022000011F0FF0E88157D6FFF0E89157E6FFF0E92
:102210008A157F6F7F0E8B15806F7D517E117F1128
:102220008011D8B416EF11F018EF11F01CEF11F077
:10223000010E8D6F25EF11F075A121EF11F023EF45
:1022400011F025EF11F018EF11F08D51D8B42BEFEC
:1022500011F02DEF11F051EF11F0010E7527000E66
:1022600076237723782378A138EF11F03AEF11F035
:1022700051EF11F075C07DF076C07EF077C07FF031
:1022800078C080F0803580337F337E337D337DC0EE
:1022900075F07EC076F07FC077F080C078F0864B16
:1022A000872B87BF5CEF11F0875108E18629D8A002
:1022B0005CEF11F05EEF11F069EF11F0000E876F27
:1022C0008669000E756F000E766F000E776F000E38
:1022D000786F87BF76EF11F0875106E18605D8B099
:1022E00074EF11F076EF11F084EF11F0000E876FAC
:1022F000000E866F000E756F000E766F000E776F02
:10230000000E786F000E856F86C08CF08CA18BEF6D
:1023100011F08DEF11F090EF11F0778F91EF11F038
:10232000779FD8908C31786F47EF10F01200FA0E3B
:102330000001C16F000EC26F000EC36F000EC46FAC
:10234000000EC86F000EC96F000ECA6F000ECB6F73
:10235000000EC56F000EC66F000EC76FBBBFBCEF8F
:1023600011F0BB5107E1140EBA5DD8B0BAEF11F00D
:10237000BCEF11F0C8EF11F0120EC76FFA0EC86F64
:10238000000EC96F000ECA6F000ECB6FE4EF12F0A3
:10239000BBBFD4EF11F0BB5109E1140EBA5DD8A058
:1023A000D4EF11F0D6EF11F0F0EF11F0BBBFE4EF76
:1023B00011F0BB5107E1200EBA5DD8B0E2EF11F089
:1023C000E4EF11F0F0EF11F0120EC76FEE0EC86FD0
:1023D000020EC96F000ECA6F000ECB6FE4EF12F051
:1023E000BBBFFCEF11F0BB5109E1200EBA5DD8A0D4
:1023F000FCEF11F0FEEF11F010EF12F0BBBF0CEF8D
:1024000012F0BB5107E12D0EBA5DD8B00AEF12F001
:102410000CEF12F010EF12F0120EC76FE4EF12F093
:10242000BBBF1CEF12F0BB5109E12D0EBA5DD8A065
:102430001CEF12F01EEF12F032EF12F0BBBF2CEFC8
:1024400012F0BB5107E1410EBA5DD8B02AEF12F08D
:102450002CEF12F032EF12F0120EC76F120EC66F91
:10246000E4EF12F0BBBF3EEF12F0BB5109E1410EA9
:10247000BA5DD8A03EEF12F040EF12F052EF12F02A
:10248000BBBF4EEF12F0BB5107E14B0EBA5DD8B0A7
:102490004CEF12F04EEF12F052EF12F0120EC66F28
:1024A000E4EF12F0BBBF5EEF12F0BB5109E14B0E3F
:1024B000BA5DD8A05EEF12F060EF12F070EF12F08C
:1024C000BBBF6EEF12F0BB5107E1550EBA5DD8B03D
:1024D0006CEF12F06EEF12F070EF12F04EEF12F0A0
:1024E000BBBF7CEF12F0BB5109E1550EBA5DD8A01D
:1024F0007CEF12F07EEF12F092EF12F0BBBF8CEF88
:1025000012F0BB5107E15F0EBA5DD8B08AEF12F04E
:102510008CEF12F092EF12F0120EC66F120EC56F12
:10252000E4EF12F0BBBF9EEF12F0BB5109E15F0E6A
:10253000BA5DD8A09EEF12F0A0EF12F0B2EF12F049
:10254000BBBFAEEF12F0BB5107E1690EBA5DD8B068
:10255000ACEF12F0AEEF12F0B2EF12F0120EC56F48
:10256000E4EF12F0BBBFBEEF12F0BB5109E1690E00
:10257000BA5DD8A0BEEF12F0C0EF12F0D2EF12F0A9
:10258000BBBFCEEF12F0BB5107E1730EBA5DD8B0FE
:10259000CCEF12F0CEEF12F0D2EF12F0120EC56FA8
:1025A000E6EF11F0BBBFDEEF12F0BB5109E1730E95
:1025B000BA5DD8A0DEEF12F0E0EF12F0E4EF12F017
:1025C000120EC56FBEEF11F0CBBFF1EF12F0CB5181
:1025D000CA11C91108E1C805D8A0F1EF12F0F3EF54
:1025E00012F032EF13F054EC1BF0B2C0E3F0B3C0C2
:1025F000E4F0B4C0E5F0B5C0E6F036500001E35DAC
:10260000BC6F3750E459BD6F3850E559BE6F395033
:10261000E659BF6FC851BC5DC951BD59CA51BE59B9
:10262000BF51800AC06FCB51800AC059D8A01BEFA0
:1026300013F01DEF13F034EF13F0E3C036F0E4C0F5
:1026400037F0E5C038F0E6C039F0FE51D8B42BEFD2
:1026500013F02EEF13F0010E2FEF13F0000EFE6FAC
:1026600034EF13F0010EFE6FC651FE03F3CF24F0DA
:10267000C751FE03F3CF25F0C551FE03F350A3EC81
:1026800018F01200000E0001D16FBC0EC16F740E65
:10269000C26F930EC36F3C0EC46FBAC020F0BBC0B4
:1026A00021F0000E21BEFF0E226E236E010E36ECCD
:1026B00014F020C0C5F021C0C6F022C0C7F023C06E
:1026C000C8F0700E0001646FCE0E656F880E666FE5
:1026D0003C0E676FC5C060F0C6C061F0C7C062F055
:1026E000C8C063F0F3EC09F060C079F061C07AF023
:1026F00062C07BF063C07CF0000E0001756F000EBD
:10270000766F7A0E776F440E786FC9EC0FF075C054
:10271000CDF076C0CEF077C0CFF078C0D0F0CDC08D
:102720008EF0CEC08FF0CFC090F0D0C091F0EFEC23
:102730000DF08EC0A8F08FC0A9F090C0AAF091C093
:10274000ABF0BAEC16F0A8C0C9F0A9C0CAF0AAC094
:10275000CBF0ABC0CCF054EC1BF0B2C0EBF0B3C08C
:10276000ECF0B4C0EDF0B5C0EEF00001E751EB5D68
:10277000BC6FE851EC59BD6FE951ED59BE6FEA519C
:10278000EE59BF6FC951BC5DCA51BD59CB51BE593D
:10279000BF51800AC06FCC51800AC059D8A0D3EF76
:1027A00013F0D5EF13F0E1EF13F0120EFF6FEBC053
:1027B000E7F0ECC0E8F0EDC0E9F0EEC0EAF02DEF94
:1027C00014F0120E206E000E216E000E226E000E0E
:1027D000236E000E36EC14F020C079F021C07AF0A0
:1027E00022C07BF023C07CF0C1C064F0C2C065F0A1
:1027F000C3C066F0C4C067F00001E751EB5D206E16
:10280000E851EC59216EE951ED59226EEA51EE5929
:10281000236E010E36EC14F020C060F021C061F090
:1028200022C062F023C063F0F3EC09F060C075F0E1
:1028300061C076F062C077F063C078F0A3EC15F069
:1028400075C0A8F076C0A9F077C0AAF078C0ABF048
:10285000BAEC16F00001A851D16F000E246E000EE4
:10286000256ED1511208A3EC18F01200286E2850E2
:10287000D8B43DEF14F03FEF14F061EF14F023BE35
:1028800046EF14F044EF14F061EF14F020C024F090
:1028900021C025F022C026F023C027F0241E251ECB
:1028A000261E271E242A000E25222622272224C087
:1028B0002AF025C02BF026C02CF027C02DF069EFA0
:1028C00014F020C02AF021C02BF022C02CF023C02D
:1028D0002DF02050211022102310D8A472EF14F0F4
:1028E00074EF14F07EEF14F0000E206E000E216ED7
:1028F000000E226E000E236E0FEF15F0960E296E5D
:1029000088EF14F0292AD8902D322C322B322A321B
:10291000000E2A14246E000E2B14256E000E2C14AB
:10292000266EFE0E2D14276E24502510261027101B
:10293000D8A49DEF14F09FEF14F082EF14F0ADEFE8
:1029400014F0292A010E2A26000E2B222C222D22D9
:10295000D8902D322C322B322A32000E2A14246EBB
:10296000000E2B14256E000E2C14266EFF0E2D1457
:10297000276E2450251026102710D8A4C2EF14F07B
:10298000C4EF14F0A1EF14F0CCEF14F02906D890A6
:102990002A362B362C362D362CBED1EF14F0D3EF41
:1029A00014F0DBEF14F0020E2960D9EF14F0DBEF26
:1029B00014F0C6EF14F029B0E0EF14F0E2EF14F0D9
:1029C000E3EF14F02C9ED890293229C024F0256A18
:1029D000266A276A24C027F0266A256A246A2450BA
:1029E0002A1225502B1226502C1227502D12285017
:1029F000D8B4FDEF14F0FFEF14F007EF15F023BE8D
:102A000006EF15F004EF15F007EF15F02D8E2AC034
:102A100020F02BC021F02CC022F02DC023F012009A
:102A200057EC1EF0F28EF28C898E898C8B90000E02
:102A300001014F6F000E506F000E516F000E526F6C
:102A4000100E4B6F270E4C6F000E4D6F000E4E6F29
:102A5000000E586F0F0E576F54EC1BF0B2C053F1BD
:102A6000B3C054F1B4C055F1B5C056F101014F5196
:102A7000535D476F50515459486F51515559496FE3
:102A8000525156594A6F4B51475D4C5148594D511F
:102A900049594E514A59D8A050EF15F052EF15F050
:102AA00090EF15F053C14FF154C150F155C151F1A0
:102AB00056C152F1574B582B58BF68EF15F058517B
:102AC00009E1790E575DD8A068EF15F06AEF15F0AF
:102AD0006EEF15F0000E586F0F0E576F57C145F18E
:102AE00058C146F1FCEC1DF0899E040E0101486FAF
:102AF0000C0E476F330EE82EFED7472FFCD7482F1A
:102B0000FAD700D0898E040E0101486F0C0E476F72
:102B1000330EE82EFED7472FFCD7482FFAD700D028
:102B2000010EBEEC1DF0020E0101486F380E476F1A
:102B3000AD0EE82EFED7472FFCD7482FFAD72CEF43
:102B400015F09FEF00F075C018F076C019F077C04F
:102B50001AF078C01BF0C0EC17F018501910D8A468
:102B6000B4EF15F0B6EF15F0C0EF15F079C075F0C1
:102B70007AC076F07BC077F07CC078F032EF16F048
:102B800079C018F07AC019F07BC01AF07CC01BF035
:102B9000C0EC17F018501910D8A4D1EF15F0D3EFEE
:102BA00015F0DDEF15F075C075F076C076F077C0E2
:102BB00077F078C078F032EF16F075C018F076C074
:102BC00019F077C01AF078C01BF055EC1CF018C053
:102BD0007DF019C07EF079C018F07AC019F07BC082
:102BE0001AF07CC01BF055EC1CF0185000017D1948
:102BF00009E119507E19D8B400EF16F002EF16F073
:102C000017EF16F075C018F076C019F077C01AF0FB
:102C100078C01BF055EC1CF018501910D8A413EF15
:102C200016F015EF16F0D3EF15F0B6EF15F075C0EE
:102C300018F076C019F077C01AF078C01BF079C090
:102C40001CF07AC01DF07BC01EF07CC01FF03EEC73
:102C500017F0D8A02EEF16F030EF16F0D3EF15F0E6
:102C6000B6EF15F012000101446F01014451D8A4E0
:102C70003CEF16F03EEF16F078EF16F05CEF16F032
:102C8000F9C0BAF0FAC0BBF042EC13F0B9EF16F09D
:102C9000F7C0BAF0F8C0BBF097EC11F0B9EF16F03E
:102CA000F5C0BAF0F6C0BBF009EC0CF0B9EF16F0C5
:102CB000C8EC1EF0B9EF16F00001D251D96FDA6BF3
:102CC000DA51000AD8B467EF16F058EF16F0D95170
:102CD000000AD8B440EF16F0010AD8B448EF16F055
:102CE000030AD8B450EF16F058EF16F0B9EF16F00B
:102CF0004405D8A47EEF16F080EF16F08EEF16F0A4
:102D0000D3C0F9F0D4C0FAF0D5C0F7F0D6C0F8F0CF
:102D1000D7C0F5F0D8C0F6F0B9EF16F0020E44199E
:102D2000D8A495EF16F097EF16F09DEF16F0D3C0EC
:102D3000F9F0D4C0FAF0B9EF16F0030E4419D8A494
:102D4000A4EF16F0A6EF16F0ACEF16F0D5C0F7F032
:102D5000D6C0F8F0B9EF16F0040E4419D8A4B3EFBA
:102D600016F0B5EF16F076EF16F0D7C0F5F0D8C034
:102D7000F6F012000001AA35AB35B16FB151D8A4FD
:102D8000C4EF16F0C6EF16F0D0EF16F0000EA86FE5
:102D9000000EA96F000EAA6F000EAB6F3DEF17F08B
:102DA000A8C0ACF0A9C0ADF0AAC0AEF0ABC0AFF007
:102DB000200EE0EF16F0D890AF33AE33AD33AC3326
:102DC000E82EDBEF16F0AC51B06FAA8FFF0EA817FC
:102DD000FF0EA917FF0EAA17000EAB17960EB15FD4
:102DE000B1BFF7EF16F0F5EF16F00DEF17F0B15198
:102DF000800A970FD8B0FFEF16F001EF17F003EF3E
:102E000017F0C6EF16F0D890AB33AA33A933A83326
:102E1000B13F03EF17F025EF17F01F0EB16513EF69
:102E200017F015EF17F01DEF17F0C6EF16F0D8905A
:102E3000A837A937AA37AB37B107B151D8A423EFC8
:102E400017F025EF17F017EF17F0B051D8B42BEFAC
:102E500017F02DEF17F035EF17F0AB1FAA1FA91FC2
:102E6000A86D000EA923AA23AB23A8C0A8F0A9C06F
:102E7000A9F0AAC0AAF0ABC0ABF01200000E181463
:102E8000206E000E1914216E800E1A14226E7F0E11
:102E90001B14236E2050211022102310D8A453EFAE
:102EA00017F055EF17F05DEF17F0000E186E000EDB
:102EB000196E000E1A6E000E1B6E000E1C14206E92
:102EC000000E1D14216E800E1E14226E7F0E1F1424
:102ED000236E2050211022102310D8A472EF17F077
:102EE00074EF17F07CEF17F0000E1C6E000E1D6ED5
:102EF000000E1E6E000E1F6E1BAE81EF17F083EFEB
:102F000017F08CEF17F0186C191ED8B0192A1A1E7A
:102F1000D8B01A2A800E1B561FAE91EF17F093EF10
:102F200017F09CEF17F01C6C1D1ED8B01D2A1E1E3A
:102F3000D8B01E2A800E1F56000E181A000E191A3D
:102F4000000E1A1A800E1B1A000E1C1A000E1D1AF3
:102F5000000E1E1A800E1F1A1C50185C1D501958A6
:102F60001E501A581F501B58D8B0B9EF17F0BBEFBE
:102F700017F0BEEF17F0D890BFEF17F0D88012000F
:102F800032C022F033C023F034C024F035C025F025
:102F900018C022F019C023F01AC024F01BC025F07D
:102FA00022C01CF023C01DF024C01EF025C01FF05D
:102FB000180EE0EF17F0D8901F321E321D321C326F
:102FC000E82EDBEF17F01C50206E216A20502110F4
:102FD000D8A4EDEF17F0EFEF17F00FEF18F0D8903F
:102FE00022341C6E23341D6E24341E6E25341F6E55
:102FF0001C501D101E101F10D8A401EF18F003EF75
:1030000018F009EF18F0000E196E020E186E3EEF60
:1030100018F0000E196E030E186E3EEF18F02028FF
:103020002110D8A416EF18F018EF18F03AEF18F0A6
:1030300022C01CF023C01DF024C01EF025C01FF0CC
:10304000090ED8901C361D361E361F36E82E21EF8D
:1030500018F01C501D101E101F10D8B432EF18F0BD
:1030600035EF18F0010E36EF18F0000E186E196AE1
:103070003EEF18F0000E196E040E186E1200BEEC32
:103080001EF00009D8B447EF18F049EF18F086EFAA
:1030900018F057EF18F034EC1FF0A2EF18F030ECF6
:1030A0001FF0A2EF18F028EC1FF0A2EF18F012C1E9
:1030B0000AF013C10BF021EE06F002D86AEF18F007
:1030C0000500FA6EDE50FD6EDE50FE6EF850FF6EAB
:1030D000FA5012000C6E0D6A0D50000AD8B473EF4E
:1030E00018F053EF18F00C50010AD8B453EF18F051
:1030F000030AD8B44BEF18F0010AD8B44FEF18F018
:10310000070AD8B453EF18F053EF18F001012391D8
:103110001DC1D9FF1EC1DAFF1D4B1E2BDF5038EC3D
:103120001FF001011F07D8A020071F512011D8A4AC
:103130009CEF18F09EEF18F0A1EF18F0060EA2EF2A
:1031400018F0030E1200266E120E186E2650E8ECD0
:103150001DF0406E120E186E2450E8EC1DF03F6E0C
:10316000120E186E2550E8EC1DF03E6E000E276E14
:103170004050D8A4BEEF18F0C0EF18F0C5EF18F01B
:1031800027500F0B276EC8EF18F027503009276E15
:103190003F50D8A4CEEF18F0D0EF18F0D5EF18F0CC
:1031A0002750330B276ED8EF18F027500C09276EE5
:1031B0003E50D8A4DEEF18F0E0EF18F0E5EF18F07D
:1031C00027503C0B276EE8EF18F027500309276EB5
:1031D000030E216E27C022F0660E8DEC1BF0020E4E
:1031E000216E40C022F0660E8DEC1BF0010E216EA8
:1031F0003FC022F0660E8DEC1BF0000E216E3EC02B
:1032000022F0660E8DEC1BF01200240E4424D96EC1
:10321000DA6A010EDA22000EDF6E9CA412EF19F0BA
:1032200014EF19F029EF19F0240E4424D96EDA6A4C
:10323000010EDA220101DF8202D829EF19F0050020
:10324000FA6E5F51FD6E6051FE6EF850FF6EFA50DF
:1032500012009CA22EEF19F030EF19F045EF19F093
:10326000240E4424D96EDA6A010EDA220101DF84C9
:1032700002D845EF19F00500FA6E5D51FD6E5E5102
:10328000FE6EF850FF6EFA501200240E4424D96EE0
:10329000DA6A010EDA22DF50D8B451EF19F053EF99
:1032A00019F063EF19F002D861EF19F00500010180
:1032B000FA6E5B51FD6E5C51FE6EF850FF6EFA5077
:1032C000120065EF19F0D3EC1DF01200000E236E12
:1032D0001FBE6FEF19F06DEF19F075EF19F01E6C4E
:1032E0001F1ED8B01F2A010E236E21BE7CEF19F0DD
:1032F0007AEF19F080EF19F0206C211ED8B0212A46
:1033000020502110D8B487EF19F089EF19F0ADEFF4
:1033100019F0010E226E91EF19F0D8902036213667
:10332000222A21AE96EF19F098EF19F08DEF19F0DF
:1033300020501E5C21501F58D8A0A1EF19F0A3EF18
:1033400019F0A7EF19F020501E5E21501F5AD89097
:1033500021322032222E98EF19F02350D8B4B3EF47
:1033600019F0B5EF19F0B9EF19F01E6C1F1ED8B0A7
:103370001F2A1EC01EF01FC01FF012005DEC1FF0C0
:103380001DC1D9FF1EC1DAFFDF6E01011D4B1E2BCF
:103390001F07D8A020071F512011D8B4D2EF19F071
:1033A000D4EF19F0D9EF19F03FEC1FF0050E11EF33
:1033B0001AF02387E4EF19F01CEC1FF011EF1AF05C
:1033C00020EC1FF011EF1AF00CC10AF00DC10BF048
:1033D00002D8F5EF19F00500FA6E0051FD6E0151AB
:1033E000FE6EF850FF6EFA5012000C6E0D6A0D5012
:1033F000000AD8B4FEEF19F0E0EF19F00C50010A02
:10340000D8B4E0EF19F0030AD8B4DCEF19F0010AE0
:10341000D8B4DCEF19F0070AD8B4E0EF19F0E0EF08
:1034200019F012001A6E010E1B6E010123B51BEF7D
:103430001AF01DEF1AF05FEF1AF01AC01CF1239377
:10344000238523910E0E216F010E1B6FF40E1A6F50
:103450002387C60E006F3E0E016F000E0C6F000E2C
:103460000D6FC60E026F3E0E036F000E0E6F000E44
:103470000F6FC60E046F3E0E056F000E106F000E2C
:10348000116FC60E066F3E0E076F000E126F000E14
:10349000136FC20E086F3E0E096F000E146F000E00
:1034A000156F780E186E3E0E196EFAEC1EF055EC84
:1034B0001FF046EC1EF04DEC1FF0000E1B6E1B5073
:1034C00012000101238772EF1AF02CEC1FF09FEF1E
:1034D0001AF05BEC1FF0030E9FEF1AF028EC1FF0C0
:1034E0009FEF1AF00CC10AF00DC10BF002D883EF68
:1034F0001AF00500FA6E0051FD6E0151FE6EF85093
:10350000FF6EFA5012000C6E0D6A0D50000AD8B40E
:103510008CEF1AF06EEF1AF00C50010AD8B46EEF6F
:103520001AF0030AD8B465EF1AF0010AD8B465EFAF
:103530001AF0070AD8B469EF1AF06EEF1AF0120009
:103540001C6E18501910D8B4A8EF1AF0AAEF1AF090
:10355000C4EF1AF01C50020D000EF324D96E010EB8
:10356000F420DA6E18C0DEFF19C0DDFF1C50020D1A
:103570000C0EF324D96E010EF420DA6E1AC0DEFFB1
:103580001BC0DDFFDCEF1AF01C50020D000EF3240F
:10359000D96E010EF420DA6EC60EDE6E3E0EDD6EC2
:1035A0001C50020D0C0EF324D96E010EF420DA6EBD
:1035B000000EDE6E000EDD6E1200056E0150021070
:1035C000D8B4E5EF1AF0E7EF1AF001EF1BF0055061
:1035D000020D000EF324D96E010EF420DA6E01C044
:1035E000DEFF02C0DDFF0550020D0C0EF324D96E84
:1035F000010EF420DA6E03C0DEFF04C0DDFF19EF18
:103600001BF00550020D000EF324D96E010EF420BC
:10361000DA6EC60EDE6E3E0EDD6E0550020D0C0E2D
:10362000F324D96E010EF420DA6E000EDE6E000E69
:10363000DD6E1200A39A0A0E186E320E196E04EC9B
:103640001FF0A398C00E186E390E196EFFEC1EF015
:10365000080E7C6E900E9C6E240EA86E0F0EAB6E44
:10366000270E7D6ED20E186E3E0E196E0EEC1FF0F8
:103670008A0E186E3E0E196E09EC1FF0900E186E31
:103680003E0E196E13EC1FF0000E416E000E466EDA
:10369000000E456E080E476E000E446E000E436E1F
:1036A000000E426EA38A1200000E0001646F000E2D
:1036B000656F800E666F3F0E676F68EC1EF018C076
:1036C00020F019C021F0226A236A000E36EC14F0B3
:1036D00020C060F021C061F022C062F023C063F01E
:1036E000F3EC09F060C0A8F061C0A9F062C0AAF0D4
:1036F00063C0ABF0BAEC16F0A8C0B6F0A9C0B7F042
:10370000AAC0B8F0ABC0B9F0B6C0B2F0B7C0B3F061
:10371000B8C0B4F0B9C0B5F01200236E235012EC5B
:103720001AF00009D8B497EF1BF099EF1BF08EEF59
:103730001BF0CC0E1D6E3A0E1E6E220E1F6E000E7A
:10374000206E86EC1EF0210E186E000E196E000E13
:103750001B6E010E1A6E22EC1EF0000E1D6E000E86
:103760001E6E000E1F6E000E206E92EC1EF018EC06
:103770001FF03AEC1DF0E806D8B4C1EF1BF0C3EF20
:103780001BF0B9EF1BF0120001012391020E226F12
:10379000D2EF1BF02CEC1FF0F9EF1BF028EC1FF020
:1037A000F9EF1BF010C10AF011C10BF021EE04F08B
:1037B00002D8E5EF1BF00500FA6EDE50FD6EDE501C
:1037C000FE6EF850FF6EFA5012000C6E0D6A0D502E
:1037D000000AD8B4EEEF1BF0CEEF1BF00C50020A3B
:1037E000D8B4CAEF1BF0010AD8B4CAEF1BF0CEEF71
:1037F0001BF0120059EC1FF0010123A102EF1CF095
:1038000004EF1CF011EF1CF0BEEC1EF00009D8B460
:103810000CEF1CF00EEF1CF011EF1CF00F0E01016D
:10382000216F01012151020D010EF324F66E0F0EDE
:10383000F420F76E02D829EF1CF00500FA6E09009B
:10384000F550FD6E0900F550FE6EF850FF6EFA500F
:1038500012000101216F1200960EF66E3E0EF76EF9
:10386000000EF86E01EE65F010EE04F00900F5CFE1
:10387000EEFFE550E150FAE101EE00F0440EEE6A91
:10388000E806FDE100EEDBF0250EEE6AE806FDE15C
:1038900000EE32F0150EEE6AE806FDE1489048921F
:1038A000000EF86E000110EF15F040C120F041C18C
:1038B00021F042C122F043C123F018C020F019C00A
:1038C00021F01AC022F01BC023F020C01CF021C040
:1038D0001DF022C01EF023C01FF0200E75EF1CF05B
:1038E000D8901F321E321D321C32E82E70EF1CF0B1
:1038F0001CC018F01DC019F01200000E2C1A000E8A
:103900002D1A000E2E1A800E2F1A28C018F029C06A
:1039100019F02AC01AF02BC01BF02CC01CF02DC0CF
:103920001DF02EC01EF02FC01FF093EC07F018C042
:1039300028F019C029F01AC02AF01BC02BF0120081
:10394000186E010E196E010123B3A9EF1CF0ABEF45
:103950001CF0BEEF1CF02383000E196E1850D8B473
:10396000B4EF1CF0B6EF1CF0BAEF1CF0010E216FA3
:10397000BCEF1CF0020E216F4FEC1FF0195012002B
:1039800020EE02F00A50D9260B50DA22DECF01F0E9
:10399000DDCF02F00AC0D9FF0BC0DAFFDECF03F0A3
:1039A000DDCF04F034EC1EF0000E066E000E076E44
:1039B000000E086E000E096E9EEC1EF0020E120044
:1039C000080E4760E6EF1CF0E8EF1CF0FEEF1CF07D
:1039D000340E4524D96EDA6A010EDA22DF50A96E60
:1039E000452A070E4564F7EF1CF0F9EF1CF0FBEFDA
:1039F0001CF0000E456E472AFFEF1CF0A398120042
:103A0000000E896E000E8A6E000E8B6E2F0E926E67
:103A1000F70E936EC40E946E000E0F01486F0F0EDA
:103A2000496FF18E000E426F000E416F000E406F25
:103A3000050E0E01F76F060EC66F12001850191012
:103A40001A101B10D8B427EF1DF029EF1DF031EF2D
:103A50001DF0000E181A000E191A000E1A1A800E08
:103A60001B1A18C018F019C019F01AC01AF01BC0A0
:103A70001BF01200010E186E010123B342EF1DF07E
:103A800044EF1DF04EEF1DF023951C6955EC1FF01F
:103A900051EC1FF053EC1FF022C118F01850120027
:103AA000000E9A6ED10ECF6E200ECE6E9E90CE502E
:103AB000CFCF18F0196A18C019F0186A1810010150
:103AC000596F19505A6F010ECD6E12000AC001F0E5
:103AD0000BC002F0000E046E010E036E34EC1EF0FB
:103AE000000E066E000E076E000E086E000E096EC8
:103AF0009EEC1EF0040E12000AC001F00BC002F092
:103B0000000E046E020E036E34EC1EF0000E066E04
:103B1000000E076E000E086E000E096E9EEC1EF081
:103B2000020E12000AC001F00BC002F0000E046E7B
:103B3000010E036E34EC1EF0000E066E000E076ED2
:103B4000000E086E000E096E9EEC1EF0020E1200B2
:103B50000AC001F00BC002F0000E046E020E036EEC
:103B600034EC1EF0000E066E000E076E000E086E9E
:103B7000000E096E9EEC1EF0040E12000101456F4E
:103B800045C1D2F0000E0001D46F000ED36F000EBD
:103B9000D66F000ED56F000ED86F000ED76F000ED7
:103BA00033EC16F012002C0E4424D96EDA6A010EA2
:103BB000DA22AACFDFFF442A070E4464E2EF1DF0A9
:103BC000E4EF1DF0E6EF1DF0000E446E422A1200F5
:103BD0001B6E18501B5CD8A0F0EF1DF0F2EF1DF02B
:103BE000F7EF1DF018C019F01A6AFAEF1DF01BC0AC
:103BF00019F01A6A19501200000E0001D26F000E5F
:103C0000D46F000ED36F45C1D5F046C1D6F0000E7B
:103C1000D86F000ED76F030E33EC16F01200185059
:103C20001A02F3CF1CF0F4CF1DF018501B02F35012
:103C30001D2619501A02F3501D261CC018F01DC075
:103C400019F01200010123A728EF1EF02AEF1EF041
:103C500033EF1EF018C01DF119C01EF11AC01FF17C
:103C60001BC020F123971200010123A73AEF1EF099
:103C70003CEF1EF045EF1EF001C01DF102C01EF129
:103C800003C01FF104C020F123971200C6BA4BEF06
:103C90001EF04DEF1EF056EF1EF0800EC76E080EA0
:103CA000C66E000EC56EEF0EC86EC68A120057ECC7
:103CB0001FF0B4EC1EF000EC1DF0AAEC1EF077EC47
:103CC0001EF0D0EC1EF050EC1DF01AEC1BF01200B0
:103CD000CECF1FF0CFCF1EF01E501A6E1F501C6E9D
:103CE0001AC01DF01CC018F01DC019F01200010E02
:103CF000C16E020E0E01B86F000E0F01496F000E6B
:103D0000C36E000EC46E010EC26E12001DC018F00C
:103D10001EC019F01FC01AF020C01BF0000EA0EC4E
:103D20001AF012001DC018F01EC019F01FC01AF0C2
:103D300020C01BF0020EA0EC1AF0120006C001F029
:103D400007C002F008C003F009C004F0000EDDEC6B
:103D50001AF01200600ED36E000E9B6E000E0F0163
:103D60003D6F140E876E1200800EC76E080EC66E71
:103D7000000EC56EEF0EC86EC69A1200C5BCC3EF2A
:103D80001EF0C6EF1EF0010EC7EF1EF0000E12006F
:103D9000000E246E000E256E000EA3EC18F012002B
:103DA000F90ECB6E000ECC6E9E925D0ECA6E1200A6
:103DB000010123811C511C2538EC1FF0030E120059
:103DC00001012381D8801C3538EC1FF0050E12004C
:103DD00001012393000E226F0E0E120001012391A8
:103DE0005FEC1FF0040E120001012393000E226FFE
:103DF0000E0E120018C03CF019C03DF0120018C0A1
:103E000063F119C064F1120018C061F119C062F1C8
:103E1000120018C05DF119C05EF1120018C05FF108
:103E200019C060F1120018C05BF119C05CF11200FA
:103E3000000EA0EC1CF0120042EC1FF0090E120064
:103E400042EC1FF00A0E12003FEC1FF0050E1200AC
:103E500065EC1FF0000E120067EC1FF0010E12005F
:103E600067EC1FF0020E120067EC1FF0010E12004B
:103E7000016E01C0C9FF1200FAEC1BF01200C59AD6
:103E8000C5881200C58AC58812009C989C881200BB
:103E9000D3EC1DF012000000803F9D861200C5800B
:103EA00012009D961200C69A12009E961200D09E95
:103EB00012009E9612009E861200C9501200C586FE
:103EC0001200050E1200010E1200C5841200C582F8
:043ED00012001200CA
:08FFF800ACF7D2FFFFFBBFFBD9
:00000001FF
