:040000009EEF00F07F
:100008004882FACF0EF0FBCF0FF0D9CF10F0DACF3D
:1000180011F0F3CF12F0F4CF13F0F6CF14F0F7CFBE
:1000280015F0F8CF16F0F5CF17F0F2AC1EEF00F090
:1000380020EF00F088EF00F0A3A825EF00F027EFED
:1000480000F03DEF00F0A4A82CEF00F02EEF00F038
:100058003DEF00F002D83BEF00F00500FA6E455086
:10006800FD6E4650FE6EF850FF6EFA50120088EF93
:1000780000F0A3AA42EF00F044EF00F05BEF00F0BD
:10008800A4AA49EF00F04BEF00F05BEF00F002D8B4
:1000980059EF00F005000001FA6ED051FD6ED15104
:1000A800FE6EF850FF6EFA50120088EF00F0A0A61E
:1000B80060EF00F062EF00F078EF00F0A1A667EFC4
:1000C80000F069EF00F078EF00F002D876EF00F06A
:1000D8000500FA6E3B50FD6E3C50FE6EF850FF6E08
:1000E800FA50120088EF00F09DA67DEF00F07FEF38
:1000F80000F088EF00F09EA684EF00F086EF00F095
:1001080088EF00F069EF00F017C0F5FF16C0F8FFA0
:1001180015C0F7FF14C0F6FF13C0F4FF12C0F3FFB9
:1001280011C0DAFF10C0D9FF0FC0FBFF0EC0FAFFE5
:0801380048921100BEEF0EF029
:100F000000181FF01EE01EEA1374150C1F5017A2E4
:100F10001F9A1F921F8A1F821F7A1F721F001FA411
:100F20001974657374696E670000F5EC0EF0F28E4B
:100F3000F28C898E898C8B90410E0001C26F899C46
:100F4000040E0001C16F0C0EC06F330EE82EFED7E9
:100F5000C02FFCD7C12FFAD700D0898C040E000116
:100F6000C16F0C0EC06F330EE82EFED7C02FFCD71A
:100F7000C12FFAD700D0210E0001BC6F0F0EBD6F3C
:100F8000AAEC0EF0000E216E310E226E660E9BEC66
:100F90000CF0030E216E3F0E226E660E9BEC0CF0E1
:100FA000030E216E3F0E226E660E9BEC0CF0020EBD
:100FB000216E190E226E660E9BEC0CF0000E0001E5
:100FC000C96FC951D8A4E7EF07F0E9EF07F01AEFAE
:100FD00008F0030E216E030E226E660E9BEC0CF0E1
:100FE000000E0001C66F000E216EC6C022F0660E14
:100FF0009BEC0CF0100E0001C16F390EC06F0D0E8E
:10100000E82EFED7C02FFCD7C12FFAD700D00001A1
:10101000C62B0C0EC6650FEF08F011EF08F0F3EFCA
:1010200007F0030E216E000E226E660E9BEC0CF094
:1010300082EF08F0C905D8A420EF08F022EF08F0ED
:1010400053EF08F0030E216E0C0E226E660E9BEC21
:101050000CF0000E0001C76F010E216EC7C022F018
:10106000660E9BEC0CF0100E0001C16F390EC06FC4
:101070000D0EE82EFED7C02FFCD7C12FFAD700D017
:101080000001C72B0C0EC76548EF08F04AEF08F0C7
:101090002CEF08F0030E216E000E226E660E9BEC04
:1010A0000CF082EF08F0030E216E300E226E660EF9
:1010B0009BEC0CF0000E0001C86F020E216EC8C040
:1010C00022F0660E9BEC0CF0100E0001C16F390E81
:1010D000C06F0D0EE82EFED7C02FFCD7C12FFAD758
:1010E00000D00001C82B0C0EC86579EF08F07BEF2B
:1010F00008F05DEF08F0030E216E000E226E660E02
:101100009BEC0CF00001C92B020EC9658AEF08F0B8
:101110008CEF08F0E1EF07F0000E216E000E226E5A
:10112000660E9BEC0CF0010E216E000E226E660E18
:101130009BEC0CF0020E216E000E226E660E9BECF4
:101140000CF0000E0001C36F000E216E0D0E226E1A
:10115000660E9BEC0CF0030E216E030E226E660EE3
:101160009BEC0CF0100E0001C16F390EC06F0D0E1C
:10117000E82EFED7C02FFCD7C12FFAD700D0000E23
:10118000216E000E226E660E9BEC0CF0030E216E9B
:10119000000E226E660E9BEC0CF0100E0001C16F6B
:1011A000390EC06F0D0EE82EFED7C02FFCD7C12F11
:1011B000FAD700D00001C32B090EC365E2EF08F097
:1011C000E4EF08F0A4EF08F0000EC46F010E216EEA
:1011D0000D0E226E660E9BEC0CF0030E216E0C0EB3
:1011E000226E660E9BEC0CF0100E0001C16F390EE2
:1011F000C06F0D0EE82EFED7C02FFCD7C12FFAD737
:1012000000D0010E216E000E226E660E9BEC0CF0DB
:10121000030E216E000E226E660E9BEC0CF0100E7B
:101220000001C16F390EC06F0D0EE82EFED7C02F22
:10123000FCD7C12FFAD700D00001C42B090EC4651A
:1012400024EF09F026EF09F0E6EF08F0000EC56F75
:10125000020E216E0D0E226E660E9BEC0CF0030E3C
:10126000216E300E226E660E9BEC0CF0100E00010B
:10127000C16F390EC06F0D0EE82EFED7C02FFCD700
:10128000C12FFAD700D0020E216E000E226E660E1C
:101290009BEC0CF0030E216E000E226E660E9BEC92
:1012A0000CF0100E0001C16F390EC06F0D0EE82E4C
:1012B000FED7C02FFCD7C12FFAD700D00001C52B15
:1012C000090EC56566EF09F068EF09F028EF09F02F
:1012D000030E216E000E226E660E9BEC0CF03D0E8E
:1012E0000001C16FE10EC06F3F0EE82EFED7C02F88
:1012F000FCD7C12FFAD700D09FEF07F09EEF00F088
:1013000025C0D9FF26C0DAFFDECFF6FFDDCFF7FF1D
:101310000800F550250AD8A490EF09F092EF09F0E3
:10132000D9EF09F025C0D9FF26C0DAFFDE2A000E6A
:10133000DD22000E346E000E336E33C037F034C041
:1013400038F03568366825C0D9FF26C0DAFFDECF11
:10135000F6FFDDCFF7FF0800F550250AD8A4B3EF5C
:1013600009F0B5EF09F0CCEF09F025C0D9FF26C090
:10137000DAFFDE2A000EDD22000E1B6E250E1A6E2D
:1013800023C01CF024C01DF05DEC0BF0000E246E99
:10139000010E236EF4EF09F025C0D9FF26C0DAFF55
:1013A000DE2A000EDD22000E246E000E236EF4EF06
:1013B00009F025C0D9FF26C0DAFFDECFF6FFDDCF6A
:1013C000F7FF0800F5501A6E1B6A23C01CF024C0FA
:1013D0001DF05DEC0BF025C0D9FF26C0DAFFDE2A38
:1013E000000EDD22C6EF09F012005EEC0FF00009DE
:1013F000D8B4FDEF09F0FFEF09F03CEF0AF00DEF74
:101400000AF0D1EC0FF058EF0AF0CDEC0FF058EFE6
:101410000AF0C5EC0FF058EF0AF072C00AF073C082
:101420000BF020EE66F002D820EF0AF00500FA6E0D
:10143000DE50FD6EDE50FE6EF850FF6EFA50120068
:101440000C6E0D6A0D50000AD8B429EF0AF009EFAE
:101450000AF00C50010AD8B409EF0AF0030AD8B414
:1014600001EF0AF0010AD8B405EF0AF0070AD8B470
:1014700009EF0AF009EF0AF0000183917DC0D9FF5E
:101480007EC0DAFF7D4B7E2BDF50D5EC0FF00001E4
:101490007F07D8A080077F518011D8A452EF0AF0AF
:1014A00054EF0AF057EF0AF0060E58EF0AF0030E59
:1014B0001200290E4024D96EDA6A000EDA22000EDC
:1014C000DF6E9CA466EF0AF068EF0AF07DEF0AF089
:1014D000290E4024D96EDA6A000EDA22DF8202D8A1
:1014E0007DEF0AF005000001FA6ECE51FD6ECF517E
:1014F000FE6EF850FF6EFA5012009CA282EF0AF0C6
:1015000084EF0AF099EF0AF0290E4024D96EDA6AC6
:10151000000EDA22DF8402D899EF0AF005000001FC
:10152000FA6ECC51FD6ECD51FE6EF850FF6EFA5042
:101530001200290E4024D96EDA6A000EDA22DF503A
:10154000D8B4A5EF0AF0A7EF0AF0B7EF0AF002D877
:10155000B5EF0AF005000001FA6ECA51FD6ECB51DD
:10156000FE6EF850FF6EFA501200B9EF0AF095ECDB
:101570000EF01200F8EC0FF07DC0D9FF7EC0DAFF4C
:10158000DF6E00017D4B7E2B7F07D8A080077F5147
:101590008011D8B4CEEF0AF0D0EF0AF0D5EF0AF000
:1015A000DCEC0FF0050E0DEF0BF08387E0EF0AF097
:1015B000B9EC0FF00DEF0BF0BDEC0FF00DEF0BF0F1
:1015C0006CC00AF06DC00BF002D8F1EF0AF0050014
:1015D000FA6E6051FD6E6151FE6EF850FF6EFA506A
:1015E00012000C6E0D6A0D50000AD8B4FAEF0AF022
:1015F000DCEF0AF00C50010AD8B4DCEF0AF0030A61
:10160000D8B4D8EF0AF0010AD8B4D8EF0AF0070A24
:10161000D8B4DCEF0AF0DCEF0AF012001A6E010E0B
:101620001B6E000183B517EF0BF019EF0BF05BEFAA
:101630000BF01AC07CF08393838583910E0E816F2B
:10164000010E7B6FF40E7A6F8387FC0E606F1F0EA6
:10165000616F000E6C6F000E6D6FFC0E626F1F0EDF
:10166000636F000E6E6F000E6F6FFC0E646F1F0EC7
:10167000656F000E706F000E716FFC0E666F1F0EAF
:10168000676F000E726F000E736FF80E686F1F0E9B
:10169000696F000E746F000E756FB20E186E1F0E1C
:1016A000196EB0EC0FF0F2EC0FF006EC0FF0EAEC74
:1016B0000FF0000E1B6E1B5012001C501D10D8B4F2
:1016C00064EF0BF066EF0BF06FEF0BF01C501D108A
:1016D000D8A46DEF0BF06FEF0BF074EF0BF01A5016
:1016E00092EC0FF0A7EF0BF020EE09F01C50D9267A
:1016F0001D50DA22DE50DE10D8B481EF0BF083EFFC
:101700000BF09EEF0BF020EE09F01C50D9261D5077
:10171000DA2210EE03F01C50E1261D50E222DE50CA
:10172000E65CE650800A226EDE50800A2258D8B06D
:101730009CEF0BF09EEF0BF0A7EF0BF020EE03F009
:101740001C50D9261D50DA22DE2A000EDD2212009E
:1017500000018387B9EF0BF0C9EC0FF0E6EF0BF057
:10176000F6EC0FF0030EE6EF0BF0C5EC0FF0E6EF32
:101770000BF06CC00AF06DC00BF002D8CAEF0BF092
:101780000500FA6E6051FD6E6151FE6EF850FF6EFD
:10179000FA5012000C6E0D6A0D50000AD8B4D3EF47
:1017A0000BF0B5EF0BF00C50010AD8B4B5EF0BF00D
:1017B000030AD8B4ACEF0BF0010AD8B4ACEF0BF0CD
:1017C000070AD8B4B0EF0BF0B5EF0BF012001C6EA7
:1017D00018501910D8B4EFEF0BF0F1EF0BF00BEF3E
:1017E0000CF01C50020D600EF324D96E000EF42094
:1017F000DA6E18C0DEFF19C0DDFF1C50020D6C0E42
:10180000F324D96E000EF420DA6E1AC0DEFF1BC07E
:10181000DDFF23EF0CF01C50020D600EF324D96E97
:10182000000EF420DA6EFC0EDE6E1F0EDD6E1C5014
:10183000020D6C0EF324D96E000EF420DA6E000E49
:10184000DE6E000EDD6E1200056E01500210D8B47F
:101850002CEF0CF02EEF0CF048EF0CF00550020DC1
:10186000600EF324D96E000EF420DA6E01C0DEFFA4
:1018700002C0DDFF0550020D6C0EF324D96E000E80
:10188000F420DA6E03C0DEFF04C0DDFF60EF0CF071
:101890000550020D600EF324D96E000EF420DA6EAE
:1018A000FC0EDE6E1F0EDD6E0550020D6C0EF32475
:1018B000D96E000EF420DA6E000EDE6E000EDD6EC4
:1018C0001200A39AB20E186E140E196E9CEC0FF053
:1018D000A398A80E186E1B0E196E97EC0FF0080E49
:1018E0007C6E900E9C6E240EA86E0F0EAB6E270EB3
:1018F0007D6E080E186E200E196EA6EC0FF0C40E49
:10190000186E1F0E196EA1EC0FF0CA0E186E1F0E86
:10191000196EABEC0FF0000E3D6E000E426E000E25
:10192000416E080E476E000E406E000E3F6E000EB8
:101930003E6EA38A1200236E23500EEC0BF00009BA
:10194000D8B4A5EF0CF0A7EF0CF09CEF0CF0500E04
:101950001D6E1C0E1E6E220E1F6E000E206E26ECDB
:101960000FF0210E186E000E196E000E1B6E010E88
:101970001A6ED1EC0EF0000E1D6E000E1E6E000EE3
:101980001F6E000E206E32EC0FF0B5EC0FF012EC73
:101990000EF0E806D8B4CFEF0CF0D1EF0CF0C7EFA3
:1019A0000CF0120000018391020E826FE0EF0CF048
:1019B000C9EC0FF007EF0DF0C5EC0FF007EF0DF0DD
:1019C00070C00AF071C00BF020EE64F002D8F3EFA3
:1019D0000CF00500FA6EDE50FD6EDE50FE6EF85023
:1019E000FF6EFA5012000C6E0D6A0D50000AD8B44A
:1019F000FCEF0CF0DCEF0CF00C50020AD8B4D8EF7E
:101A00000CF0010AD8B4D8EF0CF0DCEF0CF01200A7
:101A1000F4EC0FF0000183A110EF0DF012EF0DF0C8
:101A20001FEF0DF05EEC0FF00009D8B41AEF0DF0C7
:101A30001CEF0DF01FEF0DF00F0E0001816F000184
:101A40008151020D010EF324F66E0F0EF420F76E95
:101A500002D837EF0DF00500FA6E0900F550FD6E63
:101A60000900F550FE6EF850FF6EFA5012000001AA
:101A7000816F1200B6C0BAF0B7C0BBF0000E326E74
:101A8000000E316E56EF0DF0B4C023F0B5C024F057
:101A9000BA0E256E000E266EB8C027F0B9C028F029
:101AA00080EC09F02350312624503222BAC0F6FFD0
:101AB000BBC0F7FF0800F5500009D8A462EF0DF095
:101AC00064EF0DF044EF0DF031C0B4F032C0B5F06A
:101AD0001200186E4750D8B470EF0DF072EF0DF091
:101AE0006AEF0DF0A3B877EF0DF079EF0DF07DEF11
:101AF0000DF018C0A9FF92EF0DF0A398AC0E422490
:101B0000D96EDA6A000EDA2218C0DFFF422A070E09
:101B100042648DEF0DF08FEF0DF091EF0DF0000EA0
:101B2000426E4706A3881200186E010E196E00015E
:101B300083B39DEF0DF09FEF0DF0B2EF0DF08383B7
:101B4000000E196E1850D8B4A8EF0DF0AAEF0DF0E2
:101B5000AEEF0DF0010E816FB0EF0DF0020E816F50
:101B6000ECEC0FF01950120020EE02F00A50D926CA
:101B70000B50DA22DECF01F0DDCF02F00AC0D9FF30
:101B80000BC0DAFFDECF03F0DDCF04F0E3EC0EF0A4
:101B9000000E066E000E076E000E086E000E096E37
:101BA0003EEC0FF0020E1200080E4760DAEF0DF067
:101BB000DCEF0DF0F2EF0DF0AC0E4124D96EDA6AD5
:101BC000000EDA22DF50A96E412A070E4164EBEFC6
:101BD0000DF0EDEF0DF0EFEF0DF0000E416E472A26
:101BE000F3EF0DF0A3981200000E896E000E8A6EBE
:101BF000000E8B6E2F0E926EF70E936EC40E946EC7
:101C0000000E0F01486F0F0E496FF18E000E426FEC
:101C1000000E416F000E406F050E0E01F76F060EAD
:101C2000C66F1200010E186E000183B31AEF0EF09A
:101C30001CEF0EF026EF0EF083957C69F2EC0FF0AE
:101C4000EEEC0FF0F0EC0FF082C018F0185012001C
:101C50000AC001F00BC002F0000E046E010E036E0C
:101C6000E3EC0EF0000E066E000E076E000E086E1E
:101C7000000E096E3EEC0FF0040E12000AC001F0D7
:101C80000BC002F0000E046E020E036EE3EC0EF0C9
:101C9000000E066E000E076E000E086E000E096E36
:101CA0003EEC0FF0020E12000AC001F00BC002F071
:101CB000000E046E010E036EE3EC0EF0000E066ED5
:101CC000000E076E000E086E000E096E3EEC0FF05F
:101CD000020E12000AC001F00BC002F0000E046EEA
:101CE000020E036EE3EC0EF0000E066E000E076EA1
:101CF000000E086E000E096E3EEC0FF0040E12008E
:101D0000000E9A6ED10ECF6E200ECE6E9E90CE50EB
:101D1000CFCF18F0196A18C019F0186A1810436E5E
:101D20001950446E010ECD6E1200A40E4024D96EDF
:101D3000DA6A000EDA22AACFDFFF402A070E4064DB
:101D4000A4EF0EF0A6EF0EF0A8EF0EF0000E406E1E
:101D50003E2A1200BE0E0001BE6F000EBF6F000EC5
:101D6000B46F000EB56FBCC0B6F0BDC0B7F0BE0E0C
:101D7000B86F000EB96F3AEC0DF0120000EE60F093
:101D8000540EEE6AE806FDE100EE29F01A0EEE6A46
:101D9000E806FDE148904892000EF86E000195EFCC
:101DA00007F0000183A7D7EF0EF0D9EF0EF0E2EFB6
:101DB0000EF018C07DF019C07EF01AC07FF01BC075
:101DC00080F083971200000183A7E9EF0EF0EBEF9C
:101DD0000EF0F4EF0EF001C07DF002C07EF003C003
:101DE0007FF004C080F083971200E8EC0FF054EC11
:101DF0000FF0F4EC0DF04AEC0FF017EC0FF068EC7C
:101E00000FF080EC0EF061EC0CF01200C6BA0BEF94
:101E10000FF00DEF0FF016EF0FF0800EC76E080EEB
:101E2000C66E000EC56EEF0EC86EC68A1200010E99
:101E3000C16E020E0E01B86F000E0F01496F000E49
:101E4000C36E000EC46E010EC26E12001DC018F0EB
:101E50001EC019F01FC01AF020C01BF0000EE7ECE6
:101E60000BF012001DC018F01EC019F01FC01AF0B0
:101E700020C01BF0020EE7EC0BF0120006C001F0D0
:101E800007C002F008C003F009C004F0000E24EC03
:101E90000CF01200600ED36E000E9B6E000E0F0150
:101EA0003D6F140E876E1200800EC76E080EC66E50
:101EB000000EC56EEF0EC86EC69A1200C5BC63EF69
:101EC0000FF066EF0FF0010E67EF0FF0000E12003B
:101ED000F90ECB6E000ECC6E9E925D0ECA6E120095
:101EE000000183817C517C25D5EC0FF0030E12009C
:101EF00000018381D8807C35D5EC0FF0050E1200EF
:101F000000018393000E826F0E0E12000001839178
:101F1000FAEC0FF0040E120000018393000E826FA2
:101F20000E0E1200196E195069EC0DF0120018C057
:101F300045F019C046F0120018C0D0F019C0D1F019
:101F4000120018C0CCF019C0CDF0120018C0CEF0AD
:101F500019C0CFF0120018C0CAF019C0CBF012009F
:101F600018C03BF019C03CF01200000E94EC0DF0CC
:101F70001200DFEC0FF0090E1200DFEC0FF00A0E7A
:101F80001200DCEC0FF0050E120000EC10F0000E59
:101F9000120002EC10F0010E120002EC10F0020E22
:101FA000120002EC10F0010E1200016E01C0C9FF18
:101FB000120008EC0DF01200C59AC5881200C58AFF
:101FC000C58812009C989C88120095EC0EF01200B7
:101FD000D09E12009D861200C58012009D961200B0
:101FE000C69A12009E9612009E9612009E861200BD
:101FF000C9501200C5861200050E1200010E120013
:0A200000C5841200C5821200120010
:08FFF800ACF7D2FFFFFBBFFBD9
:00000001FF
