:040000009EEF00F07F
:100008004882FACF30F0FBCF31F0D9CF32F0DACFD7
:1000180033F0F3CF34F0F4CF35F0F6CF36F0F7CF36
:1000280037F0F8CF38F0F5CF39F0F2AC1EEF00F02A
:1000380020EF00F088EF00F0A3A825EF00F027EFED
:1000480000F03DEF00F0A4A82CEF00F02EEF00F038
:100058003DEF00F002D83BEF00F00500FA6E455086
:10006800FD6E4650FE6EF850FF6EFA50120088EF93
:1000780000F0A3AA42EF00F044EF00F05BEF00F0BD
:10008800A4AA49EF00F04BEF00F05BEF00F002D8B4
:1000980059EF00F005000001FA6EC951FD6ECA5112
:1000A800FE6EF850FF6EFA50120088EF00F0A0A61E
:1000B80060EF00F062EF00F078EF00F0A1A667EFC4
:1000C80000F069EF00F078EF00F002D876EF00F06A
:1000D8000500FA6E1B50FD6E1C50FE6EF850FF6E48
:1000E800FA50120088EF00F09DA67DEF00F07FEF38
:1000F80000F088EF00F09EA684EF00F086EF00F095
:1001080088EF00F069EF00F039C0F5FF38C0F8FF5C
:1001180037C0F7FF36C0F6FF35C0F4FF34C0F3FF31
:1001280033C0DAFF32C0D9FF31C0FBFF30C0FAFF5D
:080138004892110069EF0CF080
:100F0000001A1AF219E2191810A2110E1A80139C75
:100F10001A941A8C1A841A7C1A741A6C1A021A629D
:100F20001574657374696E670000B3C0D9FFB4C0EF
:100F3000DAFFDECFF6FFDDCFF7FF0800F550250A18
:100F4000D8A4A5EF07F0A7EF07F0F0EF07F0B3C0C4
:100F5000D9FFB4C0DAFFDE2A000EDD22000E146EC7
:100F6000000E136E13C017F014C018F01568166841
:100F7000B3C0D9FFB4C0DAFFDECFF6FFDDCFF7FF95
:100F80000800F550250AD8A4C8EF07F0CAEF07F00B
:100F9000E2EF07F0B3C0D9FFB4C0DAFFDE2A000EDB
:100FA000DD22000E3D6E250E3C6EB1C03EF0B2C09B
:100FB0003FF074EC09F0000E0001B26F010EB16F4A
:100FC0000BEF08F0B3C0D9FFB4C0DAFFDE2A000E81
:100FD000DD22000E0001B26F000EB16F0BEF08F0C2
:100FE000B3C0D9FFB4C0DAFFDECFF6FFDDCFF7FF25
:100FF0000800F5503C6E3D6AB1C03EF0B2C03FF013
:1010000074EC09F0B3C0D9FFB4C0DAFFDE2A000ED9
:10101000DD22DBEF07F01200DFEC0CF00009D8B4A2
:1010200014EF08F016EF08F053EF08F024EF08F083
:101030004EEC0DF06FEF08F04AEC0DF06FEF08F09A
:1010400042EC0DF06FEF08F072C02CF073C02DF081
:1010500020EE66F002D837EF08F00500FA6EDE5099
:10106000FD6EDE50FE6EF850FF6EFA5012002E6ECE
:101070002F6A2F50000AD8B440EF08F020EF08F094
:101080002E50010AD8B420EF08F0030AD8B418EFA4
:1010900008F0010AD8B41CEF08F0070AD8B420EF12
:1010A00008F020EF08F0000183917DC0D9FF7EC0D9
:1010B000DAFF7D4B7E2BDF5052EC0DF000017F07F5
:1010C000D8A080077F518011D8A469EF08F06BEF9A
:1010D00008F06EEF08F0060E6FEF08F0030E120036
:1010E000010E2024D96EDA6A000EDA22000EDF6EBD
:1010F0009CA47DEF08F07FEF08F094EF08F0010E5C
:101100002024D96EDA6A000EDA22DF8202D894EF48
:1011100008F005000001FA6EC751FD6EC851FE6E61
:10112000F850FF6EFA5012009CA299EF08F09BEF66
:1011300008F0B0EF08F0010E2024D96EDA6A000E34
:10114000DA22DF8402D8B0EF08F005000001FA6E61
:10115000C551FD6EC651FE6EF850FF6EFA5012007A
:10116000010E2024D96EDA6A000EDA22DF50D8B4DC
:10117000BCEF08F0BEEF08F0CEEF08F002D8CCEFDD
:1011800008F005000001FA6EC351FD6EC451FE6EF9
:10119000F850FF6EFA501200D0EF08F040EC0CF05F
:1011A00012006FEC0DF07DC0D9FF7EC0DAFFDF6E5C
:1011B00000017D4B7E2B7F07D8A080077F518011D7
:1011C000D8B4E5EF08F0E7EF08F0ECEF08F059ECE1
:1011D0000DF0050E24EF09F08387F7EF08F036ECE9
:1011E0000DF024EF09F03AEC0DF024EF09F06CC09B
:1011F0002CF06DC02DF002D808EF09F00500FA6E52
:101200006051FD6E6151FE6EF850FF6EFA50120093
:101210002E6E2F6A2F50000AD8B411EF09F0F3EFA9
:1012200008F02E50010AD8B4F3EF08F0030AD8B43E
:10123000EFEF08F0010AD8B4EFEF08F0070AD8B4CE
:10124000F3EF08F0F3EF08F012003C6E010E3D6E74
:10125000000183B52EEF09F030EF09F072EF09F0CD
:101260003CC07CF08393838583910E0E816F010EC9
:101270007B6FF40E7A6F8387EA0E606F1A0E616FD0
:10128000000E6C6F000E6D6FEA0E626F1A0E636FC8
:10129000000E6E6F000E6F6FEA0E646F1A0E656FB0
:1012A000000E706F000E716FEA0E666F1A0E676F98
:1012B000000E726F000E736FE60E686F1A0E696F84
:1012C000000E746F000E756FAC0E3A6E1A0E3B6E08
:1012D00031EC0DF069EC0DF09FEC0CF067EC0DF0CB
:1012E000000E3D6E3D5012003E503F10D8B47BEFD3
:1012F00009F07DEF09F086EF09F03E503F10D8A4C9
:1013000084EF09F086EF09F08BEF09F03C5013EC05
:101310000DF0BFEF09F020EE09F03E50D9263F5006
:10132000DA22DE50DE10D8B498EF09F09AEF09F017
:10133000B6EF09F020EE09F03E50D9263F50DA22F0
:1013400010EE03F03E50E1263F50E222DE50E65C14
:10135000E650800A0001B06FDE50800AB059D8B064
:10136000B4EF09F0B6EF09F0BFEF09F020EE03F09B
:101370003E50D9263F50DA22DE2A000EDD2212002E
:1013800000018387D1EF09F046EC0DF0FEEF09F084
:101390006DEC0DF0030EFEEF09F042EC0DF0FEEFE8
:1013A00009F06CC02CF06DC02DF002D8E2EF09F00E
:1013B0000500FA6E6051FD6E6151FE6EF850FF6ED1
:1013C000FA5012002E6E2F6A2F50000AD8B4EBEF9D
:1013D00009F0CDEF09F02E50010AD8B4CDEF09F095
:1013E000030AD8B4C4EF09F0010AD8B4C4EF09F075
:1013F000070AD8B4C8EF09F0CDEF09F01200276E44
:1014000023502410D8B407EF0AF009EF0AF023EFB5
:101410000AF02750020D600EF324D96E000EF4205E
:10142000DA6E23C0DEFF24C0DDFF2750020D6C0EF4
:10143000F324D96E000EF420DA6E25C0DEFF26C03C
:10144000DDFF3BEF0AF02750020D600EF324D96E4A
:10145000000EF420DA6EEA0EDE6E1A0EDD6E2750F4
:10146000020D6C0EF324D96E000EF420DA6E000E1D
:10147000DE6E000EDD6E12008EEC0CF0F28EF28C41
:10148000898E898C8B90410E426E899C040E0001DE
:10149000C26F0C0EC16F330EE82EFED7C12FFCD7E2
:1014A000C22FFAD700D0898C040E0001C26F0C0E37
:1014B000C16F330EE82EFED7C12FFCD7C22FFAD74B
:1014C00000D0210E0001BD6F0F0EBE6F55EC0CF069
:1014D000660E25EC09F00009D8B471EF0AF073EF3D
:1014E0000AF068EF0AF045EF0AF09EEF00F0A39AC9
:1014F000E00E3A6E100E3B6E1DEC0DF0A3982A0E16
:101500003A6E170E3B6E18EC0DF0080E7C6E900EC6
:101510009C6E240EA86E0F0EAB6E270E7D6EF60E1F
:101520003A6E1A0E3B6E27EC0DF0BE0E3A6E1A0E96
:101530003B6E22EC0DF0C40E3A6E1A0E3B6E2CEC94
:101540000DF0000E1D6E000E226E000E216E080EB4
:10155000476E000E206E000E1F6E000E1E6EA38AD8
:10156000120000018391020E826FBFEF0AF046EC79
:101570000DF0E6EF0AF042EC0DF0E6EF0AF070C075
:101580002CF071C02DF020EE64F002D8D2EF0AF0FA
:101590000500FA6EDE50FD6EDE50FE6EF850FF6EF6
:1015A000FA5012002E6E2F6A2F50000AD8B4DBEFCB
:1015B0000AF0BBEF0AF02E50020AD8B4B7EF0AF0D7
:1015C000010AD8B4B7EF0AF0BBEF0AF012006BECD7
:1015D0000DF0000183A1EFEF0AF0F1EF0AF0FEEF4A
:1015E0000AF0DFEC0CF00009D8B4F9EF0AF0FBEFD9
:1015F0000AF0FEEF0AF00F0E0001816F0001815129
:10160000020D010EF324F66E0F0EF420F76E02D8D1
:1016100016EF0BF00500FA6E0900F550FD6E09009B
:10162000F550FE6EF850FF6EFA5012000001816F07
:101630001200B9C040F0BAC041F0000E126E000EA8
:10164000116E37EF0BF0B7C0B1F0B8C0B2F0400E7A
:101650000001B36F000EB46FBBC0B5F0BCC0B6F0F4
:1016600095EC07F00001B1511126B251122240C091
:10167000F6FF41C0F7FF0800F5500009D8A443EF7A
:101680000BF045EF0BF023EF0BF011C0B7F012C0D9
:10169000B8F012003A6E4750D8B451EF0BF053EF48
:1016A0000BF04BEF0BF0A3B858EF0BF05AEF0BF029
:1016B0005EEF0BF03AC0A9FF73EF0BF0A398090E91
:1016C0002224D96EDA6A000EDA223AC0DFFF222A1B
:1016D000070E22646EEF0BF070EF0BF072EF0BF061
:1016E000000E226E4706A388120020EE02F02C5056
:1016F000D9262D50DA22DECF23F0DDCF24F02CC006
:10170000D9FF2DC0DAFFDECF25F0DDCF26F07CEC4F
:101710000CF0000E286E000E296E000E2A6E000ED0
:101720002B6EBFEC0CF0020E1200080E47609BEF10
:101730000BF09DEF0BF0B3EF0BF0090E2124D96EE7
:10174000DA6A000EDA22DF50A96E212A070E216420
:10175000ACEF0BF0AEEF0BF0B0EF0BF0000E216E24
:10176000472AB4EF0BF0A3981200000E896E000E0A
:101770008A6E000E8B6E2F0E926EF70E936EC40E55
:10178000946E000E0F01486F0F0E496FF18E000E20
:10179000426F000E416F000E406F050E0E01F76F95
:1017A000060EC66F12002CC023F02DC024F0000ED0
:1017B000266E010E256E7CEC0CF0000E286E000EDD
:1017C000296E000E2A6E000E2B6EBFEC0CF0040E7C
:1017D00012002CC023F02DC024F0000E266E020E45
:1017E000256E7CEC0CF0000E286E000E296E000EAB
:1017F0002A6E000E2B6EBFEC0CF0020E12002CC0F5
:1018000023F02DC024F0000E266E010E256E7CEC18
:101810000CF0000E286E000E296E000E2A6E000ECF
:101820002B6EBFEC0CF0020E12002CC023F02DC06A
:1018300024F0000E266E020E256E7CEC0CF0000EDD
:10184000286E000E296E000E2A6E000E2B6EBFEC65
:101850000CF0040E1200000E9A6ED10ECF6E200E08
:10186000CE6E9E90CE50CFCF3AF03B6A3AC03BF05E
:101870003A6A3A10436E3B50446E010ECD6E120030
:10188000A40E2024D96EDA6A000EDA22AACFDFFF76
:10189000202A070E20644FEF0CF051EF0CF053EFAD
:1018A0000CF0000E206E1E2A1200BF0E0001BF6F4A
:1018B000000EC06F000EB76F000EB86FBDC0B9F05C
:1018C000BEC0BAF0BF0EBB6F000EBC6F19EC0BF0C0
:1018D000120000EE60F04C0EEE6AE806FDE100EE4C
:1018E00001F0220EEE6AE806FDE148904892000EF3
:1018F000F86E00013CEF0AF0000183A782EF0CF0C4
:1019000084EF0CF08DEF0CF023C07DF024C07EF04E
:1019100025C07FF026C080F08397120065EC0DF0A3
:10192000D5EC0CF0B5EC0BF0CBEC0CF0B0EC0CF013
:10193000E9EC0CF02BEC0CF077EC0AF01200C6BAD4
:10194000A4EF0CF0A6EF0CF0AFEF0CF0800EC76E1A
:10195000080EC66E000EC56EEF0EC86EC68A120067
:10196000010EC16E020E0E01B86F000E0F01496F1D
:10197000000EC36E000EC46E010EC26E120028C0AF
:1019800023F029C024F02AC025F02BC026F0000E39
:10199000FFEC09F01200600ED36E000E9B6E000E7D
:1019A0000F013D6F140E876E1200800EC76E080E79
:1019B000C66E000EC56EEF0EC86EC69A1200C5BC8C
:1019C000E4EF0CF0E7EF0CF0010EE8EF0CF0000E86
:1019D0001200F90ECB6E000ECC6E9E925D0ECA6E9A
:1019E0001200000183817C517C2552EC0DF0030E26
:1019F000120000018381D8807C3552EC0DF0050E79
:101A0000120000018393000E826F0E0E120000017F
:101A1000839171EC0DF0040E120000018393000E0F
:101A2000826F0E0E12003B6E3B504AEC0BF0120020
:101A30003AC045F03BC046F012003AC0C9F03BC086
:101A4000CAF012003AC0C5F03BC0C6F012003AC05E
:101A5000C7F03BC0C8F012003AC0C3F03BC0C4F0AE
:101A600012003AC01BF03BC01CF012005CEC0DF001
:101A7000090E12005CEC0DF00A0E120059EC0DF08C
:101A8000050E120077EC0DF0000E120079EC0DF04F
:101A9000010E120079EC0DF0020E120079EC0DF03F
:101AA000010E1200236E23C0C9FF1200E7EC0AF0FA
:101AB0001200C59AC5881200C58AC58812009C9874
:101AC0009C88120040EC0CF01200D09E12009D8603
:101AD00012009E9612009E9612009E861200C95019
:101AE0001200C5861200050E1200010E1200C584F8
:081AF0001200C5821200120071
:08FFF800ACF7D2FFFFFBBFFBD9
:00000001FF
