:040000009FEF00F07E
:100008004882FACF0EF0FBCF0FF0D9CF10F0DACF3D
:1000180011F0F3CF12F0F4CF13F0F6CF14F0F7CFBE
:1000280015F0F8CF16F0F5CF17F0F2AC1EEF00F090
:1000380020EF00F089EF00F0A3A825EF00F027EFEC
:1000480000F03EEF00F0A4A82CEF00F02EEF00F037
:100058003EEF00F002D83CEF00F005000001FA6E18
:10006800FE51FD6EFF51FE6EF850FF6EFA50120001
:1000780089EF00F0A3AA43EF00F045EF00F05CEF32
:1000880000F0A4AA4AEF00F04CEF00F05CEF00F09B
:1000980002D85AEF00F005000001FA6EFC51FD6E1F
:1000A800FD51FE6EF850FF6EFA50120089EF00F015
:1000B800A0A661EF00F063EF00F079EF00F0A1A6D1
:1000C80068EF00F06AEF00F079EF00F002D877EF00
:1000D80000F00500FA6E3950FD6E3A50FE6EF85089
:1000E800FF6EFA50120089EF00F09DA67EEF00F037
:1000F80080EF00F089EF00F09EA685EF00F087EF13
:1001080000F089EF00F06AEF00F017C0F5FF16C0A5
:10011800F8FF15C0F7FF14C0F6FF13C0F4FF12C0B4
:10012800F3FF11C0DAFF10C0D9FF0FC0FBFF0EC0EC
:0A013800FAFF48921100DCEF0EF010
:100F000000D821B021A02182170C19CC214A1A50F7
:100F100022482240223822302228222022C021309A
:100F20001C56616C7565203D202564200D0A00006B
:100F3000CAC0E2F0CBC0E3F0CCC0E4F0CDC0E5F035
:100F4000CEC0E6F0CFC0E7F0D0C0E8F0D1C0E9F005
:100F50000001E9BFAEEF07F0B1EF07F0010EB2EF0D
:100F600007F0000EE06FE16BE051E111D8B4BBEF88
:100F700007F0BDEF07F0CDEF07F0E91FE81FE71F0F
:100F8000E61FE51FE41FE31FE26D000EE323E423E9
:100F9000E523E623E723E823E92334BED2EF07F075
:100FA000D4EF07F0D5EF07F0359234BEE2EF07F04B
:100FB000345006E13304D8B0E0EF07F0E2EF07F079
:100FC000E8EF07F0000EDD6F010EDC6FECEF07F0CD
:100FD00033C0DCF034C0DDF031C0DEF032C0DFF011
:100FE000E051E111D8A4F7EF07F0F9EF07F000EFB7
:100FF00008F035A4FEEF07F000EF08F003EF08F06B
:10100000DE07D8A0DF07000EEB6F1F0EEA6F000EA1
:10101000BD6F88EF08F0EA07D8A0EB079E0EEA251F
:10102000D96E000EEB21DA6EE2C018F0E3C019F0C1
:10103000E4C01AF0E5C01BF0E6C01CF0E7C01DF0EC
:10104000E8C01EF0E9C01FF00A0E206E000E216EEF
:10105000000E226E000E236E000E246E000E256E12
:10106000000E266E000E276EAAEC0AF018C0D2F011
:1010700019C0D3F01AC0D4F01BC0D5F01CC0D6F0F4
:101080001DC0D7F01EC0D8F01FC0D9F0D2C02AF0C2
:10109000D4C02BF021EC0FF02A50300FDF6E00018E
:1010A000DC07D8A0DD07DE07D8A0DF07E2C018F014
:1010B000E3C019F0E4C01AF0E5C01BF0E6C01CF074
:1010C000E7C01DF0E8C01EF0E9C01FF00A0E206E58
:1010D000000E216E000E226E000E236E000E246E96
:1010E000000E256E000E266E000E276EE5EC09F050
:1010F00018C0E2F019C0E3F01AC0E4F01BC0E5F03C
:101100001CC0E6F01DC0E7F01EC0E8F01FC0E9F00B
:101110000001EBBF94EF08F0EB5108E1EA05D8A01D
:1011200094EF08F096EF08F0C6EF08F0E251E311F3
:10113000E411E511E611E711E811E911D8A4A3EFD4
:1011400008F0A5EF08F00BEF08F0DDBFB2EF08F0F4
:10115000DD5106E1DC05D8B0B0EF08F0B2EF08F0E1
:101160000BEF08F0DFBFBDEF08F0DF5108E1DE054F
:10117000D8A0BDEF08F0BFEF08F0C6EF08F035B219
:10118000C4EF08F0C6EF08F00BEF08F0E051E111F2
:10119000D8A4CDEF08F0CFEF08F0D6EF08F035A4D3
:1011A000D4EF08F0D6EF08F0F4EF08F0EA07D8A083
:1011B000EB07E051E111D8A4E0EF08F0E2EF08F00E
:1011C000E8EF08F0000EDB6F2B0EDA6FECEF08F0A3
:1011D000000EDB6F2D0EDA6F9E0EEA25D96E000E23
:1011E000EB21DA6EDAC0DFFFC8C02AF0C9C02BF0ED
:1011F0009E0EEA252C6E000EEB212D6EDEC02EF029
:10120000DFC02FF05CEC0BF02AC0C8F02BC0C9F097
:101210001200EEC0D9FFEFC0DAFFDECFF6FFDDCF60
:10122000F7FF0800F550250AD8A419EF09F01BEFC5
:1012300009F0C9EF09F0EEC0D9FFEFC0DAFFDE2AEE
:10124000000EDD22000E326E000E316E31C035F020
:1012500032C036F033683468EEC0D9FFEFC0DAFF31
:10126000DECFF6FFDDCFF7FF0800F550640AD8B4F3
:101270003CEF09F03EEF09F050EF09F0EEC0D9FF66
:10128000EFC0DAFFDECFF6FFDDCFF7FF0800F55045
:10129000690AD8A44EEF09F050EF09F091EF09F078
:1012A000EEC0D9FFEFC0DAFFDE2A000EDD22F0C06B
:1012B000D9FFF1C0DAFFDFCFF2F0020EDE26DFCF7A
:1012C000F3F0000EDD22F2C0D9FFF3C0DAFFDECF6B
:1012D00000F1DDCF01F10101000E01BFFF0E026F31
:1012E000036F046F056F066F076FECC0C8F0EDC0A9
:1012F000C9F000C1CAF001C1CBF002C1CCF003C1FA
:10130000CDF004C1CEF005C1CFF006C1D0F007C1C9
:10131000D1F098EC07F0C8C0ECF0C9C0EDF0E4EFF4
:1013200009F0EEC0D9FFEFC0DAFFDECFF6FFDDCF68
:10133000F7FF0800F550250AD8A4A1EF09F0A3EFA4
:1013400009F0BBEF09F0EEC0D9FFEFC0DAFFDE2AEB
:10135000000EDD22000E1B6E250E1A6EECC01CF076
:10136000EDC01DF0DAEC0CF0000E0001ED6F010E87
:10137000EC6FE4EF09F0EEC0D9FFEFC0DAFFDE2A30
:10138000000EDD22000E0001ED6F000EEC6FE4EFA9
:1013900009F0EEC0D9FFEFC0DAFFDECFF6FFDDCFF8
:1013A000F7FF0800F5501A6E1B6AECC01CF0EDC088
:1013B0001DF0DAEC0CF0EEC0D9FFEFC0DAFFDE2A48
:1013C000000EDD22B4EF09F01200000E0001BF6F25
:1013D00027BEEFEF09F0EDEF09F001EF0AF0271E4D
:1013E000261E251E241E231E221E211E206C000EDA
:1013F0002122222223222422252226222722010EF4
:10140000BF6F1FBE08EF0AF006EF0AF01AEF0AF0EE
:101410001F1E1E1E1D1E1C1E1B1E1A1E191E186CB2
:10142000000E19221A221B221C221D221E221F22FC
:10143000010EBF1B20EEC0F0070EDE6AE806FDE2DB
:1014400020502110221023102410251026102710C0
:10145000D8B42DEF0AF02FEF0AF081EF0AF0010E59
:10146000BE6F3DEF0AF0D890203621362236233663
:101470002436253626362736BE2B27AE42EF0AF015
:1014800044EF0AF033EF0AF0D890C037C137C237C3
:10149000C337C437C537C637C7372050185C21500B
:1014A000195822501A5823501B5824501C582550A4
:1014B0001D5826501E5827501F58D8A062EF0AF01A
:1014C00064EF0AF075EF0AF02050185E2150195AA7
:1014D00022501A5A23501B5A24501C5A25501D5A68
:1014E00026501E5A27501F5AC081D89027322632C4
:1014F000253224322332223221322032BE2F44EFD1
:101500000AF0BF51D8B487EF0AF089EF0AF099EFDB
:101510000AF0C71FC61FC51FC41FC31FC21FC11F9C
:10152000C06D000EC123C223C323C423C523C62319
:10153000C723C0C018F0C1C019F0C2C01AF0C3C0A0
:101540001BF0C4C01CF0C5C01DF0C6C01EF0C7C053
:101550001FF01200000E296E1FBEB3EF0AF0B1EFAC
:101560000AF0C5EF0AF01F1E1E1E1D1E1C1E1B1EAC
:101570001A1E191E186C000E19221A221B221C2278
:101580001D221E221F22010E296E27BECCEF0AF05B
:10159000CAEF0AF0DCEF0AF0271E261E251E241EC5
:1015A000231E221E211E206C000E21222222232215
:1015B0002422252226222722205021102210231007
:1015C0002410251026102710D8B4E9EF0AF0EBEF0D
:1015D0000AF033EF0BF0010E286EF9EF0AF0D89005
:1015E000203621362236233624362536263627362F
:1015F000282A27AEFEEF0AF000EF0BF0EFEF0AF01B
:101600002050185C2150195822501A5823501B584A
:1016100024501C5825501D5826501E5827501F581E
:10162000D8A015EF0BF017EF0BF027EF0BF02050C1
:10163000185E2150195A22501A5A23501B5A24500E
:101640001C5A25501D5A26501E5A27501F5AD890F2
:1016500027322632253224322332223221322032DE
:10166000282E00EF0BF02950D8B439EF0BF03BEFE8
:101670000BF04BEF0BF01F1E1E1E1D1E1C1E1B1E13
:101680001A1E191E186C000E19221A221B221C2267
:101690001D221E221F2218C018F019C019F01AC0EE
:1016A0001AF01BC01BF01CC01CF01DC01DF01EC09A
:1016B0001EF01FC01FF0120035A061EF0BF063EFAA
:1016C0000BF06DEF0BF02CC023F02DC024F02AC0DE
:1016D00025F02BC026F0FFEC0EF02FBE72EF0BF0C2
:1016E00074EF0BF07AEF0BF02EC0C0F02FC0C1F0FA
:1016F0007FEF0BF0000E0001C16F000EC06F000EF7
:101700000001BF6F000EBE6F93EF0BF0000E1B6E5B
:10171000200E1A6E2AC01CF02BC01DF0DAEC0CF063
:101720000001BE4BBF2BC051BE5DBF51800A306E61
:10173000C151800A3058D8A0A0EF0BF0A2EF0BF0F7
:1017400086EF0BF035B0A7EF0BF0A9EF0BF0B3EF7E
:101750000BF02CC023F02DC024F02AC025F02BC0A4
:1017600026F0FFEC0EF02CC018F02DC019F0BBECE9
:101770000FF00001C05118242A6EC15119202B6EA0
:101780001200BEEC10F00009D8B4C9EF0BF0CBEF9B
:101790000BF008EF0CF0D9EF0BF028EC11F024EF70
:1017A0000CF024EC11F024EF0CF01CEC11F024EF01
:1017B0000CF072C00AF073C00BF020EE66F002D895
:1017C000ECEF0BF00500FA6EDE50FD6EDE50FE6EA3
:1017D000F850FF6EFA5012000C6E0D6A0D50000AA0
:1017E000D8B4F5EF0BF0D5EF0BF00C50010AD8B4DC
:1017F000D5EF0BF0030AD8B4CDEF0BF0010AD8B443
:10180000D1EF0BF0070AD8B4D5EF0BF0D5EF0BF002
:10181000000183917DC0D9FF7EC0DAFF7D4B7E2B16
:10182000DF502CEC11F000017F07D8A080077F511A
:101830008011D8A41EEF0CF020EF0CF023EF0CF079
:10184000060E24EF0CF0030E1200840E3E24D96E17
:10185000DA6A000EDA22000EDF6E9CA432EF0CF082
:1018600034EF0CF049EF0CF0840E3E24D96EDA6AA6
:10187000000EDA220001DF8202D849EF0CF00500E9
:10188000FA6EFA51FD6EFB51FE6EF850FF6EFA5083
:1018900012009CA24EEF0CF050EF0CF065EF0CF034
:1018A000840E3E24D96EDA6A000EDA220001DF844B
:1018B00002D865EF0CF00500FA6EF851FD6EF95193
:1018C000FE6EF850FF6EFA501200840E3E24D96E60
:1018D000DA6A000EDA22DF50D8B471EF0CF073EF41
:1018E0000CF083EF0CF002D881EF0CF00500000142
:1018F000FA6EF651FD6EF751FE6EF850FF6EFA501B
:10190000120085EF0CF043EC10F0120047EC11F0E0
:101910007DC0D9FF7EC0DAFFDF6E00017D4B7E2BDC
:101920007F07D8A080077F518011D8B49AEF0CF0C0
:101930009CEF0CF0A1EF0CF033EC11F0050ED9EF99
:101940000CF08387ACEF0CF010EC11F0D9EF0CF039
:1019500014EC11F0D9EF0CF06CC00AF06DC00BF074
:1019600002D8BDEF0CF00500FA6E6051FD6E6151BA
:10197000FE6EF850FF6EFA5012000C6E0D6A0D509C
:10198000000AD8B4C6EF0CF0A8EF0CF00C50010A16
:10199000D8B4A8EF0CF0030AD8B4A4EF0CF0010AF5
:1019A000D8B4A4EF0CF0070AD8B4A8EF0CF0A8EF55
:1019B0000CF012001C501D10D8B4E1EF0CF0E3EF56
:1019C0000CF0ECEF0CF01C501D10D8A4EAEF0CF05A
:1019D000ECEF0CF0F1EF0CF01A50F2EC10F024EFF9
:1019E0000DF020EE09F01C50D9261D50DA22DE50F1
:1019F000DE10D8B4FEEF0CF000EF0DF01BEF0DF091
:101A000020EE09F01C50D9261D50DA2210EE03F00A
:101A10001C50E1261D50E222DE50E65CE650800AB2
:101A2000226EDE50800A2258D8B019EF0DF01BEF5D
:101A30000DF024EF0DF020EE03F01C50D9261D50C0
:101A4000DA22DE2A000EDD2212000001838736EF43
:101A50000DF020EC11F063EF0DF045EC11F0030EEA
:101A600063EF0DF01CEC11F063EF0DF06CC00AF0A9
:101A70006DC00BF002D847EF0DF00500FA6E605113
:101A8000FD6E6151FE6EF850FF6EFA5012000C6E42
:101A90000D6A0D50000AD8B450EF0DF032EF0DF082
:101AA0000C50010AD8B432EF0DF0030AD8B429EF74
:101AB0000DF0010AD8B429EF0DF0070AD8B42DEFC4
:101AC0000DF032EF0DF012007EEC10F0F28EF28C81
:101AD000898E898C8B908B80010E9EEC0FF018C044
:101AE00017F119C018F10101196B1A6B1A5119116C
:101AF00009E17D0E185DD8A080EF0DF082EF0DF0AA
:101B000085EF0DF0899E86EF0DF0898E210E0E6F08
:101B10000F0E0F6F17C110F118C111F119C112F199
:101B20001AC113F158EC10F0100E0101166F940E4B
:101B3000E82EFED7162FFCD700F06CEF0DF09FEFCC
:101B400000F0056E01500210D8B4A9EF0DF0ABEF14
:101B50000DF0C5EF0DF00550020D600EF324D96EA7
:101B6000000EF420DA6E01C0DEFF02C0DDFF05507A
:101B7000020D6C0EF324D96E000EF420DA6E03C051
:101B8000DEFF04C0DDFFDDEF0DF00550020D600E3D
:101B9000F324D96E000EF420DA6E9A0EDE6E220E59
:101BA000DD6E0550020D6C0EF324D96E000EF4208C
:101BB000DA6E000EDE6E000EDD6E1200A39A4A0E83
:101BC000186E180E196EFCEC10F0A398C20E186E69
:101BD0001E0E196EF7EC10F0080E7C6E900E9C6EC7
:101BE000240EA86EE10EAB6E040E7D6EA60E186E6E
:101BF000220E196E06EC11F0720E186E220E196E7E
:101C000001EC11F0780E186E220E196E0BEC11F02B
:101C1000000E3B6E000E406E000E3F6E080E476ECB
:101C2000000E3E6E000E3D6E000E3C6EA38A12004A
:101C300000018391020E826F26EF0EF020EC11F06E
:101C40004DEF0EF01CEC11F04DEF0EF070C00AF0ED
:101C500071C00BF020EE64F002D839EF0EF00500F1
:101C6000FA6EDE50FD6EDE50FE6EF850FF6EFA50DA
:101C700012000C6E0D6A0D50000AD8B442EF0EF03F
:101C800022EF0EF00C50020AD8B41EEF0EF0010A3B
:101C9000D8B41EEF0EF022EF0EF0120043EC11F05C
:101CA000000183A156EF0EF058EF0EF065EF0EF035
:101CB000BEEC10F00009D8B460EF0EF062EF0EF049
:101CC00065EF0EF00F0E0001816F00018151020DD2
:101CD000010EF324F66E0F0EF420F76E02D87DEF9E
:101CE0000EF00500FA6E0900F550FD6E0900F55082
:101CF000FE6EF850FF6EFA5012000001816F120064
:101D00000AC1F4F00BC1F5F0000E00019D6F000E4A
:101D10009C6F9EEF0EF008C1ECF009C1EDF0F40EDF
:101D2000EE6F000EEF6F0CC1F0F00DC1F1F009EC99
:101D300009F00001EC519C27ED519D23F4C0F6FF02
:101D4000F5C0F7FF0800F5500009D8A4AAEF0EF07F
:101D5000ACEF0EF08BEF0EF09CC008F19DC009F1C6
:101D60001200186E4750D8B4B8EF0EF0BAEF0EF06C
:101D7000B2EF0EF0A3B8BFEF0EF0C1EF0EF0C5EF5B
:101D80000EF018C0A9FFDAEF0EF0A398940E4024CD
:101D9000D96EDA6A000EDA2218C0DFFF402A070E79
:101DA0004064D5EF0EF0D7EF0EF0D9EF0EF0000E35
:101DB000406E4706A38812007E0EF66E220EF76E66
:101DC000000EF86E00EE41F010EE04F00900F5CFC1
:101DD000EEFFE550E150FAE100EE60F05E0EEE6AD3
:101DE000E806FDE100EE31F0100EEE6AE806FDE1D6
:101DF00048904892000EF86E000164EF0DF0000E5E
:101E0000296E000E286E10EF0FF027C01AF01B6A23
:101E100025C01CF026C01DF0DAEC0CF0284A292A57
:101E200028502324D96E29502420DA6EDF50276EE3
:101E30002750D8A41EEF0FF020EF0FF005EF0FF0A2
:101E400012002BBE2EEF0FF02B5006E12A04D8B063
:101E50002CEF0FF02EEF0FF03CEF0FF02AC02CF01C
:101E60002BC02DF02C1E2D1E2C4A2D2A2CC02AF002
:101E70002DC02BF040EF0FF02AC02AF02BC02BF022
:101E8000120020EE02F00A50D9260B50DA22DECFE3
:101E900001F0DDCF02F00AC0D9FF0BC0DAFFDECFC0
:101EA00003F0DDCF04F06CEC10F0000E066E000EB7
:101EB000076E000E086E000E096E9EEC10F0020E0A
:101EC0001200080E476067EF0FF069EF0FF07FEF29
:101ED0000FF0940E3F24D96EDA6A000EDA22DF503A
:101EE000A96E3F2A070E3F6478EF0FF07AEF0FF0EC
:101EF0007CEF0FF0000E3F6E472A80EF0FF0A398A3
:101F00001200000E896E000E8A6E000E8B6E2F0E70
:101F1000926E9368840E946E000E0F01486F0E0E41
:101F2000496FF18E000E426F000E416F000E406F40
:101F3000120E0E01F76F060ED16F12001C6E1CC040
:101F40001AF01A461A46C2501A18C30B1A18C26E53
:101F5000C280C282C2B2AFEF0FF0B1EF0FF0AAEFB2
:101F60000FF0C4501B6E1A6AC3501A24186E000E6C
:101F70001B20196E120018C01AF019C01BF0C3EF15
:101F80000FF0184A192A18C0D9FF19C0DAFFDF501C
:101F9000D8A4CDEF0FF0CFEF0FF0C1EF0FF01A5034
:101FA000185C186E1B501958196E12000AC001F007
:101FB0000BC002F0000E046E010E036E6CEC10F00C
:101FC000000E066E000E076E000E086E000E096E03
:101FD0009EEC10F0040E12000AC001F00BC002F0DB
:101FE000000E046E020E036E6CEC10F0000E066E16
:101FF000000E076E000E086E000E096E9EEC10F0CB
:10200000020E12000AC001F00BC002F0000E046EB6
:10201000010E036E6CEC10F0000E066E000E076EE3
:10202000000E086E000E096E9EEC10F0020E1200FB
:102030000AC001F00BC002F0000E046E020E036E27
:102040006CEC10F0000E066E000E076E000E086EAF
:10205000000E096E9EEC10F0040E1200000E9A6E37
:10206000D10ECF6E200ECE6E9E90CE50CFCF18F0F8
:10207000196A18C019F0186A1810456E1950466E82
:10208000010ECD6E12008C0E3E24D96EDA6A000E5F
:10209000DA22AACFDFFF3E2A070E3E6452EF10F08D
:1020A00054EF10F056EF10F0000E3E6E3C2A120076
:1020B000100E0101146F010E156F000E086F000E57
:1020C000096F0EC10AF10FC10BF1140E0C6F010E56
:1020D0000D6F80EC0EF01200000183A772EF10F07C
:1020E00074EF10F07DEF10F001C07DF002C07EF0C3
:1020F00003C07FF004C080F08397120041EC11F020
:10210000B4EC10F081EC0FF0AAEC10F08FEC10F0B2
:10211000C8EC10F02EEC10F0DEEC0DF01200010E09
:10212000C16E020E0E01B86F000E0F01496F000E56
:10213000C36E000EC46E010EC26E120006C001F026
:1021400007C002F008C003F009C004F0000EA1ECC3
:102150000DF01200600ED36E000E9B6E000E0F018C
:102160003D6F140E876E1200800EC76E080EC66E8D
:10217000000EC56EEF0EC86EC69A1200C5BCC3EF46
:1021800010F0C6EF10F0010EC7EF10F0000E1200B5
:10219000F90ECB6E000ECC6E9E925D0ECA6E1200D2
:1021A000000183817C517C252CEC11F0030E120080
:1021B00000018381D8807C352CEC11F0050E1200D3
:1021C00000018393000E826F0E0E120000018391B6
:1021D00049EC11F0040E120000018393000E826F8F
:1021E0000E0E1200196E1950B1EC0EF0120018C04C
:1021F000FEF019C0FFF0120018C0FCF019C0FDF08D
:10220000120018C0F8F019C0F9F0120018C0FAF066
:1022100019C0FBF0120018C0F6F019C0F7F0120058
:1022200036EC11F0090E120036EC11F00A0E120015
:1022300033EC11F0050E12004FEC11F0000E1200FD
:1022400051EC11F0010E120051EC11F0020E1200CF
:1022500051EC11F0010E1200016E01C0C9FF120015
:102260004EEC0EF01200C59AC5881200C58AC588CA
:1022700012009C989C88120043EC10F012000000A1
:10228000803FD09E12009E9612009E861200C9507A
:102290001200C5861200050E1200010E1200C58440
:0822A0001200C58212001200B9
:08FFF800ACF7D2FFFFFBBFFBD9
:00000001FF
