:040000009FEF00F07E
:100008004882FACF33F0FBCF34F0D9CF35F0DACFCE
:1000180036F0F3CF37F0F4CF38F0F6CF39F0F7CF2A
:100028003AF0F8CF3BF0F5CF3CF0F2AC1EEF00F021
:1000380020EF00F089EF00F0A3A825EF00F027EFEC
:1000480000F03EEF00F0A4A82CEF00F02EEF00F037
:100058003EEF00F002D83CEF00F005000001FA6E18
:10006800CB51FD6ECC51FE6EF850FF6EFA50120067
:1000780089EF00F0A3AA43EF00F045EF00F05CEF32
:1000880000F0A4AA4AEF00F04CEF00F05CEF00F09B
:1000980002D85AEF00F005000001FA6EC951FD6E52
:1000A800CA51FE6EF850FF6EFA50120089EF00F048
:1000B800A0A661EF00F063EF00F079EF00F0A1A6D1
:1000C80068EF00F06AEF00F079EF00F002D877EF00
:1000D80000F00500FA6E1B50FD6E1C50FE6EF850C5
:1000E800FF6EFA50120089EF00F09DA67EEF00F037
:1000F80080EF00F089EF00F09EA685EF00F087EF13
:1001080000F089EF00F06AEF00F03CC0F5FF3BC05B
:10011800F8FF3AC0F7FF39C0F6FF38C0F4FF37C020
:10012800F3FF36C0DAFF35C0D9FF34C0FBFF33C058
:0A013800FAFF48921100D7EF0DF016
:100F0000004A1D221D121DEC1176133E1D5415D4EE
:100F10001DCC1DC41DBC1DB41DAC1DA41D321DACBB
:100F20001754657374696E670D0A00001FEC0EF0AC
:100F3000F28EF28C898E898C8B90899C070E000131
:100F4000C26F170EC16F6A0EE82EFED7C12FFCD7F5
:100F5000C22FFAD700F0898C070E0001C26F170E5E
:100F6000C16F6A0EE82EFED7C12FFCD7C22FFAD769
:100F700000F0210E0001BD6F0F0EBE6FC3EC0DF02F
:100F8000000E0001B06F000EB16F120E8FEC08F072
:100F90001F0E0001C26F710EC16F1E0EE82EFED72C
:100FA000C12FFCD7C22FFAD700F0120E0001B06F8C
:100FB000000EB16F000E8FEC08F01F0E0001C26F23
:100FC000710EC16F1E0EE82EFED7C12FFCD7C22FA7
:100FD000FAD700F0000E0001B06F120EB16F000ED4
:100FE0008FEC08F01F0E0001C26F710EC16F1E0E54
:100FF000E82EFED7C12FFCD7C22FFAD700F0000E83
:101000000001B06F000EB16F000E8FEC08F01F0EE4
:101010000001C26F710EC16F1E0EE82EFED7C12FE8
:10102000FCD7C22FFAD700F09DEF07F09FEF00F03A
:10103000B3C0D9FFB4C0DAFFDECFF6FFDDCFF7FFD4
:101040000800F550250AD8A428EF08F02AEF08F088
:1010500073EF08F0B3C0D9FFB4C0DAFFDE2A000E88
:10106000DD22000E146E000E136E13C017F014C0B4
:1010700018F015681668B3C0D9FFB4C0DAFFDECF28
:10108000F6FFDDCFF7FF0800F550250AD8A44BEF97
:1010900008F04DEF08F065EF08F0B3C0D9FFB4C019
:1010A000DAFFDE2A000EDD22000E406E250E3F6EB6
:1010B000B1C041F0B2C042F05EEC0AF0000E000197
:1010C000B26F010EB16F8EEF08F0B3C0D9FFB4C09C
:1010D000DAFFDE2A000EDD22000E0001B26F000EE4
:1010E000B16F8EEF08F0B3C0D9FFB4C0DAFFDECF26
:1010F000F6FFDDCFF7FF0800F5503F6E406AB1C044
:1011000041F0B2C042F05EEC0AF0B3C0D9FFB4C007
:10111000DAFFDE2A000EDD225EEF08F01200000189
:10112000B26F120E3D6E0001B251AFEC0DF01F6EAA
:10113000120E3D6E0001B051AFEC0DF01E6E120E9E
:101140003D6E0001B151AFEC0DF01D6E000E0001BF
:10115000B36F1F50D8A4AFEF08F0B1EF08F0B6EFAF
:1011600008F0B3510F0BB36FB9EF08F0B35130096A
:10117000B36F1E50D8A4BFEF08F0C1EF08F0C6EF60
:1011800008F0B351330BB36FC9EF08F0B3510C093A
:10119000B36F1F50D8A4CFEF08F0D1EF08F0D6EF0F
:1011A00008F0B3513C0BB36FD9EF08F0B35103090A
:1011B000B36F030E426EB3C043F0660E9DEC0BF0AE
:1011C000020E426E1FC043F0660E9DEC0BF0010E46
:1011D000426E1EC043F0660E9DEC0BF0000E426E98
:1011E0001DC043F0660E9DEC0BF0120077EC0EF084
:1011F0000009D8B4FEEF08F000EF09F03DEF09F068
:101200000EEF09F0EAEC0EF059EF09F0E6EC0EF003
:1012100059EF09F0DEEC0EF059EF09F072C02FF033
:1012200073C030F020EE66F002D821EF09F005001F
:10123000FA6EDE50FD6EDE50FE6EF850FF6EFA5014
:101240001200316E326A3250000AD8B42AEF09F027
:101250000AEF09F03150010AD8B40AEF09F0030A85
:10126000D8B402EF09F0010AD8B406EF09F0070A72
:10127000D8B40AEF09F00AEF09F0000183917DC0AC
:10128000D9FF7EC0DAFF7D4B7E2BDF50EEEC0EF0F7
:1012900000017F07D8A080077F518011D8A453EFA9
:1012A00009F055EF09F058EF09F0060E59EF09F073
:1012B000030E1200010E2324D96EDA6A000EDA2220
:1012C000000EDF6E9CA467EF09F069EF09F07EEF76
:1012D00009F0010E2324D96EDA6A000EDA22DF82C9
:1012E00002D87EEF09F005000001FA6EC751FD6ECD
:1012F000C851FE6EF850FF6EFA5012009CA283EFA8
:1013000009F085EF09F09AEF09F0010E2324D96E58
:10131000DA6A000EDA22DF8402D89AEF09F00500BB
:101320000001FA6EC551FD6EC651FE6EF850FF6E9B
:10133000FA501200010E2324D96EDA6A000EDA2266
:10134000DF50D8B4A6EF09F0A8EF09F0B8EF09F024
:1013500002D8B6EF09F005000001FA6EC351FD6E28
:10136000C451FE6EF850FF6EFA501200BAEF09F049
:101370009AEC0DF0120011EC0FF07DC0D9FF7EC089
:10138000DAFFDF6E00017D4B7E2B7F07D8A0800740
:101390007F518011D8B4CFEF09F0D1EF09F0D6EF2B
:1013A00009F0F5EC0EF0050E0EEF0AF08387E1EF81
:1013B00009F0D2EC0EF00EEF0AF0D6EC0EF00EEFC4
:1013C0000AF06CC02FF06DC030F002D8F2EF09F0D7
:1013D0000500FA6E6051FD6E6151FE6EF850FF6EB1
:1013E000FA501200316E326A3250000AD8B4FBEF64
:1013F00009F0DDEF09F03150010AD8B4DDEF09F052
:10140000030AD8B4D9EF09F0010AD8B4D9EF09F02A
:10141000070AD8B4DDEF09F0DDEF09F012003F6EE6
:10142000010E406E000183B518EF0AF01AEF0AF0C2
:101430005CEF0AF03FC07CF08393838583910E0EAE
:10144000816F010E7B6FF40E7A6F83872E0E606FB3
:101450001E0E616F000E6C6F000E6D6F2E0E626FB0
:101460001E0E636F000E6E6F000E6F6F2E0E646F98
:101470001E0E656F000E706F000E716F2E0E666F80
:101480001E0E676F000E726F000E736F2A0E686F6C
:101490001E0E696F000E746F000E756FE40E3D6EC8
:1014A0001D0E3E6EABEC0EF009EC0FF00EEC0EF0E4
:1014B00001EC0FF0000E406E4050120041504210FF
:1014C000D8B465EF0AF067EF0AF070EF0AF0415008
:1014D0004210D8A46EEF0AF070EF0AF075EF0AF030
:1014E0003F50B0EC0EF0A9EF0AF020EE09F04150A9
:1014F000D9264250DA22DE50DE10D8B482EF0AF04C
:1015000084EF0AF0A0EF0AF020EE09F04150D9264E
:101510004250DA2210EE03F04150E1264250E2221E
:10152000DE50E65CE650800A0001B06FDE50800AB3
:10153000B059D8B09EEF0AF0A0EF0AF0A9EF0AF078
:1015400020EE03F04150D9264250DA22DE2A000E66
:10155000DD22120000018387BBEF0AF0E2EC0EF0FF
:10156000E8EF0AF00FEC0FF0030EE8EF0AF0DEEC04
:101570000EF0E8EF0AF06CC02FF06DC030F002D82A
:10158000CCEF0AF00500FA6E6051FD6E6151FE6EFF
:10159000F850FF6EFA501200316E326A3250000A73
:1015A000D8B4D5EF0AF0B7EF0AF03150010AD8B439
:1015B000B7EF0AF0030AD8B4AEEF0AF0010AD8B4C4
:1015C000AEEF0AF0070AD8B4B2EF0AF0B7EF0AF0AC
:1015D0001200416E3D503E10D8B4F1EF0AF0F3EF27
:1015E0000AF00DEF0BF04150020D600EF324D96E9E
:1015F000000EF420DA6E3DC0DEFF3EC0DDFF41503C
:10160000020D6C0EF324D96E000EF420DA6E3FC08A
:10161000DEFF40C0DDFF25EF0BF04150020D600EF4
:10162000F324D96E000EF420DA6E2E0EDE6E1E0E3E
:10163000DD6E4150020D6C0EF324D96E000EF420C5
:10164000DA6E000EDE6E000EDD6E12002A6E26507F
:101650002710D8B42EEF0BF030EF0BF04AEF0BF061
:101660002A50020D600EF324D96E000EF420DA6EBB
:1016700026C0DEFF27C0DDFF2A50020D6C0EF324CA
:10168000D96E000EF420DA6E28C0DEFF29C0DDFF1F
:1016900062EF0BF02A50020D600EF324D96E000E9B
:1016A000F420DA6E2E0EDE6E1E0EDD6E2A50020D56
:1016B0006C0EF324D96E000EF420DA6E000EDE6E8E
:1016C000000EDD6E1200A39AB40E3D6E120E3E6E39
:1016D000BAEC0EF0A398B40E3D6E190E3E6EB5EC4A
:1016E0000EF0080E7C6E900E9C6E240EA86E0F0EEF
:1016F000AB6E270E7D6E3A0E3D6E1E0E3E6EC4EC36
:101700000EF0F60E3D6E1D0E3E6EBFEC0EF0FC0EA2
:101710003D6E1D0E3E6EC9EC0EF0000E206E000EEA
:10172000256E000E246E080E476E000E236E000E0E
:10173000226E000E216EA38A1200446E44500FECFC
:101740000AF00009D8B4A7EF0BF0A9EF0BF09EEF59
:101750000BF05A0E0001AC6F1A0EAD6F430EAE6F58
:10176000000EAF6F3FEC0EF0420E3D6E000E3E6E6F
:10177000000E406E010E3F6EEAEC0DF0000E00010F
:10178000AC6F000EAD6F000EAE6F000EAF6F4BEC86
:101790000EF0CEEC0EF017EC0DF0E806D8B4D3EF57
:1017A0000BF0D5EF0BF0CBEF0BF0120000018391A3
:1017B000020E826FE4EF0BF0E2EC0EF00BEF0CF098
:1017C000DEEC0EF00BEF0CF070C02FF071C030F0BB
:1017D00020EE64F002D8F7EF0BF00500FA6EDE5051
:1017E000FD6EDE50FE6EF850FF6EFA501200316E44
:1017F000326A3250000AD8B400EF0CF0E0EF0BF080
:101800003150020AD8B4DCEF0BF0010AD8B4DCEF97
:101810000BF0E0EF0BF012000DEC0FF0000183A1D4
:1018200014EF0CF016EF0CF023EF0CF077EC0EF049
:101830000009D8B41EEF0CF020EF0CF023EF0CF0F1
:101840000F0E0001816F00018151020D010EF32482
:10185000F66E0F0EF420F76E02D83BEF0CF0050089
:10186000FA6E0900F550FD6E0900F550FE6EF85055
:10187000FF6EFA5012000001816F1200B9C043F0F0
:10188000BAC044F0000E126E000E116E5CEF0CF048
:10189000B7C0B1F0B8C0B2F0430E0001B36F000E94
:1018A000B46FBBC0B5F0BCC0B6F018EC08F00001D6
:1018B000B1511126B251122243C0F6FF44C0F7FFC6
:1018C0000800F5500009D8A468EF0CF06AEF0CF09E
:1018D00048EF0CF011C0B7F012C0B8F012003D6E26
:1018E0004750D8B476EF0CF078EF0CF070EF0CF0B6
:1018F000A3B87DEF0CF07FEF0CF083EF0CF03DC050
:10190000A9FF98EF0CF0A398090E2524D96EDA6A86
:10191000000EDA223DC0DFFF252A070E256493EF73
:101920000CF095EF0CF097EF0CF0000E256E4706CB
:10193000A38812003D6E010E3E6E000183B3A3EF3B
:101940000CF0A5EF0CF0B8EF0CF08383000E3E6EA8
:101950003D50D8B4AEEF0CF0B0EF0CF0B4EF0CF09B
:10196000010E816FB6EF0CF0020E816F03EC0FF0E9
:101970003E50120020EE02F02F50D9263050DA22CD
:10198000DECF26F0DDCF27F02FC0D9FF30C0DAFF41
:10199000DECF28F0DDCF29F0FCEC0DF0000E2B6E31
:1019A000000E2C6E000E2D6E000E2E6E57EC0EF0FB
:1019B000020E1200080E4760E0EF0CF0E2EF0CF0B0
:1019C000F8EF0CF0090E2424D96EDA6A000EDA2240
:1019D000DF50A96E242A070E2464F1EF0CF0F3EF18
:1019E0000CF0F5EF0CF0000E246E472AF9EF0CF026
:1019F000A3981200000E896E000E8A6E000E8B6E88
:101A00002F0E926E9368840E946E000E0F01486F35
:101A10000E0E496FF18E000E426F000E416F000EE8
:101A2000406F120E0E01F76F060ED16F1200010EFD
:101A30003D6E000183B31FEF0DF021EF0DF02BEF92
:101A40000DF083957C6909EC0FF005EC0FF007ECC5
:101A50000FF082C03DF03D5012002FC026F030C084
:101A600027F0000E296E010E286EFCEC0DF0000E22
:101A70002B6E000E2C6E000E2D6E000E2E6E57EC8F
:101A80000EF0040E12002FC026F030C027F0000E1A
:101A9000296E020E286EFCEC0DF0000E2B6E000E6F
:101AA0002C6E000E2D6E000E2E6E57EC0EF0020EF8
:101AB00012002FC026F030C027F0000E296E010E54
:101AC000286EFCEC0DF0000E2B6E000E2C6E000E3E
:101AD0002D6E000E2E6E57EC0EF0020E12002FC06F
:101AE00026F030C027F0000E296E020E286EFCECA6
:101AF0000DF0000E2B6E000E2C6E000E2D6E000EE3
:101B00002E6E57EC0EF0040E1200000E9A6ED10EDF
:101B1000CF6E200ECE6E9E90CE50CFCF3DF03E6A5F
:101B20003DC03EF03D6A3D10456E3E50466E010E92
:101B3000CD6E1200A40E2324D96EDA6A000EDA22CA
:101B4000AACFDFFF232A070E2364A9EF0DF0ABEF26
:101B50000DF0ADEF0DF0000E236E212A1200406E45
:101B60003D50405CD8A0B7EF0DF0B9EF0DF0BEEFDF
:101B70000DF03DC03EF03F6AC1EF0DF040C03EF0B9
:101B80003F6A3E501200BF0E0001BF6F000EC06FD3
:101B9000000EB76F000EB86FBDC0B9F0BEC0BAF08E
:101BA000BF0EBB6F000EBC6F3EEC0CF0120000EEDF
:101BB00060F04C0EEE6AE806FDE100EE01F0250E45
:101BC000EE6AE806FDE148904892000EF86E0001CA
:101BD00096EF07F0000183A7F0EF0DF0F2EF0DF0A4
:101BE000FBEF0DF03DC07DF03EC07EF03FC07FF0CA
:101BF00040C080F083971200000183A702EF0EF02F
:101C000004EF0EF00DEF0EF026C07DF027C07EF041
:101C100028C07FF029C080F083971200C6BA13EF66
:101C20000EF015EF0EF01EEF0EF0800EC76E080ED0
:101C3000C66E000EC56EEF0EC86EC68A12000BECA3
:101C40000FF06DEC0EF0FAEC0CF063EC0EF030ECF3
:101C50000EF081EC0EF085EC0DF063EC0BF0120051
:101C6000010EC16E020E0E01B86F000E0F01496F1A
:101C7000000EC36E000EC46E010EC26E1200ACC028
:101C80003DF0ADC03EF0AEC03FF0AFC040F0000E42
:101C9000E9EC0AF01200ACC03DF0ADC03EF0AEC0C1
:101CA0003FF0AFC040F0020EE9EC0AF012002BC08A
:101CB00026F02CC027F02DC028F02EC029F0000EF1
:101CC00026EC0BF01200600ED36E000E9B6E000E21
:101CD0000F013D6F140E876E1200800EC76E080E46
:101CE000C66E000EC56EEF0EC86EC69A1200C5BC59
:101CF0007CEF0EF07FEF0EF0010E80EF0EF0000E85
:101D00001200F90ECB6E000ECC6E9E925D0ECA6E66
:101D10001200000183817C517C25EEEC0EF0030E55
:101D2000120000018381D8807C35EEEC0EF0050EA8
:101D3000120000018393000E826F0E0E120000014C
:101D4000839113EC0FF0040E120000018393000E38
:101D5000826F0E0E12003DC01BF03EC01CF0120040
:101D60003E6E3E506FEC0CF012003DC0CBF03EC01A
:101D7000CCF012003DC0C9F03EC0CAF012003DC018
:101D8000C5F03EC0C6F012003DC0C7F03EC0C8F06E
:101D900012003DC0C3F03EC0C4F01200000E9AEC29
:101DA0000CF01200F8EC0EF0090E1200F8EC0EF038
:101DB0000A0E1200F5EC0EF0050E120019EC0FF0F1
:101DC000000E12001BEC0FF0010E12001BEC0FF0C6
:101DD000020E12001BEC0FF0010E1200266E26C040
:101DE000C9FF12000CEC0CF01200C59AC588120055
:101DF000C58AC58812009C989C8812009AEC0DF048
:101E000012009D861200C58012009D961200C69A8F
:101E100012009E961200D09E12009E9612009E8680
:101E20001200C9501200C5861200050E1200010EE4
:0C1E30001200C5841200C58212001200CE
:08FFF800ACF7D2FFFFFBBFFBD9
:00000001FF
