:040000009DEF00F080
:100008004882FACF0EF0FBCF0FF0D9CF10F0DACF3D
:1000180011F0F3CF12F0F4CF13F0F6CF14F0F7CFBE
:1000280015F0F8CF16F0F5CF17F0F2AC1EEF00F090
:1000380020EF00F087EF00F0A3A825EF00F027EFEE
:1000480000F03DEF00F0A4A82CEF00F02EEF00F038
:100058003DEF00F002D83BEF00F00500FA6E455086
:10006800FD6E4650FE6EF850FF6EFA50120087EF94
:1000780000F0A3AA42EF00F044EF00F05AEF00F0BE
:10008800A4AA49EF00F04BEF00F05AEF00F002D8B5
:1000980058EF00F00500FA6E4350FD6E4450FE6EB6
:1000A800F850FF6EFA50120087EF00F0A0A65FEF3D
:1000B80000F061EF00F077EF00F0A1A666EF00F026
:1000C80068EF00F077EF00F002D875EF00F0050058
:1000D800FA6E3950FD6E3A50FE6EF850FF6EFA50C7
:1000E800120087EF00F09DA67CEF00F07EEF00F095
:1000F80087EF00F09EA683EF00F085EF00F087EF12
:1001080000F068EF00F017C0F5FF16C0F8FF15C043
:10011800F7FF14C0F6FF13C0F4FF12C0F3FF11C0BD
:10012800DAFF10C0D9FF0FC0FBFF0EC0FAFF4892DC
:060138001100B0EF0EF013
:100F000000FC1ED41EC41ECC135615F01E321786CC
:100F10001F7E1F761F6E1F661F5E1F561FE41E86F4
:100F20001954657374696E670D0A0000E7EC0EF0E2
:100F3000F28EF28C898E898C8B90899C070E000131
:100F4000C36F170EC26F6A0EE82EFED7C22FFCD7F2
:100F5000C32FFAD700F0898C070E0001C36F170E5C
:100F6000C26F6A0EE82EFED7C22FFCD7C32FFAD766
:100F700000F0210E256E0F0E266E9CEC0EF0030E77
:100F8000216EFF0E226E660E8CEC0CF0020E216EAE
:100F9000190E226E660E8CEC0CF0000E0001CA6F6A
:100FA000CA51D8A4D6EF07F0D8EF07F009EF08F040
:100FB000030E216E030E226E660E8CEC0CF0000EFA
:100FC0000001C76F000E216EC7C022F0660E8CECC8
:100FD0000CF0100E0001C36F390EC26F0D0EE82E1B
:100FE000FED7C22FFCD7C32FFAD700D00001C72BE2
:100FF0000C0EC765FEEF07F000EF08F0E2EF07F018
:10100000030E216E000E226E660E8CEC0CF071EF5A
:1010100008F0CA05D8A40FEF08F011EF08F042EF6E
:1010200008F0030E216E0C0E226E660E8CEC0CF096
:10103000000E0001C86F010E216EC8C022F0660EBE
:101040008CEC0CF0100E0001C36F390EC26F0D0E48
:10105000E82EFED7C22FFCD7C32FFAD700D000014D
:10106000C82B0C0EC86537EF08F039EF08F01BEFFE
:1010700008F0030E216E000E226E660E8CEC0CF052
:1010800071EF08F0030E216E300E226E660E8CECAE
:101090000CF0000E0001C96F020E216EC9C022F0D3
:1010A000660E8CEC0CF0100E0001C36F390EC26F8F
:1010B0000D0EE82EFED7C22FFCD7C32FFAD700D0D3
:1010C0000001C92B0C0EC96568EF08F06AEF08F043
:1010D0004CEF08F0030E216E000E226E660E8CECB3
:1010E0000CF00001CA2B020ECA6579EF08F07BEF05
:1010F00008F0D0EF07F0000E216E000E226E660E93
:101100008CEC0CF0010E216E000E226E660E8CEC43
:101110000CF0020E216E000E226E660E8CEC0CF0AE
:10112000000E0001C46F000E216E0D0E226E660EC1
:101130008CEC0CF0030E216E030E226E660E8CEC0E
:101140000CF0100E0001C36F390EC26F0D0EE82EA9
:10115000FED7C22FFCD7C32FFAD700D0000E216EC6
:10116000000E226E660E8CEC0CF0030E216E000E4B
:10117000226E660E8CEC0CF0100E0001C36F390E5F
:10118000C26F0D0EE82EFED7C22FFCD7C32FFAD7A1
:1011900000D00001C42B090EC465D1EF08F0D3EFD5
:1011A00008F093EF08F0000EC56F010E216E0D0ED2
:1011B000226E660E8CEC0CF0030E216E0C0E226E6D
:1011C000660E8CEC0CF0100E0001C36F390EC26F6E
:1011D0000D0EE82EFED7C22FFCD7C32FFAD700D0B2
:1011E000010E216E000E226E660E8CEC0CF0030ECA
:1011F000216E000E226E660E8CEC0CF0100E0001BB
:10120000C36F390EC26F0D0EE82EFED7C22FFCD76A
:10121000C32FFAD700D00001C52B090EC56513EF07
:1012200009F015EF09F0D5EF08F0000EC66F020EB9
:10123000216E0D0E226E660E8CEC0CF0030E216EEC
:10124000300E226E660E8CEC0CF0100E0001C36F97
:10125000390EC26F0D0EE82EFED7C22FFCD7C32F5A
:10126000FAD700D0020E216E000E226E660E8CECB4
:101270000CF0030E216E000E226E660E8CEC0CF04C
:10128000100E0001C36F390EC26F0D0EE82EFED78F
:10129000C22FFCD7C32FFAD700D00001C62B090EEE
:1012A000C66555EF09F057EF09F017EF09F0030E87
:1012B000216E000E226E660E8CEC0CF03D0E0001CD
:1012C000C36FE10EC26F3F0EE82EFED7C22FFCD7D0
:1012D000C32FFAD700D09DEF07F09DEF00F0B6C006
:1012E000D9FFB7C0DAFFDECFF6FFDDCFF7FF08008A
:1012F000F550250AD8A47FEF09F081EF09F0CAEF75
:1013000009F0B6C0D9FFB7C0DAFFDE2A000EDD2231
:10131000000E326E000E316E31C035F032C036F044
:1013200033683468B6C0D9FFB7C0DAFFDECFF6FF46
:10133000DDCFF7FF0800F550250AD8A4A2EF09F089
:10134000A4EF09F0BCEF09F0B6C0D9FFB7C0DAFFCF
:10135000DE2A000EDD22000E1B6E250E1A6EB4C0B2
:101360001CF0B5C01DF04EEC0BF0000E0001B56F87
:10137000010EB46FE5EF09F0B6C0D9FFB7C0DAFFD0
:10138000DE2A000EDD22000E0001B56F000EB46FE4
:10139000E5EF09F0B6C0D9FFB7C0DAFFDECFF6FF40
:1013A000DDCFF7FF0800F5501A6E1B6AB4C01CF0C1
:1013B000B5C01DF04EEC0BF0B6C0D9FFB7C0DAFFD8
:1013C000DE2A000EDD22B5EF09F0120050EC0FF01E
:1013D0000009D8B4EEEF09F0F0EF09F02DEF0AF0B4
:1013E000FEEF09F0C3EC0FF049EF0AF0BFEC0FF08D
:1013F00049EF0AF0B7EC0FF049EF0AF072C00AF0BB
:1014000073C00BF020EE66F002D811EF0AF0050071
:10141000FA6EDE50FD6EDE50FE6EF850FF6EFA5032
:1014200012000C6E0D6A0D50000AD8B41AEF0AF0C3
:10143000FAEF09F00C50010AD8B4FAEF09F0030AE8
:10144000D8B4F2EF09F0010AD8B4F6EF09F0070AB0
:10145000D8B4FAEF09F0FAEF09F0000183917DC0EA
:10146000D9FF7EC0DAFF7D4B7E2BDF50C7EC0FF03B
:1014700000017F07D8A080077F518011D8A443EFD7
:101480000AF045EF0AF048EF0AF0060E49EF0AF0BD
:10149000030E1200270E3E24D96EDA6A000EDA22FD
:1014A000000EDF6E9CA457EF0AF059EF0AF06EEFC2
:1014B0000AF0270E3E24D96EDA6A000EDA22DF82A5
:1014C00002D86EEF0AF005000001FA6ECF51FD6EF2
:1014D000D051FE6EF850FF6EFA5012009CA273EFCE
:1014E0000AF075EF0AF08AEF0AF0270E3E24D96E53
:1014F000DA6A000EDA22DF8402D88AEF0AF00500E9
:101500000001FA6ECD51FD6ECE51FE6EF850FF6EA9
:10151000FA501200270E3E24D96EDA6A000EDA2243
:10152000DF50D8B496EF0AF098EF0AF0A8EF0AF06F
:1015300002D8A6EF0AF005000001FA6ECB51FD6E4D
:10154000CC51FE6EF850FF6EFA501200AAEF0AF06E
:1015500087EC0EF01200EAEC0FF07DC0D9FF7EC0E0
:10156000DAFFDF6E00017D4B7E2B7F07D8A080075E
:101570007F518011D8B4BFEF0AF0C1EF0AF0C6EF77
:101580000AF0CEEC0FF0050EFEEF0AF08387D1EFE4
:101590000AF0ABEC0FF0FEEF0AF0AFEC0FF0FEEF4D
:1015A0000AF06CC00AF06DC00BF002D8E2EF0AF04E
:1015B0000500FA6E6051FD6E6151FE6EF850FF6ECF
:1015C000FA5012000C6E0D6A0D50000AD8B4EBEF01
:1015D0000AF0CDEF0AF00C50010AD8B4CDEF0AF0B2
:1015E000030AD8B4C9EF0AF0010AD8B4C9EF0AF067
:1015F000070AD8B4CDEF0AF0CDEF0AF012001A6E48
:10160000010E1B6E000183B508EF0BF00AEF0BF023
:101610004CEF0BF01AC07CF08393838583910E0E00
:10162000816F010E7B6FF40E7A6F8387E00E606F1F
:101630001F0E616F000E6C6F000E6D6FE00E626F1B
:101640001F0E636F000E6E6F000E6F6FE00E646F03
:101650001F0E656F000E706F000E716FE00E666FEB
:101660001F0E676F000E726F000E736FDC0E686FD7
:101670001F0E696F000E746F000E756F960E186E58
:101680001F0E196EA2EC0FF0E4EC0FF0F8EC0EF068
:10169000DCEC0FF0000E1B6E1B5012001C501D10D6
:1016A000D8B455EF0BF057EF0BF060EF0BF01C5078
:1016B0001D10D8A45EEF0BF060EF0BF065EF0BF0A0
:1016C0001A5084EC0FF098EF0BF020EE09F01C504C
:1016D000D9261D50DA22DE50DE10D8B472EF0BF09E
:1016E00074EF0BF08FEF0BF020EE09F01C50D926B1
:1016F0001D50DA2210EE03F01C50E1261D50E222AC
:10170000DE50E65CE650800A226EDE50800A2258E7
:10171000D8B08DEF0BF08FEF0BF098EF0BF020EEC1
:1017200003F01C50D9261D50DA22DE2A000EDD22DD
:10173000120000018387AAEF0BF0BBEC0FF0D7EF8C
:101740000BF0E8EC0FF0030ED7EF0BF0B7EC0FF057
:10175000D7EF0BF06CC00AF06DC00BF002D8BBEFF6
:101760000BF00500FA6E6051FD6E6151FE6EF8508F
:10177000FF6EFA5012000C6E0D6A0D50000AD8B4BC
:10178000C4EF0BF0A6EF0BF00C50010AD8B4A6EF93
:101790000BF0030AD8B49DEF0BF0010AD8B49DEF0B
:1017A0000BF0070AD8B4A1EF0BF0A6EF0BF0120074
:1017B0001C6E18501910D8B4E0EF0BF0E2EF0BF0EC
:1017C000FCEF0BF01C50020D600EF324D96E000EDE
:1017D000F420DA6E18C0DEFF19C0DDFF1C50020DC8
:1017E0006C0EF324D96E000EF420DA6E1AC0DEFF00
:1017F0001BC0DDFF14EF0CF01C50020D600EF32433
:10180000D96E000EF420DA6EE00EDE6E1F0EDD6E75
:101810001C50020D6C0EF324D96E000EF420DA6E0B
:10182000000EDE6E000EDD6E1200056E015002101D
:10183000D8B41DEF0CF01FEF0CF039EF0CF0055091
:10184000020D600EF324D96E000EF420DA6E01C092
:10185000DEFF02C0DDFF0550020D6C0EF324D96ED1
:10186000000EF420DA6E03C0DEFF04C0DDFF51EF8E
:101870000CF00550020D600EF324D96E000EF4201A
:10188000DA6EE00EDE6E1F0EDD6E0550020D6C0E80
:10189000F324D96E000EF420DA6E000EDE6E000E18
:1018A000DD6E1200A39A940E186E140E196E8EEC53
:1018B0000FF0A3988E0E186E1B0E196E89EC0FF0A8
:1018C000080E7C6E900E9C6E240EA86E0F0EAB6EF2
:1018D000270E7D6EEC0E186E1F0E196E98EC0FF031
:1018E000A80E186E1F0E196E93EC0FF0AE0E186E48
:1018F0001F0E196E9DEC0FF0000E3B6E000E406E39
:10190000000E3F6E080E476E000E3E6E000E3D6EDE
:10191000000E3C6EA38A1200236E2350FFEC0AF0E7
:101920000009D8B496EF0CF098EF0CF08DEF0CF0A6
:10193000340E1D6E1C0E1E6E220E1F6E000E206ECB
:1019400018EC0FF0210E186E000E196E000E1B6EB3
:10195000010E1A6EC3EC0EF0000E1D6E000E1E6E10
:10196000000E1F6E000E206E24EC0FF0A7EC0FF09F
:1019700004EC0EF0E806D8B4C0EF0CF0C2EF0CF0A7
:10198000B8EF0CF0120000018391020E826FD1EFCC
:101990000CF0BBEC0FF0F8EF0CF0B7EC0FF0F8EF39
:1019A0000CF070C00AF071C00BF020EE64F002D8A9
:1019B000E4EF0CF00500FA6EDE50FD6EDE50FE6EB8
:1019C000F850FF6EFA5012000C6E0D6A0D50000AAE
:1019D000D8B4EDEF0CF0CDEF0CF00C50020AD8B4F7
:1019E000C9EF0CF0010AD8B4C9EF0CF0CDEF0CF040
:1019F0001200E6EC0FF0000183A101EF0DF003EF00
:101A00000DF010EF0DF050EC0FF00009D8B40BEF13
:101A10000DF00DEF0DF010EF0DF00F0E0001816FC6
:101A200000018151020D010EF324F66E0F0EF42019
:101A3000F76E02D828EF0DF00500FA6E0900F55098
:101A4000FD6E0900F550FE6EF850FF6EFA50120060
:101A50000001816F1200BCC023F0BDC024F0000E55
:101A6000306E000E2F6E49EF0DF0BAC0B4F0BBC05F
:101A7000B5F0230E0001B66F000EB76FBEC0B8F010
:101A8000BFC0B9F06FEC09F00001B4512F26B55179
:101A9000302223C0F6FF24C0F7FF0800F5500009EC
:101AA000D8A455EF0DF057EF0DF035EF0DF02FC026
:101AB000BAF030C0BBF01200186E4750D8B463EFD4
:101AC0000DF065EF0DF05DEF0DF0A3B86AEF0DF0CE
:101AD0006CEF0DF070EF0DF018C0A9FF85EF0DF061
:101AE000A398AC0E4024D96EDA6A000EDA2218C030
:101AF000DFFF402A070E406480EF0DF082EF0DF00B
:101B000084EF0DF0000E406E4706A3881200186E99
:101B1000010E196E000183B390EF0DF092EF0DF0FE
:101B2000A5EF0DF08383000E196E1850D8B49BEF0B
:101B30000DF09DEF0DF0A1EF0DF0010E816FA3EF01
:101B40000DF0020E816FDEEC0FF01950120020EE46
:101B500002F00A50D9260B50DA22DECF01F0DDCF99
:101B600002F00AC0D9FF0BC0DAFFDECF03F0DDCFF1
:101B700004F0D5EC0EF0000E066E000E076E000E9F
:101B8000086E000E096E30EC0FF0020E1200080E07
:101B90004760CDEF0DF0CFEF0DF0E5EF0DF0AC0E9F
:101BA0003F24D96EDA6A000EDA22DF50A96E3F2A8E
:101BB000070E3F64DEEF0DF0E0EF0DF0E2EF0DF009
:101BC000000E3F6E472AE6EF0DF0A3981200000EBC
:101BD000896E000E8A6E000E8B6E2F0E926E9368C9
:101BE000840E946E000E0F01486F0E0E496FF18E39
:101BF000000E426F000E416F000E406F120E0E017C
:101C0000F76F060ED16F1200010E186E000183B33C
:101C10000CEF0EF00EEF0EF018EF0EF083957C69CE
:101C2000E4EC0FF0E0EC0FF0E2EC0FF082C018F003
:101C3000185012000AC001F00BC002F0000E046E32
:101C4000010E036ED5EC0EF0000E066E000E076E50
:101C5000000E086E000E096E30EC0FF0040E12003C
:101C60000AC001F00BC002F0000E046E020E036EFB
:101C7000D5EC0EF0000E066E000E076E000E086E1C
:101C8000000E096E30EC0FF0020E12000AC001F0D7
:101C90000BC002F0000E046E010E036ED5EC0EF0C8
:101CA000000E066E000E076E000E086E000E096E26
:101CB00030EC0FF0020E12000AC001F00BC002F06F
:101CC000000E046E020E036ED5EC0EF0000E066ED2
:101CD000000E076E000E086E000E096E30EC0FF05D
:101CE000040E1200000E9A6ED10ECF6E200ECE6E34
:101CF0009E90CE50CFCF18F0196A18C019F0186A0C
:101D00001810416E1950426E010ECD6E1200A40ED5
:101D10003E24D96EDA6A000EDA22AACFDFFF3E2A0D
:101D2000070E3E6496EF0EF098EF0EF09AEF0EF06D
:101D3000000E3E6E3C2A1200270E0001C06F000EFE
:101D4000C16F000EBA6F000EBB6F25C0BCF026C07D
:101D5000BDF0C00EBE6F000EBF6F2BEC0DF0120079
:101D600000EE60F0540EEE6AE806FDE100EE27F0AA
:101D70001A0EEE6AE806FDE148904892000EF86EF1
:101D8000000196EF07F0000183A7C9EF0EF0CBEF3B
:101D90000EF0D4EF0EF018C07DF019C07EF01AC01E
:101DA0007FF01BC080F083971200000183A7DBEF58
:101DB0000EF0DDEF0EF0E6EF0EF001C07DF002C098
:101DC0007EF003C07FF004C080F083971200DAEC4D
:101DD0000FF046EC0FF0E7EC0DF03CEC0FF009ECE7
:101DE0000FF05AEC0FF072EC0EF052EC0CF0120007
:101DF000C6BAFDEF0EF0FFEF0EF008EF0FF0800E09
:101E0000C76E080EC66E000EC56EEF0EC86EC68A8F
:101E10001200010EC16E020E0E01B86F000E0F010E
:101E2000496F000EC36E000EC46E010EC26E12002A
:101E30001DC018F01EC019F01FC01AF020C01BF002
:101E4000000ED8EC0BF012001DC018F01EC019F0E7
:101E50001FC01AF020C01BF0020ED8EC0BF01200CD
:101E600006C001F007C002F008C003F009C004F08A
:101E7000000E15EC0CF01200600ED36E000E9B6E7F
:101E8000000E0F013D6F140E876E1200800EC76E9C
:101E9000080EC66E000EC56EEF0EC86EC69A120012
:101EA000C5BC55EF0FF058EF0FF0010E59EF0FF0D2
:101EB000000E1200F90ECB6E000ECC6E9E925D0EDF
:101EC000CA6E1200000183817C517C25C7EC0FF0A3
:101ED000030E120000018381D8807C35C7EC0FF01F
:101EE000050E120000018393000E826F0E0E120089
:101EF00000018391ECEC0FF0040E120000018393BB
:101F0000000E826F0E0E1200196E19505CEC0DF06F
:101F1000120018C045F019C046F0120018C043F076
:101F200019C044F0120018C0CDF019C0CEF0120054
:101F300018C0CFF019C0D0F0120018C0CBF019C0F3
:101F4000CCF0120018C039F019C03AF01200000E9F
:101F500087EC0DF01200D1EC0FF0090E1200D1EC5D
:101F60000FF00A0E1200CEEC0FF0050E1200F2EC8C
:101F70000FF0000E1200F4EC0FF0010E1200F4EC62
:101F80000FF0020E1200F4EC0FF0010E1200016EC1
:101F900001C0C9FF1200F9EC0CF01200C59AC58807
:101FA0001200C58AC58812009C989C88120087EC94
:101FB0000EF01200D09E12009D861200C580120005
:101FC0009D961200C69A12009E9612009E961200CE
:101FD0009E861200C9501200C5861200050E12001E
:0E1FE000010E1200C5841200C582120012000C
:08FFF800ACF7D2FFFFFBBFFBD9
:00000001FF
