:040000009FEF00F07E
:100008004882FACF33F0FBCF34F0D9CF35F0DACFCE
:1000180036F0F3CF37F0F4CF38F0F6CF39F0F7CF2A
:100028003AF0F8CF3BF0F5CF3CF0F2AC1EEF00F021
:1000380020EF00F089EF00F0A3A825EF00F027EFEC
:1000480000F03EEF00F0A4A82CEF00F02EEF00F037
:100058003EEF00F002D83CEF00F005000001FA6E18
:10006800CB51FD6ECC51FE6EF850FF6EFA50120067
:1000780089EF00F0A3AA43EF00F045EF00F05CEF32
:1000880000F0A4AA4AEF00F04CEF00F05CEF00F09B
:1000980002D85AEF00F005000001FA6EC951FD6E52
:1000A800CA51FE6EF850FF6EFA50120089EF00F048
:1000B800A0A661EF00F063EF00F079EF00F0A1A6D1
:1000C80068EF00F06AEF00F079EF00F002D877EF00
:1000D80000F00500FA6E1B50FD6E1C50FE6EF850C5
:1000E800FF6EFA50120089EF00F09DA67EEF00F037
:1000F80080EF00F089EF00F09EA685EF00F087EF13
:1001080000F089EF00F06AEF00F03CC0F5FF3BC05B
:10011800F8FF3AC0F7FF39C0F6FF38C0F4FF37C020
:10012800F3FF36C0DAFF35C0D9FF34C0FBFF33C058
:0A013800FAFF489211000DEF0CF0E1
:100F0000004019181908191A10A4113419E412B85C
:100F100019B019A819A019981990198819281950E9
:100F20001454657374696E670D0A0000B3C0D9FF6D
:100F3000B4C0DAFFDECFF6FFDDCFF7FF0800F550D3
:100F4000250AD8A4A6EF07F0A8EF07F0F1EF07F005
:100F5000B3C0D9FFB4C0DAFFDE2A000EDD22000ED6
:100F6000146E000E136E13C017F014C018F015683D
:100F70001668B3C0D9FFB4C0DAFFDECFF6FFDDCF0D
:100F8000F7FF0800F550250AD8A4C9EF07F0CBEF0A
:100F900007F0E3EF07F0B3C0D9FFB4C0DAFFDE2AF1
:100FA000000EDD22000E406E250E3F6EB1C041F0F6
:100FB000B2C042F026EC09F0000E0001B26F010E43
:100FC000B16F0CEF08F0B3C0D9FFB4C0DAFFDE2A6E
:100FD000000EDD22000E0001B26F000EB16F0CEFAB
:100FE00008F0B3C0D9FFB4C0DAFFDECFF6FFDDCF23
:100FF000F7FF0800F5503F6E406AB1C041F0B2C043
:1010000042F026EC09F0B3C0D9FFB4C0DAFFDE2A03
:10101000000EDD22DCEF07F0120072EC0CF000098C
:10102000D8B415EF08F017EF08F054EF08F025EFEB
:1010300008F0DCEC0CF070EF08F0D8EC0CF070EF7E
:1010400008F0D0EC0CF070EF08F072C02FF073C015
:1010500030F020EE66F002D838EF08F00500FA6EA6
:10106000DE50FD6EDE50FE6EF850FF6EFA5012003C
:10107000316E326A3250000AD8B441EF08F021EFE5
:1010800008F03150010AD8B421EF08F0030AD8B4AF
:1010900019EF08F0010AD8B41DEF08F0070AD8B418
:1010A00021EF08F021EF08F0000183917DC0D9FF06
:1010B0007EC0DAFF7D4B7E2BDF50E0EC0CF00001B0
:1010C0007F07D8A080077F518011D8A46AEF08F06D
:1010D0006CEF08F06FEF08F0060E70EF08F0030EEB
:1010E0001200010E2324D96EDA6A000EDA22000EF5
:1010F000DF6E9CA47EEF08F080EF08F095EF08F01B
:10110000010E2324D96EDA6A000EDA22DF8202D8B9
:1011100095EF08F005000001FA6EC751FD6EC85149
:10112000FE6EF850FF6EFA5012009CA29AEF08F083
:101130009CEF08F0B1EF08F0010E2324D96EDA6AB3
:10114000000EDA22DF8402D8B1EF08F005000001BA
:10115000FA6EC551FD6EC651FE6EF850FF6EFA5024
:101160001200010E2324D96EDA6A000EDA22DF5053
:10117000D8B4BDEF08F0BFEF08F0CFEF08F002D809
:10118000CDEF08F005000001FA6EC351FD6EC451A9
:10119000FE6EF850FF6EFA501200D1EF08F0E4EC4A
:1011A0000BF01200F9EC0CF07DC0D9FF7EC0DAFF25
:1011B000DF6E00017D4B7E2B7F07D8A080077F511B
:1011C0008011D8B4E6EF08F0E8EF08F0EDEF08F092
:1011D000E7EC0CF0050E25EF09F08387F8EF08F037
:1011E000C4EC0CF025EF09F0C8EC0CF025EF09F089
:1011F0006CC02FF06DC030F002D809EF09F0050087
:10120000FA6E6051FD6E6151FE6EF850FF6EFA503D
:101210001200316E326A3250000AD8B412EF09F06F
:10122000F4EF08F03150010AD8B4F4EF08F0030AE3
:10123000D8B4F0EF08F0010AD8B4F0EF08F0070ACC
:10124000D8B4F4EF08F0F4EF08F012004150421067
:10125000D8B42DEF09F02FEF09F038EF09F0415025
:101260004210D8A436EF09F038EF09F03DEF09F04D
:101270003F50A6EC0CF071EF09F020EE09F0415060
:10128000D9264250DA22DE50DE10D8B44AEF09F0F7
:101290004CEF09F068EF09F020EE09F04150D92633
:1012A0004250DA2210EE03F04150E1264250E22291
:1012B000DE50E65CE650800A0001B06FDE50800A26
:1012C000B059D8B066EF09F068EF09F071EF09F096
:1012D00020EE03F04150D9264250DA22DE2A000ED9
:1012E000DD2212000001838783EF09F0D4EC0CF0BB
:1012F000B0EF09F0F7EC0CF0030EB0EF09F0D0EC12
:101300000CF0B0EF09F06CC02FF06DC030F002D8D7
:1013100094EF09F00500FA6E6051FD6E6151FE6EAA
:10132000F850FF6EFA501200316E326A3250000AE5
:10133000D8B49DEF09F07FEF09F03150010AD8B41D
:101340007FEF09F0030AD8B476EF09F0010AD8B4A8
:1013500076EF09F0070AD8B47AEF09F07FEF09F0C9
:1013600012002A6E26502710D8B4B9EF09F0BBEF4F
:1013700009F0D5EF09F02A50020D600EF324D96E62
:10138000000EF420DA6E26C0DEFF27C0DDFF2A50F3
:10139000020D6C0EF324D96E000EF420DA6E28C014
:1013A000DEFF29C0DDFFEDEF09F02A50020D600ECF
:1013B000F324D96E000EF420DA6EFE0EDE6E190EE6
:1013C000DD6E2A50020D6C0EF324D96E000EF4204F
:1013D000DA6E000EDE6E000EDD6E1200A39AE20ED3
:1013E0003D6E100E3E6EB0EC0CF0A398740E3D6E88
:1013F000160E3E6EABEC0CF0080E7C6E900E9C6EE2
:10140000240EA86E0F0EAB6E270E7D6E0A0E3D6E7B
:101410001A0E3E6EBAEC0CF0DA0E3D6E190E3E6EF0
:10142000B5EC0CF0E00E3D6E190E3E6EBFEC0CF00C
:10143000000E206E000E256E000E246E080E476E04
:10144000000E236E000E226E000E216EA38A120083
:1014500000018391020E826F36EF0AF0D4EC0CF09B
:101460005DEF0AF0D0EC0CF05DEF0AF070C02FF0E9
:1014700071C030F020EE64F002D849EF0AF00500A8
:10148000FA6EDE50FD6EDE50FE6EF850FF6EFA50C2
:101490001200316E326A3250000AD8B452EF0AF0AC
:1014A00032EF0AF03150020AD8B42EEF0AF0010AE6
:1014B000D8B42EEF0AF032EF0AF01200F5EC0CF07F
:1014C000000183A166EF0AF068EF0AF075EF0AF0F9
:1014D00072EC0CF00009D8B470EF0AF072EF0AF069
:1014E00075EF0AF00F0E0001816F00018151020DAE
:1014F000010EF324F66E0F0EF420F76E02D88DEF76
:101500000AF00500FA6E0900F550FD6E0900F5506D
:10151000FE6EF850FF6EFA5012000001816F12004B
:10152000B9C043F0BAC044F0000E126E000E116E46
:10153000AEEF0AF0B7C0B1F0B8C0B2F0430E000190
:10154000B36F000EB46FBBC0B5F0BCC0B6F096EC84
:1015500007F00001B1511126B251122243C0F6FF2B
:1015600044C0F7FF0800F5500009D8A4BAEF0AF00C
:10157000BCEF0AF09AEF0AF011C0B7F012C0B8F051
:10158000120032EC0CF0F28EF28C898E898C8B90EA
:10159000899C070E0001C26F170EC16F6A0EE82EFC
:1015A000FED7C12FFCD7C22FFAD700F0898C070EC7
:1015B0000001C26F170EC16F6A0EE82EFED7C12F51
:1015C000FCD7C22FFAD700F0210E0001BD6F0F0E1D
:1015D000BE6FF9EC0BF0C8EF0AF09FEF00F03D6E24
:1015E0004750D8B4F6EF0AF0F8EF0AF0F0EF0AF03F
:1015F000A3B8FDEF0AF0FFEF0AF003EF0BF03DC0D8
:10160000A9FF18EF0BF0A398090E2524D96EDA6A0A
:10161000000EDA223DC0DFFF252A070E256413EFF6
:101620000BF015EF0BF017EF0BF0000E256E4706D1
:10163000A388120020EE02F02F50D9263050DA2273
:10164000DECF26F0DDCF27F02FC0D9FF30C0DAFF84
:10165000DECF28F0DDCF29F020EC0CF0000E2B6E51
:10166000000E2C6E000E2D6E000E2E6E52EC0CF045
:10167000020E1200080E476040EF0BF042EF0BF035
:1016800058EF0BF0090E2424D96EDA6A000EDA2224
:10169000DF50A96E242A070E246451EF0BF053EF9C
:1016A0000BF055EF0BF0000E246E472A59EF0BF0AC
:1016B000A3981200000E896E000E8A6E000E8B6ECB
:1016C0002F0E926E9368840E946E000E0F01486F79
:1016D0000E0E496FF18E000E426F000E416F000E2C
:1016E000406F120E0E01F76F060ED16F12002FC061
:1016F00026F030C027F0000E296E010E286E20EC77
:101700000CF0000E2B6E000E2C6E000E2D6E000ED7
:101710002E6E52EC0CF0040E12002FC026F030C0DA
:1017200027F0000E296E020E286E20EC0CF0000E41
:101730002B6E000E2C6E000E2D6E000E2E6E52ECD7
:101740000CF0020E12002FC026F030C027F0000E61
:10175000296E010E286E20EC0CF0000E2B6E000E90
:101760002C6E000E2D6E000E2E6E52EC0CF0020E42
:1017700012002FC026F030C027F0000E296E020E96
:10178000286E20EC0CF0000E2B6E000E2C6E000E5E
:101790002D6E000E2E6E52EC0CF0040E1200000E98
:1017A0009A6ED10ECF6E200ECE6E9E90CE50CFCFC1
:1017B0003DF03E6A3DC03EF03D6A3D10456E3E50F4
:1017C000466E010ECD6E1200A40E2324D96EDA6A85
:1017D000000EDA22AACFDFFF232A070E2364F3EFDD
:1017E0000BF0F5EF0BF0F7EF0BF0000E236E212A54
:1017F0001200BF0E0001BF6F000EC06F000EB76F6A
:10180000000EB86FBDC0B9F0BEC0BAF0BF0EBB6F5E
:10181000000EBC6F90EC0AF0120000EE60F04C0E6F
:10182000EE6AE806FDE100EE01F0250EEE6AE8063C
:10183000FDE148904892000EF86E0001C1EF0AF0F9
:10184000000183A726EF0CF028EF0CF031EF0CF02D
:1018500026C07DF027C07EF028C07FF029C080F030
:1018600083971200F3EC0CF068EC0CF05AEC0BF0E0
:101870005EEC0CF043EC0CF07CEC0CF0CFEC0BF0DD
:10188000EEEC09F01200010EC16E020E0E01B86FEF
:10189000000E0F01496F000EC36E000EC46E010EE4
:1018A000C26E12002BC026F02CC027F02DC028F0ED
:1018B0002EC029F0000EB1EC09F01200600ED36EBC
:1018C000000E9B6E000E0F013D6F140E876E12000E
:1018D000800EC76E080EC66E000EC56EEF0EC86E87
:1018E000C69A1200C5BC77EF0CF07AEF0CF0010E2F
:1018F0007BEF0CF0000E1200F90ECB6E000ECC6EDA
:101900009E925D0ECA6E1200000183817C517C257F
:10191000E0EC0CF0030E120000018381D8807C35CE
:10192000E0EC0CF0050E120000018393000E826FB4
:101930000E0E120000018391FBEC0CF0040E12005D
:1019400000018393000E826F0E0E12003E6E3E5019
:10195000EFEC0AF012003DC0CBF03EC0CCF012001C
:101960003DC0C9F03EC0CAF012003DC0C5F03EC047
:10197000C6F012003DC0C7F03EC0C8F012003DC026
:10198000C3F03EC0C4F01200EAEC0CF0090E1200E5
:10199000EAEC0CF00A0E1200E7EC0CF0050E120057
:1019A00001EC0DF0000E120003EC0DF0010E120020
:1019B00003EC0DF0020E120003EC0DF0010E12000C
:1019C000266E26C0C9FF12005EEC0AF01200C59A0E
:1019D000C5881200C58AC58812009C989C88120090
:1019E000E4EC0BF01200D09E12009E9612009E8630
:1019F0001200C9501200C5861200050E1200010E19
:0C1A00001200C5841200C5821200120002
:08FFF800ACF7D2FFFFFBBFFBD9
:00000001FF
