:040000009DEF00F080
:100008004882FACF0EF0FBCF0FF0D9CF10F0DACF3D
:1000180011F0F3CF12F0F4CF13F0F6CF14F0F7CFBE
:1000280015F0F8CF16F0F5CF17F0F2AC1EEF00F090
:1000380020EF00F087EF00F0A3A825EF00F027EFEE
:1000480000F03DEF00F0A4A82CEF00F02EEF00F038
:100058003DEF00F002D83BEF00F00500FA6E455086
:10006800FD6E4650FE6EF850FF6EFA50120087EF94
:1000780000F0A3AA42EF00F044EF00F05AEF00F0BE
:10008800A4AA49EF00F04BEF00F05AEF00F002D8B5
:1000980058EF00F00500FA6E4350FD6E4450FE6EB6
:1000A800F850FF6EFA50120087EF00F0A0A65FEF3D
:1000B80000F061EF00F077EF00F0A1A666EF00F026
:1000C80068EF00F077EF00F002D875EF00F0050058
:1000D800FA6E3750FD6E3850FE6EF850FF6EFA50CB
:1000E800120087EF00F09DA67CEF00F07EEF00F095
:1000F80087EF00F09EA683EF00F085EF00F087EF12
:1001080000F068EF00F017C0F5FF16C0F8FF15C043
:10011800F7FF14C0F6FF13C0F4FF12C0F3FF11C0BD
:10012800DAFF10C0D9FF0FC0FBFF0EC0FAFF4892DC
:06013800110028EF0CF09D
:100F0000009A19721962191810A0118E197413120F
:100F10001A0A1A021AFA19F219EA19E2198219E0E0
:100F20001474657374696E670000B6C0D9FFB7C0EA
:100F3000DAFFDECFF6FFDDCFF7FF0800F550250A18
:100F4000D8A4A5EF07F0A7EF07F0F0EF07F0B6C0C1
:100F5000D9FFB7C0DAFFDE2A000EDD22000E306EA8
:100F6000000E2F6E2FC033F030C034F0316832687D
:100F7000B6C0D9FFB7C0DAFFDECFF6FFDDCFF7FF8F
:100F80000800F550250AD8A4C8EF07F0CAEF07F00B
:100F9000E2EF07F0B6C0D9FFB7C0DAFFDE2A000ED5
:100FA000DD22000E1B6E250E1A6EB4C01CF0B5C0FB
:100FB0001DF06FEC09F0000E0001B56F010EB46F6B
:100FC0000BEF08F0B6C0D9FFB7C0DAFFDE2A000E7B
:100FD000DD22000E0001B56F000EB46F0BEF08F0BC
:100FE000B6C0D9FFB7C0DAFFDECFF6FFDDCFF7FF1F
:100FF0000800F5501A6E1B6AB4C01CF0B5C01DF095
:101000006FEC09F0B6C0D9FFB7C0DAFFDE2A000ED8
:10101000DD22DBEF07F012009FEC0CF00009D8B4E2
:1010200014EF08F016EF08F053EF08F024EF08F083
:1010300009EC0DF06FEF08F005EC0DF06FEF08F024
:10104000FDEC0CF06FEF08F072C00AF073C00BF00B
:1010500020EE66F002D837EF08F00500FA6EDE5099
:10106000FD6EDE50FE6EF850FF6EFA5012000C6EF0
:101070000D6A0D50000AD8B440EF08F020EF08F0D8
:101080000C50010AD8B420EF08F0030AD8B418EFC6
:1010900008F0010AD8B41CEF08F0070AD8B420EF12
:1010A00008F020EF08F0000183917DC0D9FF7EC0D9
:1010B000DAFF7D4B7E2BDF500DEC0DF000017F073A
:1010C000D8A080077F518011D8A469EF08F06BEF9A
:1010D00008F06EEF08F0060E6FEF08F0030E120036
:1010E000250E3C24D96EDA6A000EDA22000EDF6E7D
:1010F0009CA47DEF08F07FEF08F093EF08F0250E39
:101100003C24D96EDA6A000EDA22DF8202D893EF2D
:1011100008F00500FA6E4150FD6E4250FE6EF85028
:10112000FF6EFA5012009CA298EF08F09AEF08F0B8
:10113000AFEF08F0250E3C24D96EDA6A000EDA22F1
:10114000DF8402D8AFEF08F005000001FA6ECD5140
:10115000FD6ECE51FE6EF850FF6EFA501200250E55
:101160003C24D96EDA6A000EDA22DF50D8B4BBEF25
:1011700008F0BDEF08F0CDEF08F002D8CBEF08F093
:1011800005000001FA6ECB51FD6ECC51FE6EF85099
:10119000FF6EFA501200CFEF08F0FFEC0BF01200D8
:1011A00026EC0DF07DC0D9FF7EC0DAFFDF6E0001B6
:1011B0007D4B7E2B7F07D8A080077F518011D8B44C
:1011C000E4EF08F0E6EF08F0EBEF08F014EC0DF0B8
:1011D000050E23EF09F08387F6EF08F0F1EC0CF031
:1011E00023EF09F0F5EC0CF023EF09F06CC00AF0E6
:1011F0006DC00BF002D807EF09F00500FA6E6051E0
:10120000FD6E6151FE6EF850FF6EFA5012000C6ECA
:101210000D6A0D50000AD8B410EF09F0F2EF08F093
:101220000C50010AD8B4F2EF08F0030AD8B4EEEF7C
:1012300008F0010AD8B4EEEF08F0070AD8B4F2EFCC
:1012400008F0F2EF08F012005FEC0CF0F28EF28C76
:10125000898E898C8B90000E0001C76F010EC66FBE
:10126000410ECA6FCA0EC86F000EC96F899C040E6A
:101270000001C56F0C0EC46F330EE82EFED7C42FCD
:10128000FCD7C52FFAD700D0898C040E0001C56F9A
:101290000C0EC46F330EE82EFED7C42FFCD7C52F1B
:1012A000FAD700D0210E0001C06F0F0EC16F14ECF1
:1012B0000CF0C8C0D9FFC9C0DAFFDF500001C46F0D
:1012C000C56BC4C018F0C5C019F0C6C01AF0C7C0BD
:1012D0001BF03BEC0CF036EF09F09DEF00F01C50DA
:1012E0001D10D8B476EF09F078EF09F081EF09F01E
:1012F0001C501D10D8A47FEF09F081EF09F086EF94
:1013000009F01A50D3EC0CF0B9EF09F020EE09F017
:101310001C50D9261D50DA22DE50DE10D8B493EFCF
:1013200009F095EF09F0B0EF09F020EE09F01C503C
:10133000D9261D50DA2210EE03F01C50E1261D5074
:10134000E222DE50E65CE650800A226EDE50800A21
:101350002258D8B0AEEF09F0B0EF09F0B9EF09F0BC
:1013600020EE03F01C50D9261D50DA22DE2A000E92
:10137000DD22120000018387CBEF09F001EC0DF0B4
:10138000F8EF09F024EC0DF0030EF8EF09F0FDEC96
:101390000CF0F8EF09F06CC00AF06DC00BF002D849
:1013A000DCEF09F00500FA6E6051FD6E6151FE6ED2
:1013B000F850FF6EFA5012000C6E0D6A0D50000AC4
:1013C000D8B4E5EF09F0C7EF09F00C50010AD8B422
:1013D000C7EF09F0030AD8B4BEEF09F0010AD8B488
:1013E000BEEF09F0070AD8B4C2EF09F0C7EF09F061
:1013F0001200056E01500210D8B401EF0AF003EF9D
:101400000AF01DEF0AF00550020D600EF324D96EAC
:10141000000EF420DA6E01C0DEFF02C0DDFF0550D1
:10142000020D6C0EF324D96E000EF420DA6E03C0A8
:10143000DEFF04C0DDFF35EF0AF00550020D600E3F
:10144000F324D96E000EF420DA6E580EDE6E1A0EFA
:10145000DD6E0550020D6C0EF324D96E000EF420E3
:10146000DA6E000EDE6E000EDD6E1200A39AE00E44
:10147000186E100E196EDDEC0CF0A398A80E186E05
:10148000160E196ED8EC0CF0080E7C6E900E9C6E49
:10149000240EA86E0F0EAB6E270E7D6E640E186EB6
:1014A0001A0E196EE7EC0CF0340E186E1A0E196E47
:1014B000E2EC0CF03A0E186E1A0E196EECEC0CF011
:1014C000000E396E000E3E6E000E3D6E080E476E29
:1014D000000E3C6E000E3B6E000E3A6EA38A1200A8
:1014E00000018391020E826F7EEF0AF001EC0DF095
:1014F000A5EF0AF0FDEC0CF0A5EF0AF070C00AF0C1
:1015000071C00BF020EE64F002D891EF0AF00500F4
:10151000FA6EDE50FD6EDE50FE6EF850FF6EFA5031
:1015200012000C6E0D6A0D50000AD8B49AEF0AF042
:101530007AEF0AF00C50020AD8B476EF0AF0010AEA
:10154000D8B476EF0AF07AEF0AF0120022EC0DF030
:10155000000183A1AEEF0AF0B0EF0AF0BDEF0AF090
:101560009FEC0CF00009D8B4B8EF0AF0BAEF0AF01B
:10157000BDEF0AF00F0E0001816F00018151020DD5
:10158000010EF324F66E0F0EF420F76E02D8D5EF9D
:101590000AF00500FA6E0900F550FD6E0900F550DD
:1015A000FE6EF850FF6EFA5012000001816F1200BB
:1015B000BCC023F0BDC024F0000E2E6E000E2D6EB8
:1015C000F6EF0AF0BAC0B4F0BBC0B5F0230E0001CC
:1015D000B66F000EB76FBEC0B8F0BFC0B9F095ECE3
:1015E00007F00001B4512D26B5512E2223C0F6FF7D
:1015F00024C0F7FF0800F5500009D8A402EF0BF053
:1016000004EF0BF0E2EF0AF02DC0BAF02EC0BBF0F1
:101610001200186E4750D8B410EF0BF012EF0BF019
:101620000AEF0BF0A3B817EF0BF019EF0BF01DEF5B
:101630000BF018C0A9FF32EF0BF0A398AC0E3E24BC
:10164000D96EDA6A000EDA2218C0DFFF3E2A070ED2
:101650003E642DEF0BF02FEF0BF031EF0BF0000E8F
:101660003E6E4706A388120020EE02F00A50D926EB
:101670000B50DA22DECF01F0DDCF02F00AC0D9FF35
:101680000BC0DAFFDECF03F0DDCF04F04DEC0CF041
:10169000000E066E000E076E000E086E000E096E3C
:1016A0007FEC0CF0020E1200080E47605AEF0BF0B0
:1016B0005CEF0BF072EF0BF0AC0E3D24D96EDA6AE2
:1016C000000EDA22DF50A96E3D2A070E3D646BEF53
:1016D0000BF06DEF0BF06FEF0BF0000E3D6E472A35
:1016E00073EF0BF0A3981200000E896E000E8A6E45
:1016F000000E8B6E2F0E926EF70E936EC40E946ECC
:10170000000E0F01486F0F0E496FF18E000E426FF1
:10171000000E416F000E406F050E0E01F76F060EB2
:10172000C66F12000AC001F00BC002F0000E046E7A
:10173000010E036E4DEC0CF0000E066E000E076EEF
:10174000000E086E000E096E7FEC0CF0040E120005
:101750000AC001F00BC002F0000E046E020E036E10
:101760004DEC0CF0000E066E000E076E000E086EBB
:10177000000E096E7FEC0CF0020E12000AC001F0A0
:101780000BC002F0000E046E010E036E4DEC0CF067
:10179000000E066E000E076E000E086E000E096E3B
:1017A0007FEC0CF0020E12000AC001F00BC002F038
:1017B000000E046E020E036E4DEC0CF0000E066E71
:1017C000000E076E000E086E000E096E7FEC0CF026
:1017D000040E1200000E9A6ED10ECF6E200ECE6E49
:1017E0009E90CE50CFCF18F0196A18C019F0186A21
:1017F00018103F6E1950406E010ECD6E1200A40EEF
:101800003C24D96EDA6A000EDA22AACFDFFF3C2A26
:10181000070E3C640EEF0CF010EF0CF012EF0CF022
:10182000000E3C6E3A2A1200C20E0001C26F000E7A
:10183000C36F000EBA6F000EBB6FC0C0BCF0C1C05A
:10184000BDF0C20EBE6F000EBF6FD8EC0AF01200E2
:1018500000EE60F0540EEE6AE806FDE100EE25F0C1
:101860001A0EEE6AE806FDE148904892000EF86E06
:10187000000124EF09F0000183A741EF0CF043EFD2
:101880000CF04CEF0CF018C07DF019C07EF01AC0BF
:101890007FF01BC080F083971200000183A753EFF5
:1018A0000CF055EF0CF05EEF0CF001C07DF002C0C3
:1018B0007EF003C07FF004C080F08397120020EC1C
:1018C0000DF095EC0CF074EC0BF08BEC0CF070EC74
:1018D0000CF0A9EC0CF0EAEC0BF036EC0AF012007C
:1018E000010EC16E020E0E01B86F000E0F01496F9E
:1018F000000EC36E000EC46E010EC26E120006C052
:1019000001F007C002F008C003F009C004F0000EA7
:10191000F9EC09F01200600ED36E000E9B6E000E03
:101920000F013D6F140E876E1200800EC76E080EF9
:10193000C66E000EC56EEF0EC86EC69A1200C5BC0C
:10194000A4EF0CF0A7EF0CF0010EA8EF0CF0000EC6
:101950001200F90ECB6E000ECC6E9E925D0ECA6E1A
:101960001200000183817C517C250DEC0DF0030EEB
:10197000120000018381D8807C350DEC0DF0050E3E
:10198000120000018393000E826F0E0E1200000100
:10199000839128EC0DF0040E120000018393000ED9
:1019A000826F0E0E1200196E195009EC0BF0120026
:1019B00018C045F019C046F0120018C043F019C015
:1019C00044F0120018C0CDF019C0CEF0120018C0BB
:1019D00041F019C042F0120018C0CBF019C0CCF091
:1019E000120017EC0DF0090E120017EC0DF00A0EA4
:1019F000120014EC0DF0050E12002EEC0DF0000E8E
:101A0000120030EC0DF0010E120030EC0DF0020E61
:101A1000120030EC0DF0010E1200016E01C0C9FF82
:101A20001200A6EC0AF01200C59AC5881200C58AF9
:101A3000C58812009C989C881200FFEC0BF01200E5
:101A4000D09E12009E9612009E861200C95012006F
:101A5000C5861200050E1200010E1200C584120088
:061A6000C5821200120015
:08FFF800ACF7D2FFFFFBBFFBD9
:00000001FF
