:040000009EEF00F07F
:100008005B82FACF4CF0FBCF4DF0D9CF4EF0DACF70
:100018004FF0F3CF50F0F4CF51F0F6CF52F0F7CFC6
:1000280053F0F8CF54F0F5CF55F0F2AC1EEF00F0D6
:1000380020EF00F088EF00F0A3A825EF00F027EFED
:1000480000F03DEF00F0A4A82CEF00F02EEF00F038
:100058003DEF00F002D83BEF00F00500FA6E585073
:10006800FD6E5950FE6EF850FF6EFA50120088EF80
:1000780000F0A3AA42EF00F044EF00F05BEF00F0BD
:10008800A4AA49EF00F04BEF00F05BEF00F002D8B4
:1000980059EF00F005000001FA6E6651FD6E6751D8
:1000A800FE6EF850FF6EFA50120088EF00F0A0A61E
:1000B80060EF00F062EF00F078EF00F0A1A667EFC4
:1000C80000F069EF00F078EF00F002D876EF00F06A
:1000D8000500FA6E3750FD6E3850FE6EF850FF6E10
:1000E800FA50120088EF00F09DA67DEF00F07FEF38
:1000F80000F088EF00F09EA684EF00F086EF00F095
:1001080088EF00F069EF00F055C0F5FF54C0F8FF24
:1001180053C0F7FF52C0F6FF51C0F4FF50C0F3FFC1
:100128004FC0DAFF4EC0D9FF4DC0FBFF4CC0FAFFED
:080138005B921100CCEF0AF00C
:100F000000E61692168416220FA810DC16CC1120CB
:100F1000171817101708170017F816F016D216C270
:100F2000120030EC0BF00009D8B499EF07F09BEFFA
:100F300007F0D8EF07F0A9EF07F090EC0BF0F2EF15
:100F400007F08CEC0BF0F2EF07F084EC0BF0F2EF13
:100F500007F013C048F014C049F020EE07F002D8A3
:100F6000BCEF07F00500FA6EDE50FD6EDE50FE6E3F
:100F7000F850FF6EFA5012004A6E4B6A4B50000A4E
:100F8000D8B4C5EF07F0A5EF07F04A50010AD8B46E
:100F9000A5EF07F0030AD8B49DEF07F0010AD8B413
:100FA000A1EF07F0070AD8B4A5EF07F0A5EF07F007
:100FB00024901EC0D9FF1FC0DAFF1E4A1F2ADF502F
:100FC00094EC0BF02006D8A0210620502110D8A4C4
:100FD000ECEF07F0EEEF07F0F1EF07F0060EF2EF9F
:100FE00007F0030E1200250E3C24D96EDA6A000EBB
:100FF000DA22000EDF6E9CA400EF08F002EF08F08A
:1010000017EF08F0250E3C24D96EDA6A000EDA22BA
:10101000DF8202D817EF08F005000001FA6E645174
:10102000FD6E6551FE6EF850FF6EFA5012009CA2E4
:101030001CEF08F01EEF08F033EF08F0250E3C24FB
:10104000D96EDA6A000EDA22DF8402D833EF08F0B4
:1010500005000001FA6E6251FD6E6351FE6EF8509C
:10106000FF6EFA501200250E3C24D96EDA6A000E8B
:10107000DA22DF50D8B43FEF08F041EF08F051EF2B
:1010800008F002D84FEF08F005000001FA6E605139
:10109000FD6E6151FE6EF850FF6EFA50120053EF74
:1010A00008F0B7EC0AF01200ADEC0BF01EC0D9FF4F
:1010B0001FC0DAFFDF6E1E4A1F2A2006D8A02106B5
:1010C00020502110D8B467EF08F069EF08F06EEFF8
:1010D00008F09BEC0BF0050EA6EF08F0248679EFE4
:1010E00008F078EC0BF0A6EF08F07CEC0BF0A6EF24
:1010F00008F00DC048F00EC049F002D88AEF08F0A1
:101100000500FA6E0150FD6E0250FE6EF850FF6E43
:10111000FA5012004A6E4B6A4B50000AD8B493EF53
:1011200008F075EF08F04A50010AD8B475EF08F0DE
:10113000030AD8B471EF08F0010AD8B471EF08F0CF
:10114000070AD8B475EF08F075EF08F01200A39AFB
:10115000E60E0001706F0F0E716F55EC0BF0A39847
:10116000160E0001706F140E716F50EC0BF0080E2C
:101170007C6E900E9C6E240EA86EE10EAB6E040E7B
:101180007D6E720E0001706F170E716F5FEC0BF0C9
:10119000420E0001706F170E716F5AEC0BF0480E83
:1011A0000001706F170E716F64EC0BF0000E396E5A
:1011B000000E3E6E000E3D6E080E5A6E000E3C6E26
:1011C000000E3B6E000E3A6EA38A12002486F6EFE4
:1011D00008F088EC0BF023EF09F0ABEC0BF0030EFA
:1011E00023EF09F084EC0BF023EF09F00DC048F079
:1011F0000EC049F002D807EF09F00500FA6E015061
:10120000FD6E0250FE6EF850FF6EFA5012004A6EEC
:101210004B6A4B50000AD8B410EF09F0F2EF08F017
:101220004A50010AD8B4F2EF08F0030AD8B4E9EF43
:1012300008F0010AD8B4E9EF08F0070AD8B4EDEFD6
:1012400008F0F2EF08F01200436E3F504010D8B49F
:101250002CEF09F02EEF09F048EF09F04350020D92
:10126000010EF324D96E000EF420DA6E3FC0DEFFCB
:1012700040C0DDFF4350020D0D0EF324D96E000E69
:10128000F420DA6E41C0DEFF42C0DDFF60EF09F0FE
:101290004350020D010EF324D96E000EF420DA6ED5
:1012A000660EDE6E170EDD6E4350020D0D0EF3243A
:1012B000D96E000EF420DA6E000EDE6E000EDD6ECA
:1012C00012002490020E236E6EEF09F088EC0BF0F2
:1012D00095EF09F084EC0BF095EF09F011C048F0A0
:1012E00012C049F020EE05F002D881EF09F00500A8
:1012F000FA6EDE50FD6EDE50FE6EF850FF6EFA5054
:1013000012004A6E4B6A4B50000AD8B48AEF09F0BB
:101310006AEF09F04A50020AD8B466EF09F0010AF0
:10132000D8B466EF09F06AEF09F01200A9EC0BF0EF
:1013300024A09DEF09F09FEF09F0ABEF09F030EC2E
:101340000BF00009D8B4A7EF09F0A9EF09F0ABEF53
:1013500009F00F0E226E2250020D010EF324F66EDC
:101360000F0EF420F76E02D8C2EF09F00500FA6EF6
:101370000900F550FD6E0900F550FE6EF850FF6E45
:10138000FA501200226E1200DFEC0AF0F28EF28C9C
:10139000898E898C8B90899C1F0E0001736F710E52
:1013A000726F1E0EE82EFED7722FFCD7732FFAD75E
:1013B00000F0898C1F0E0001736F710E726F1E0E8C
:1013C000E82EFED7722FFCD7732FFAD700F0CBEFA1
:1013D00009F09EEF00F020EE02F04850D926495067
:1013E000DA22DECF3FF0DDCF40F048C0D9FF49C060
:1013F000DAFFDECF41F0DDCF42F0F0EC0AF0000E74
:10140000446E000E456E000E466E000E476E10ECE8
:101410000BF0020E1200080E5A6011EF0AF013EFE3
:101420000AF029EF0AF02D0E3D24D96EDA6A000E7B
:10143000DA22DF50A96E3D2A070E3D6422EF0AF042
:1014400024EF0AF026EF0AF0000E3D6E5A2A2AEF2A
:101450000AF0A3981200000E896E000E8A6E000E2C
:101460008B6E2F0E926EF70E936EC40E946E000E5E
:101470000F01486F0F0E496FF18E000E426F000E84
:10148000416F000E406F050E0E01F76F060EC66F1E
:101490001200000E9A6ED10ECF6E200ECE6E9E9070
:1014A000CE50CFCF70F00001716B70C071F0706BD7
:1014B0007011566E7151576E010ECD6E120048C0FC
:1014C0003FF049C040F0000E426E010E416EF0EC5C
:1014D0000AF0000E446E000E456E000E466E000EC1
:1014E000476E10EC0BF0040E120048C03FF049C0EC
:1014F00040F0000E426E020E416EF0EC0AF0000E5B
:10150000446E000E456E000E466E000E476E10ECE7
:101510000BF0020E120048C03FF049C040F0000E30
:10152000426E010E416EF0EC0AF0000E446E000EA9
:10153000456E000E466E000E476E10EC0BF0020E6C
:10154000120048C03FF049C040F0000E426E020E4B
:10155000416EF0EC0AF0000E446E000E456E000E77
:10156000466E000E476E10EC0BF0040E1200680E73
:101570003C24D96EDA6A000EDA22AACFDFFF3C2AB9
:10158000070E3C64C6EF0AF0C8EF0AF0CAEF0AF093
:10159000000E3C6E3A2A120000EE68F0080EEE6A69
:1015A000E806FDE100EE01F03E0EEE6AE806FDE120
:1015B0005B905B92000EF86E0001C4EF09F0A7EC9F
:1015C0000BF026EC0BF02BEC0AF01CEC0BF001EC12
:1015D0000BF03AEC0BF049EC0AF0A7EC08F0120023
:1015E00024A6F5EF0AF0F7EF0AF000EF0BF03FC08A
:1015F0001EF040C01FF041C020F042C021F02496F0
:101600001200010EC16E020E0E01B86F000E0F0126
:10161000496F000EC36E000EC46E010EC26E120042
:1016200044C03FF045C040F046C041F047C042F0E2
:10163000000E24EC09F01200600ED36E000E9B6EBB
:10164000000E0F013D6F140E876E1200800EC76EE4
:10165000080EC66E000EC56EEF0EC86EC69A12005A
:10166000C5BC35EF0BF038EF0BF0010E39EF0BF086
:10167000000E1200F90ECB6E000ECC6E9E925D0E27
:10168000CA6E120024801D501D2494EC0BF0030E32
:1016900012002480D8801D3494EC0BF0050E12004B
:1016A00070C058F071C059F0120070C066F071C07F
:1016B00067F0120070C062F071C063F0120070C079
:1016C00064F071C065F0120070C060F071C061F02C
:1016D00012002492000E236E0E0E12002490AFEC26
:1016E0000BF0040E12002492000E236E0E0E120058
:1016F0009EEC0BF0090E12009EEC0BF00A0E12008D
:101700009BEC0BF0050E1200B5EC0BF0000E120076
:10171000B7EC0BF0010E1200B7EC0BF0020E12004A
:10172000B7EC0BF0010E12003F6E3FC0C9FF120074
:1017300096EC09F01200C59AC5881200C58AC588C2
:1017400012009C989C881200B7EC0AF01200D09E00
:1017500012009E9612009E861200C9501200C58685
:101760001200050E1200010E1200C5841200C5827F
:041770001200120051
:08FFF800ACF7D2FFFFFBBFFBD9
:00000001FF
