:0400000045EF00F0D8
:100008005C82FACF5AF0FBCF5BF0F2A80EEF00F05B
:1000180010EF00F01BEF00F0F2A215EF00F017EF61
:1000280000F01BEF00F044EC09F03FEF00F0F0A601
:1000380020EF00F022EF00F02DEF00F0F0A027EF06
:1000480000F029EF00F02DEF00F040EC09F03FEF51
:1000580000F0F0A832EF00F034EF00F03FEF00F0CE
:10006800F0A239EF00F03BEF00F03FEF00F03CEC7E
:1000780009F03FEF00F05BC0FBFF5AC0FAFF5C924B
:060088001100E2EF07F099
:100F000000000000000000000000000000000000E1
:100F100000000000000000000000000000000000D1
:100F20000000000000DCCFD1350000000000C0153B
:100F30003F6042A20D0000004B70A5EC363BAAB802
:100F40003F4F38763F3CAA38338CBEBF35007231F4
:100F50003F1872313F4CBB31330EEADDB555B38AD1
:100F600038610B36BBABAA2A3E42F1533E55326C78
:100F70003E05A38B3EABAAAA3EB76DDB3E9A9919FC
:100F80003F6042A20DCAF249710000804B269E7854
:100F90003EEEE9913E13CECC3EAAAA2A3FDB27546F
:100FA0003580209A3ED9EA04B80060DE3E00008019
:100FB0003F0000C03F00AAB83FC623F6B800407605
:030FC0003F0000EF
:100FC400960EF66E110EF76E000EF86E00EED8F067
:100FD40010EE24F00900F5CFEEFFE550E150FAE100
:100FE400700EF66E120EF76E000EF86E00EE52F0F2
:100FF40010EE08F00900F5CFEEFFE550E150FAE1FC
:1010040000EE60F0780EEE6AE806FDE100EE01F015
:10101400480EEE6AE806FDE15C905C92000EF86E04
:101024000001B8EF08F0080E7E6E900EAC6E240E30
:10103400AD6E190EB06E000E7F6E000E0101006FD2
:10104400000E016F2EEC09F0000E0101006F000E7E
:10105400016F29EC09F0000E0101006F000E016F11
:1010640033EC09F0000E486E1200F292F18C980EE7
:101074000101006F120E016F24EC09F0F288F09068
:10108400F18A960E0101006F120E016F1FEC09F038
:10109400F086F092F188940E0101006F120E016F38
:1010A4001AEC09F0F0881200000E896E000E8A6EA8
:1010B400000E8B6E9268E70E936E810E946E000E96
:1010C4000F01486F1F0E496FF18E000E426F000E24
:1010D400416F000E406F050E0E01E26F040EE16FCA
:1010E400120049504A10D8B47AEF08F07CEF08F0A7
:1010F40089EF08F002D889EF08F00500FA6E49502C
:10110400FD6E4A50FE6EF850FF6EFA501200120047
:101114004B504C10D8B491EF08F093EF08F0A0EFC7
:1011240008F002D8A0EF08F00500FA6E4B50FD6EEF
:101134004C50FE6EF850FF6EFA50120012004D50E3
:101144004E10D8B4A8EF08F0AAEF08F0B7EF08F0F3
:1011540002D8B7EF08F00500FA6E4D50FD6E4E5000
:10116400FE6EF850FF6EFA5012001200DDEC08F02B
:101174008B848B8282B0C1EF08F0C3EF08F0C6EF16
:1011840008F08B82BCEF08F08B92BCEF08F045EFBF
:1011940000F0E8030000D0070000B80B000088133B
:1011A40000002823000050460000760000000000E4
:1011B40040000000000048EC09F007EC09F056EC90
:1011C40008F0FDEC08F0EEEC08F037EC08F011EC58
:1011D40009F015EC08F01200000EC16E010E0E01AC
:1011E400B86F000E0F01496F000EC36E000EC46E7F
:1011F400010EC26E1200600ED36E000E9B6E000EC6
:101204000F013D6F140E876E1200000EC76E080E9C
:10121400C66E000EC56E030EC86EC69A1200000E8E
:10122400D76E9C0ED66E9C0E516EF294D568120049
:1012340000C149F001C14AF0120000C14BF001C1E4
:101244004CF0120000C14DF001C14EF0120000C17B
:10125400FEF001C1FFF0120000C14FF001C150F0D7
:10126400120000C1FCF001C1FDF01200803E00003C
:101274000000803FF09273EC08F01200F0908AECCA
:1012840008F01200F292A1EC08F01200D09E1200B5
:061294001200120012001E
:08FFF800BEF7F7FFFFFBBFFBA2
:00000001FF
